:020000040000FA
:030000000200D229
:030013000213BF16
:03001B000213FFCE
:03002B000213813C
:03003B0002147C30
:03004B0002139805
:03005300021599FA
:03005B000213A7E6
:030063000213B3D2
:030073000214E193
:03007B0002131459
:100083000215D2C4F5F0E5C75430C4C0E0E5C75447
:10009300CF45F0F5C7E47385C7F053F0CFD0E0C484
:1000A30045F0F5C722D083D082E5C7C45403C0E02E
:1000B300E493C0E0740193C0E0740293C45430F538
:1000C300F0E5C754CF45F0F5C72200000080FB756B
:1000D300D0007581407510087511E3000200E2122B
:1000E3000163B9000302014DE490E30878B6791780
:1000F3008002F0A3D8FCD9FA90F9BDAA82AB839011
:100103002A9978E979018015E493A3AC82AD838AB7
:10011300828B83F0A3AA82AB838C828D83D8E9D9A7
:10012300E790E308AA82AB83902A9978017901804A
:1001330015E493A3AC82AD838A828B83F0A3AA8256
:10014300AB838C828D83D8E9D9E775821A758311C5
:1001530074001200867582CD7583007400120086C8
:10016300790122E066701008A3E066700A08A3E034
:1001730066700408A3E06622C3E7960809E79608B9
:1001830009E7960809E796A2D265D03322C3E09621
:1001930008A3E09608A3E09608A3E096A2D265D050
:1001A3003322C3E7960809E7960809E7960809E7A3
:1001B3009622C3E09608A3E09608A3E09608A3E07E
:1001C3009622BB0102E722C082C08389828A83BB55
:1001D3000003E08002E493D083D08222E9799EC6B3
:1001E30008CAC608CBC608CCC6C370207996CACB4A
:1001F300CC7019798ECBCC70137986CC700EF980C4
:100203002ACA33CACB33CBCC33CC331930E7F2CC45
:10021300CBCA3350147004EA30E00DE4CA3ACACBB7
:100223003BCBCC3CCC500209C3E913C6CC182313F7
:10023300C6CB18C6CA18C6F92212027C20F01430A5
:10024300E72B74FFFCFBFA747F8022E4FCFBFA7457
:1002530080801AB48008BC00F2BB00EF800F50EB23
:10026300F9E4C39AFAE49BFBE49CFCE499C6CC183A
:10027300C6CB18C6CA18C6F922E4C9C608CAC60836
:10028300CBC6D3330308CCC63392F0C3947F402E3E
:1002930094184019C9B90704CACBCC225025C30905
:1002A300CA33CACB33CBCC33CC33D9F422F4600D6D
:1002B300C9CCC313CB13CBCA13CAD9F6CC22E4FCE3
:1002C300FBFA2214FCFBFA22E6C33318461846183D
:1002D3004622E7C33319471947194722181818E666
:1002E300084608700AE608C3337005E633F42208AB
:1002F30022191919E7094709700AE709C333700579
:10030300E733F4220922E6084608C313460833609C
:1003130002E633F422E7094709C3134709336002AE
:10032300E733F42200120309604F1203186012E747
:10033300548066F61202DF70111202D5703B090970
:1003430009F4F618F618F618F6221202F4701512CC
:1003530002CB08080860EAE6447FF618768018E4C2
:10036300F618F6221202CB60161202D57012E4F6CA
:1003730008F608F608E65480F60909091818182241
:10038300EAC0E0EBC0E0ECC0E0EDC0E0E687F0A43B
:10039300FBACF008E687F0A42CFCE435F0FA18096E
:1003A300E687F0A42C4B60027401CA35F0FCE433F9
:1003B300FB09E687F0D2F7A42CCB35F0FC1908E64D
:1003C30087F0A42BCC35F0FBE433FD0819E687F066
:1003D300D2E7A42C4ACB35F0CD3400FC09E687F0F4
:1003E300D2E7A42DCC35F0FDE433FA0918E687F003
:1003F300D2F7A42CCD35F0CA3400FC08E687F0D23E
:10040300E7D2F7A42ACC35F07A7E20E70B0ACB3368
:10041300CBCD33CDCC33CC33CB3350147004ED3050
:10042300E00ED2F1E4CD3DCDCC3CCC3B5005DA051A
:10043300C2F1EB547FC63308E63392F0FBE733098E
:10044300E733C39A502D2B70190C0D4C4D701518B2
:1004530006E608C333700D20F10AA2F013F6E41880
:10046300800B4024E4F630F002768018F618F61874
:10047300F68024D33B14501074FFA2F013F61876C1
:1004830080E418F618F6800FA2F013F618E633038B
:10049300F618ECF618EDF6D0E0FDD0E0FCD0E0FB6A
:1004A300D0E0FA221203186046120309603DE9689E
:1004B3007008F618F618F618F622748067F7120417
:1004C300DB090909748067F722120309601D12030F
:1004D300187005191919801A1202DF701F1202F41D
:1004E300C37003E66733191919400718181822084F
:1004F300080874FFF618F618F618F6221202F460CC
:10050300171202D5702192F01202CB7019501720E6
:10051300F014080808090909E7F61819E7F6181985
:10052300E7F61819E7F6221202CB60E6E869701FB6
:100533000808E62480F608E436F618547FB47F0CE6
:10054300E654806007F6E418F618F622181822E934
:10055300C6CC08C6CD08C6CE08C6CFC0E0E8C0E00A
:10056300EAC0E0EBC0E009E9F809E7FA09E7FBE6CE
:10057300F918E6F8C3EC98ED99EE9AEBC2E7F5F0BB
:10058300EFC2E795F0500E600CEBCFFBEACEFAE931
:10059300CDF9E8CCF8EAA2E7D2E7FAEB33FB13F59F
:1005A300F0EEA2E7D2E7FEEF33FFC5F013A2E73088
:1005B300E601B313C5F0C3C0E0C0F07F00C39BFBEB
:1005C300605B9418600C401AD0E023F9D0E0F80285
:1005D30006AA8AF0E9486003D2F0E4AFF0FAF9F82A
:1005E300803BEB30E40D89F0EA6003D2F0E4AFF036
:1005F300F9CAF8EB30E30D88F0EF6002D2F0AFF008
:10060300E4CAC9F8EB54076014FBC3EA13FAE9130D
:10061300F9E813F8EF135002D2E0FFDBEDD0E0C0AE
:10062300E030E739C3E49FFFF5F0EC98FC42F0EDCE
:1006330099FD42F0EE9AFE42F0D0E0F9D0E0F8E501
:10064300F0607AE923F9EE20E742D8028067C3EF2E
:1006530033FFEC33FCED33FDEE33FE80EAEC28FC94
:10066300ED39FDEE3AFED0E023F9D0E0F840028008
:100673001BC3EE13FEED13FDEC13FCEF135002D27C
:10068300E0FF08B800067F7F74FF802EEF3350171A
:100693008CF020F00260100CBC000C0DBD00080EA5
:1006A300BE000408E860DFE933E813FFEE2313FE1E
:1006B3004F4D4C8008E95480FFE4FEFDFCEE33EF20
:1006C30033F47004FCFD7E80D0E0FBD0E0FAD0E090
:1006D300F8D0E0CFC618CEC618CDC618CCC6F922BE
:1006E300120309700418181822120318700D74FFEE
:1006F300F61819F61819F61819F622E7548066F653
:100703001202CB700F1202D570F014F608F608F639
:1007130008F680D11202D5700CF608F60876800828
:10072300E6447F80EC1202F7700C1202E260BFE62F
:100733005480F6E480BB1202E2700519191980A5F2
:10074300E869700C763F18768018F618F6E8F922F7
:10075300E6CDC0E018ECC0E0E633CD33CDD313F6DD
:10076300E719FCE7191933CC33C3947F400ECD9DB1
:10077300502408E65480F6E418F6800FF4043D1480
:10078300501408E6447FF6187680E418F618F6D07D
:10079300E0FCD0E0FD22CCD313CCFD18E4C6CBC0E3
:1007A300E018E4C6CAC0E00808ED08C633E613F64D
:1007B30018E433C675F003C3CA97CA09CB97CB199C
:1007C3009C40047D08802EBD000302088C16B6FFF2
:1007D300050606081618C3CA33CACB33CB33CA2758
:1007E300CA09CB37CB193CC37D08803E187D08204E
:1007F300E75CC633C6CA33CACB33CB33DDF1D5F09E
:10080300EB30E77BCA97CA09CB974ACB199C406F59
:100813004B7025E620E0218066187D08C3CA97CA7D
:1008230009CB97CB199CD3C633C6CA33CACB33CBB8
:100833003350C9DDE7D5F0E1D3E4C636C608C63682
:10084300C608C636C608C636C61818188031C3CAC5
:1008530097CA09CB97CB199CB34097C633C6CA3303
:10086300CACB33CB33DD34D5F02EC6A2E0C640C8A5
:10087300CA27CA09CB37194A70BECB3CB480B90822
:1008830008E63308E633601F181818D0E0FAD0E002
:10089300FBD0E0FCD0E0FD22187D08CA27CA09CBB3
:1008A30037CB193CD3808013F618E4B67F11F618C2
:1008B300B6FF0EF618C60470D20808768080CAF612
:1008C30018F618F680C5080808EAC0E0EBC0E08611
:1008D300F0E7A4FA180986F0E7A42AFA180986F0C3
:1008E300E7A42AFA180986F0E7A42AFA1986F0E79A
:1008F300A4FBE5F02AFA190886F0E7A42BFBE5F040
:100903003AFA190886F0E7A42BFBE5F03AFA18182F
:100913000986F0E7A4C5F02BFBE43AFA1908E7C50A
:10092300F0C6A426F6E5F03BFBE43AFA1886F0E7B6
:10093300A4F6E5F00826F6E43B08F6E43A08F6D018
:10094300E0FBD0E0FA22E4CFC0E0E4CEC0E0E4CDA7
:10095300C0E0E4CCC0E075F020C3E633F608E6332C
:10096300F608E633F608E633F6181818EC33FCED10
:1009730033FDEE33FEEF33FFC3EC9709ED9709EE3A
:100983009709EF97191919400FFFEC97FC09ED9799
:10099300FD09EE97FE191906D5F0BEECF709EDF740
:1009A30009EEF709EFF7191919D0E0FCD0E0FDD0F3
:1009B300E0FED0E0FF22E4C396F608E496F608E4EE
:1009C30096F608E496F622C6F4C608C6F4C608C628
:1009D300F4C608C6F4C6226016080808C6C313C6C0
:1009E30018C613C618C613C618C613C6D5E0EA221E
:1009F3007009080808226016181818C6C333C608F9
:100A0300C633C608C633C608C633C6D5E0EA22E6EF
:100A130027F60809E637F60809E637F60809E63740
:100A2300F622E026F608A3E036F608A3E036F60839
:100A3300A3E036F622E026F008A3E036F008A3E0B0
:100A430036F008A3E036F022C3E096F008A3E09660
:100A5300F008A3E096F008A3E096F022E056F6082B
:100A6300A3E056F608A3E056F608A3E056F622E004
:100A730056F008A3E056F008A3E056F008A3E056AA
:100A8300F022E046F008A3E046F008A3E046F008B1
:100A9300A3E046F022E0F608A3E0F608A3E0F60898
:100AA300A3E0F622E493F608740193F60874029324
:100AB300F608740393F622E6F008A3E6F008A3E62B
:100AC300F008A3E6F022CAC0E0E6F0A308DAFAD001
:100AD300E0FA22CAC0E0E0A3C582CCC582C583CDBB
:100AE300C583F0A3C582CCC582C583CDC583DAE6B1
:100AF300D0E0CA22CAC0E0E493A3C582CCC582C5B4
:100B030083CDC583F0A3C582CCC582C583CDC58300
:100B1300DAE5D0E0CA22C3E498F8E499F9120B5A53
:100B23008026C3E49AFAE49BFBE920E7E9120B5A17
:100B3300E498F8E499F922C3E498F8E499F9120BDC
:100B43005AE498F8E499F9C3E49AFAE49BFB22EB9C
:100B530020E7CFE920E7E0B90010BB0008E88AF0FE
:100B630084F8AAF022E4FBC8FA22EB70227B10C8B7
:100B730033C8C933C9335007C39AC3DBF280069A1B
:100B830050012ADBEAC833F4C8C933F4C9FA227521
:100B9300F008E4C833C8C933C933C99AC99B5004A0
:100BA300C92AC93BD5F0ECFBC833F4C8E4C9FA221F
:100BB300600D08C6A2E713C618C613C6D5E0F32214
:100BC300600C08C6C313C618C613C6D5E0F422705A
:100BD3000422600D18C6C333C608C633C6D5E0F475
:100BE30018222510C0A8C2AF40021511F510D0A8D5
:100BF30022C0D02510C0A8C2AF50020511F510D0F5
:100C0300A8D0D0222510F582C0A8C2AF400215118A
:100C1300F510D0A8851183222510F582E43511F54E
:100C23008322E473C0E0E8C0E0E58124FCF8E6A297
:100C3300E7D0E0F8D0E0222510C582C0E0E511340A
:100C4300FFC583C0E0E510C3958224F8C0A8C2AFF6
:100C5300858311858210D0A8CEF0A3E520F0A37878
:100C630008E608F0A3DEFAEFF0A3E58124FAF8E63C
:100C730008F0A3E608F0A3E608F0A30808E608F0E6
:100C8300A3E608F0A315811581D0E0FED0E0F815A6
:100C93008115811581E8C0E0EEC0E0222510C582F0
:100CA300C0E0E51134FFC583C0E0E510C39582249D
:100CB300F9C0A8C2AF858311858210D0A8CEF0A356
:100CC300E520F0A37808E608F0A3DEFAEFF0A3E549
:100CD3008124FBF8E608F0A3E608F0A30808E60879
:100CE300F0A3E608F0A315811581D0E0FED0E0F86B
:100CF30015811581E8C0E0EEC0E0228511838510DF
:100D030082E0A3FEE0A3F5207808E0A3F608DFFA6B
:100D1300E0A3FFE0A3C0E0E0A3C0E0E0A3C0E0E005
:100D2300A3C0E0E0A3C0E085A8F0C2AF8582108530
:100D3300831185F0A8D083D08202009A8511838520
:100D43001082E0A3FEE0A3F5207808E0A3F608DF15
:100D5300FAE0A3FFE0A3C0E0E0A3C0E0E0A3C0E0AB
:100D6300E0A3C0E085A8F0C2AF858210858311851A
:100D7300F0A8D083D08222C0D02510C582C0E0E580
:100D83001134FFC583C0E0E510C3958224F3C0A8E6
:100D9300C2AF858311858210D0A8C8F0A3E9F0A360
:100DA300EAF0A3EBF0A37908E709F0A3D8FAECF093
:100DB300A3EDF0A3EEF0A3EFF0A3D0E0F0A3D0E017
:100DC300F0A3D0E0F0A3E520F0A3E5F0F0A32285A3
:100DD3001183851082E0C0E0A3E0F9A3E0FAA3E069
:100DE300FBA37808E0F608A3DFFAE0FCA3E0FDA389
:100DF300E0FEA3E0FFA3E0C0E0A3E0C0E0A3E0F5D2
:100E0300D0A3E0F520A3E0A3F5F0E5A8C2AF858267
:100E130010858311F5A8D082D083D0E0F8D0E032DA
:100E23007404800A74038006740280027401C0E0B3
:100E3300F404120C07D0E0120AC92274048004746B
:100E4300028000CCC0E0EDC0E0E510C39CCCAD1146
:100E530050011DC0A8C2AF8C108D11D0A8120AD6A4
:100E6300D0E0FDD0E0FC22D083D082C5F0E493A390
:100E7300C5F0C395F0F5F0E493A3C395F04005E501
:100E8300F0048001E475F002A42582F582E5F035D3
:100E930083F583E493A3C0E0E493C0E022D083D03E
:100EA30082E9C0E0E493A3C386F0C5F095F0F908A6
:100EB300E493A386F0C5F095F0700BE493A3C39974
:100EC3004005E9048002A3E475F002A42582F582BB
:100ED300E5F03583F583D0E0F9E493A3C0E0E49330
:100EE300C0E022D083D082CCC0E0E493A36006129A
:100EF3000F101470FAE493A36006120F2F1470FA04
:100F0300D0E0FCE493A3C0E0E493C0E022C0E0E4BB
:100F130093A3D39C5010E493A3C39C400AD0E0D086
:100F2300E0D0E0020F03A3A3A3D0E022C0E0E49348
:100F3300A36C7009D0E0D0E0D0E0020F03A3A3D0EC
:100F4300E022D083D082ECC0E0EDC0E0E493A3FCC8
:100F5300E493A3FDED4C600D120F91EC24FFFCED27
:100F630034FFFD80EFE493A3FCE493A3FDED4C6019
:100F73000D120FD0EC24FFFCED34FFFD80EFD0E029
:100F8300FDD0E0FCE493A3C0E0E493C0E022C0E022
:100F9300C3E49396087401939618400FE493667024
:100FA3000808740193661870007019A3A3C3E4932F
:100FB30096087401939618A3A3400DD0E0D0E0D017
:100FC300E0020F81A3A3A3A3A3A3D0E022C0E0C0A8
:100FD300F088F0E493667008087401936618700053
:100FE300A8F0A3A3700BD0F0D0E0D0E0D0E0020FC4
:100FF30081A3A3D0F0D0E022EC23F5F0EB548023BF
:1010030045F0C4F5F064207004EB4480FBE5C7FCB5
:1010130054CF45F0F5C7E48B838A8293F98CC722BA
:101023007800800A78018006780480027808C083FB
:10103300C082C085C084C09F759F03C3E994307587
:10104300F008A444804BF5858A84E87013851082E8
:10105300851183E0700104F8A3E0700104F98002B4
:1010630079018C828D8310AF11759201E493A3757E
:101073009200F0A3D8F3D9F18013C2AF759201E4C3
:1010830093A3759200D2AFF0A3D8EFD9EDD09FD040
:1010930084D085D082D08322C083C082C085C0849F
:1010A300C0C77583F47582D7C083C08275851175F7
:1010B300840475F016780110AF027800759201E090
:1010C300A3759200F0A3D5F0F3E86002D2AFD0820B
:1010D300D0838B858A84780110AF0278008DAD8C24
:1010E300AC75C751121102759200E5AE20E7FBE81B
:1010F3006002D2AFD0C7D084D085D082D08322E41F
:101103007375920175AE027A04E0F5AFA3DAFAE5DE
:10111300AE20E6FBD9F12279FF12232553BEFBE56E
:10112300BEA2E650FA0078F8790100E824FF18E936
:1011330034FFF9E87001E970F175C600E5C670FC8B
:1011430043BE0443FE0143FE08438F201211C978B6
:10115300108682088683800374CDF01211BCC37499
:1011630008958274E0958340EF7582FF7583008054
:1011730004A88276CDE581F5081211BC750900C378
:10118300E5089582E4958340E8790012242112262C
:10119300977A007B001223A912122812265B1216DB
:1011A3003612218D12232B79FF12231F7902122469
:1011B300211223317A007B0022E58224FFF582E5A8
:1011C3008334FFF5832274F8120C9F7E007F00792D
:1011D30004122679E960190E7A107B27122433EE64
:1011E300601EC3940340E8D290D2937F01020D3F67
:1011F3007E007A507BC31224337A507BC31224338C
:10120300EF70047A0180027A00EAFF600CA290502A
:1012130004C29080BAD29080B6A2935004C2938045
:10122300AED29380AA74F7120C9F7508007509005B
:101233007808120E2B7C087D007A017B001223AF05
:101243007402120BF47508107509F57808120E2B49
:101253007508087509007808120E2B7C007D007A4A
:10126300017B001223C17404120BF4781079F57C0E
:1012730000E8FAE9FB8A828B83A3A882A9838A8286
:101283008B83E064FF600302130F0CECC3940840EC
:10129300E07B10781079F57A08EB88828983F00B6C
:1012A300A3A882A9831AEA70F075080080187A242B
:1012B3007BF4122433630801AA0879011227037A05
:1012C300247BF41224331226A9E9640470E07A0023
:1012D30079011227037A027907122673EA90F5102F
:1012E300F0EB90F511F07508107509F57808120EFA
:1012F3002B7508087509007808120E2B7C007D00F9
:101303007A017B001223BB7404120BF47F02020DDB
:101313003FC0E074F1120D7A7E0075080175090073
:10132300EE7808120BD2E508558A6039EEC333F81C
:10133300E433F9E81213767002A3E06028A2A0B3A5
:1013430092A0750801750900EE7808120BD2E50822
:10135300F4558AF58AEEC333121376F8A3E0F583C6
:101363008882120C250EEEC3940840AEC2EB7F02B6
:10137300020DD22401F582E934F6F583E022C0E0C0
:10138300C0D0C082C083C2C790DF60E0D083D08268
:10139300D0D0D0E032C0E074F2120D7A1227637F0E
:1013A30001020DD2C0E074F2120D7A12276980EFA8
:1013B300C0E074F2120D7A12276F80E3C0E0C0D050
:1013C300E8C0E0E9C0E0EAC0E0C082C083E5C1C094
:1013D300E090F68112146490F681121469D0E0F063
:1013E30090F68112144F90F68212144990F682708F
:1013F3000512143F80031214440214C5C0E0C0D088
:10140300E8C0E0E9C0E0EAC0E0C082C083E5F9C01B
:10141300E090F68312146490F683121469D0E0F01E
:1014230090F68312144F90F68412144990F6847048
:101433000512143F80031214440214C512145CE411
:1014430022121457042212157AE06A22121454FA53
:1014530022E0F8A312145CE022E0F5838882A3A3C0
:1014630022121454F82212159012147022E028FA52
:10147300A3E034008A82F58322C0E0C0D0E8C0E054
:10148300E9C0E0EAC0E0C082C083C2E91214D71207
:10149300154A90F681700512152D8003121532F04E
:1014A3001214D712156B600E90F68112152290F666
:1014B30081121580F5C1D083D082D0E0FAD0E0F953
:1014C300800AF0D083D082D0E0FAD0E0D0E0F8D028
:1014D300D0D0E03290F68112155D90F68122C0E003
:1014E300C0D0E8C0E0E9C0E0EAC0E0C082C083C287
:1014F300EAC2F912155312154A90F68370051215B4
:101503002D8003121532F012155312156B600E90D5
:10151300F68312152290F683121580F5F98097E071
:10152300240BF888828983E0F822121538E422120A
:101533001538E00422E0240B1812154022A3E034EE
:1015430000F98882898322E0240C081215666A2236
:1015530090F68312155D90F68322E0240BF81215A2
:1015630066FA22121540E022E0F8A312157AA3A32B
:10157300A3A3A3A3E06A2212145CA3A322121590CF
:10158300A3A3A3A3A3A3A3A3121470E022E0FAA32B
:10159300E0F5838A8222C0E074F2120D7AE59EFAA6
:1015A300E5C35A542060051227C9801EE5C35A5467
:1015B30040601790DF07E0FA90F68FE0C39AA2D25B
:1015C30065D0335002EAF075C3A37F01020DD2C088
:1015D300E074F2120D7AE591FAA2E0C0D0E5E9A237
:1015E300E092F0120C27158182F0500875E9FE1283
:1015F30028058037E5E95A5402600875E9FD122889
:101603000B8028E5E95A5440600CC2AF5391BFD216
:10161300AF12291F8015E5E95A5420600E1228F5F0
:1016230075E9DF90DF62E0A2E240F2759B0075E9A5
:10163300FF809774F8120C9F1220FD122037121F9F
:1016430029790112165EE9FE79FF122325EEF9804E
:10165300057401120BF47F01020D3F74F8120C9F05
:1016630074FF120BE51220F7E9FEE4851082851161
:1016730083F0AA82AB8379561221157A107BF57910
:10168300E212211590F9BBE07002A3E0601290F919
:10169300BBE0FAA3E0FB12234990F9BBE4F0A3F00B
:1016A300EEF980ADC082C08374E269700B7C107D5B
:1016B300F51222C57900800312210F02185774F81E
:1016C300120C9F8908EAFEEBFF74E26508700BEECB
:1016D300FCEFFD7A107BF51222C5EEFAEFFBA908A9
:1016E300122115021659F582EB12171422C082C07B
:1016F3008312170A121F2F021855C082C0831217B4
:101703000A121F35021855EA2413F582EB12171437
:10171300223400F583E4F02274F5120C9FEAFEEB09
:10172300FF8E828F837808120A9890F9B77808128F
:101733000ABA90F9BBE07002A3E0600579FC0218D5
:10174300198E828F83A3A3A3A3E0640370030217FC
:10175300FC8E828F83A3A3A3A3E070477A1B7B0035
:101763001223438A088B09A808A90990F9BBE8F05A
:10177300A3E9F0E87001E97005791A0218197C1BD6
:101783007D0079001222CB90F9BBE0240BF8A3E093
:101793003400F9EE2413F582EF12190EE8F0A3E9F1
:1017A300F080568E828F83A3A3A3A3A3A3A3E06099
:1017B30048EE2413F508EF3400F5098E828F83A3D6
:1017C300A3A3A3A3A3A3E075F021A4FAABF0122370
:1017D30043850882850983EAF0A3EBF085088285B7
:1017E3000983E0F8A3E0F990F9BBE8F0A3E9F090EE
:1017F300F9BBE07002A3E06080EE2410F582EF12E3
:1018030016EC8E828F83A3A3A3A3A3A3F0EEFAEF18
:10181300FB12215779007F04020D3F74F8120C9FCD
:1018230074FF120BE5EAFEEBFF740185108285114C
:1018330083F0AA82AB837952122115EE2415F58227
:10184300EF1216ECEE2420121913121F3B7900023B
:1018530016547900D083D0822274F3120C9F8A0C21
:101863008B0D7B007A00E50C241BF582E50D121924
:101873000EE0F9121FB38A088B09AE08AF09EE70A8
:1018830001EF607D850C08850D09750A0078081243
:101893000E277C107D00EE2422FAEF3400FB122287
:1018A300BF7403120BF4E50C241BF8E50D3400F9A7
:1018B300E8FAE9FB8A828B83E08E828F83A3A3A35A
:1018C300A3F0E50C241CF582E50D12190EE0F508D2
:1018D300A3E0F5097808120E278A828B83E0FC7D4A
:1018E300008E828F83A3A3E0FAA3E0FB1222BF74CE
:1018F30003120BF4EE241F121913121FAD7900808B
:1019030002791A7F06020D3FF582EB3400F583223C
:10191300F582EF121714EEFAEFFB2274F5120C9F07
:101923008A088B09ECFEEDFF7B007A007900121F19
:10193300B3EA7001EB603AEA242D121977242212DC
:10194300190BE508F0A3E509F0EA242A1219772414
:101953002B12190BEEF0A3EFF0EA242E1216E9EA8C
:10196300242F12190B7431F0EA241F1216E9121FE7
:10197300AD021819F582EB3400F5837402F0EA2204
:101983001200A88FA8031200A8AEA8031200A8543F
:10199300A9031200A88AA9031200A8E29702120061
:1019A300A88E9A021200A8AF9A021200A82C9B02DA
:1019B3001200A8F19B021200A8F99B021200A820B2
:1019C3009C021200A8299C021200A82C9C0212005F
:1019D300A85A9C021200A8C49C021200A85D9E0291
:1019E3001200A81B9F021200A85D9F021200A83ECE
:1019F300A0021200A841A0021200A85FA0021200D8
:101A0300A80EA2021200A86FA2021200A8EFA2025F
:101A13001200A8FCB5031200A83AB6031200A8826C
:101A2300B5021200A8B4B5021200A8DBB502120079
:101A3300A81CB6021200A82EB6021200A85FB602B6
:101A43001200A8D0B6021200A86CB7021200A82197
:101A5300B8021200A870B8021200A8B3B8021200AC
:101A6300A8D9B8021200A816B9021200A85FB902D9
:101A73001200A87EB9021200A8A9B9021200A8EDAB
:101A8300B9021200A810BA021200A86CBA0212001E
:101A9300A861BB021200A809BC021200A894BC02F0
:101AA3001200A8DADB021200A8FCDB021200A84A2B
:101AB300DC021200A88ADC021200A8BEDD021200BA
:101AC300A822DE021200A831DE021200A83CDE02C8
:101AD3001200A800DF021200A88ADF021200A88CFD
:101AE300E0021200A894E0021200A841E1021200F1
:101AF300A871E1021200A888E1021200A85CE202C8
:101B03001200A80080031200A82480031200A86D0D
:101B130080031200A82081031200A83B8203120055
:101B2300A84D82031200A8E782031200A8028303D0
:101B33001200A87883031200A87BA1031200A8BF98
:101B4300A2031200A88AA4031200A893A4031200FC
:101B5300A89CA4031200A8A5A4031200A8AEA40382
:101B63001200A8B7A4031200A8C5A4031200A8CEAC
:101B7300A4031200A8D7A4031200A8E0A403120030
:101B8300A8FFA4031200A89D96031200A84197037F
:101B93001200A88C97031200A8FA97031200A81743
:101BA30098031200A84898031200A8909803120003
:101BB300A88599031200A8D684031200A8F486030B
:101BC3001200A84088031200A8F688031200A82E6A
:101BD30072011200A85F72011200A8D574011200ED
:101BE300A86F75011200A87D75011200A8B87501D0
:101BF3001200A8B376011200A8DD78011200A8CD67
:101C03007E011200A82D81011200A8F381011200A8
:101C1300A85B83011200A85C84011200A85C870101
:101C23001200A81289011200A86A89011200A84AA9
:101C33008A011200A8F58A011200A8B88B011200CC
:101C4300A89CD4021200A8AAD4021200A8D3D402DA
:101C53001200A8F5D4021200A874D7021200A8BA81
:101C6300D7021200A828D8021200A8FFD802120037
:101C7300A834D9021200A88BD9021200A8BFD90236
:101C83001200A809DA021200A859DA021200A865A4
:101C9300DA021200A8BDDA021200A8F5DA02120075
:101CA300A82CA6011200A8A0A6011200A85EA801F4
:101CB3001200A8F5A8011200A86EAA011200A83FFD
:101CC300AC011200A8C7AC011200A8B4AD01120008
:101CD300A837AE011200A888AE011200A80DB0010A
:101CE3001200A81DB0011200A82AB0011200A84ECC
:101CF300B0011200A856B0011200A874B00112007E
:101D0300A87EB2011200A8FFB2011200A850B301CD
:101D13001200A894B3011200A89DB3011200A8EC0D
:101D2300B3011200A853B4011200A869B50112004F
:101D3300A8C5B5011200A88AB6011200A81CB701F4
:101D43001200A819B8011200A8E9B8011200A85B93
:101D5300BA011200A853BB011200A809BC0112006A
:101D6300A8A4BC011200A8B2BC011200A8D6BC01F1
:101D73001200A8FFBC011200A80BBD011200A81796
:101D8300BD011200A835BD011200A879BD011200E2
:101D9300A8D9BD011200A810BE011200A853BE01AC
:101DA3001200A88756011200A81157011200A8D8E3
:101DB30057011200A89158011200A84559011200B9
:101DC300A8035B011200A8F95B011200A8F05C01F3
:101DD3001200A8935D011200A8BA5D011200A86C5D
:101DE3005E011200A8B65E011200A8495F0112004D
:101DF300A8E85F011200A80A60011200A8E26001CE
:101E03001200A88E62011200A8E662011200A83730
:101E130063011200A83B64011200A87D6401120053
:101E2300A8C264011200A82065011200A87066010F
:101E33001200A8BC66011200A82368011200A8AB17
:101E43006A011200A8D36A011200A8156D011200DD
:101E5300A86C6D011200A8016E011200A8546E0156
:101E63001200A8876E011200A8B16E011200A89C8F
:101E73006F011200A81470011200A8717101120001
:101E8300A8A171011200A8B9FF021200A8E1FF0284
:101E93001200A81DC4031200A868C4031200A824DA
:101EA300F0011200A857F0011200A820F10112005E
:101EB300A821F2011200A83FF3011200A8DFF401E8
:101EC3001200A85AF5011200A806F6011200A81F75
:101ED300F7011200A88AF7011200A8D1F701120036
:101EE300A828F8011200A832F8011200A88BF80103
:101EF3001200A8F5F8011200A88BF9011200A80F2F
:101F0300FA011200A805FB011200A88BFB011200C5
:101F1300A8B7FB011200A8EBFB011200A81CFC01EF
:101F23001200A8D2FC011200A8EBFC011200A84188
:101F3300FD011200A864FD011200A870FD0112004A
:101F4300A874C5021200A8B9C5021200A820C602CF
:101F53001200A871C6021200A8AAC6021200A8CBDA
:101F6300C6021200A8D5C6021200A8EDC7021200CD
:101F7300A812C8021200A894C8021200A8A7C80297
:101F83001200A8B9C8021200A85BC9021200A85027
:101F9300CA021200A85CCB021200A8EECB02120008
:101FA300A8F8CB021200A862CC021200A873CC02DC
:101FB3001200A8BCCC021200A806E3021200A83645
:101FC300E3021200A866E3021200A895E3021200DE
:101FD300A8CEE3021200A82DE4021200A848E502ED
:101FE3001200A892E5021200A8C1E5021200A8316E
:101FF300E6021200A859E6021200A885E6021200C2
:10200300A893E6021200A801E7021200A840E70223
:102013001200A882E7021200A8BFE7021200A8E29A
:10202300E7021200A8EDE7021200A80BE802120073
:10203300A8E9E8021200A8FCE8021200A8438E03F4
:102043001200A8808E031200A8968E031200A8A87F
:102053008F031200A8BF8F031200A8D38F031200AF
:10206300A86D90031200A8C290031200A88A9103DE
:102073001200A89691031200A8128C021200A8471E
:102083008C021200A8618C021200A8CE8C021200EE
:10209300A8708D021200A8B48D021200A808900245
:1020A3001200A88B90021200A82B91021200A8889C
:1020B30093021200A89793021200A89A93021200A7
:1020C300A8A293021200A8BF93021200A8D1930200
:1020D3001200A80394021200A8C894021200A8399F
:1020E30095021200A8A495021200A84696021200B7
:1020F300A80497021200A83297021200A8D19702EF
:102103001200A80BAB031200A832AB031200A859AC
:10211300AB031200A8C9AB031200A8A0C5031200A9
:10212300A8B0C5031200A8EDF4021200A872F502CC
:102133001200A871F6021200A85BF7021200A8F5BC
:10214300F7021200A832F9021200A8ECF9021200F9
:10215300A82CFA021200A85EFA021200A8C1920388
:102163001200A89D93031200A80094031200A89BD9
:1021730094031200A85B95031200A8D495031200E0
:10218300A80F96031200A85496031200A85CAC0291
:102193001200A86AAC021200A8DFAC021200A8FA6F
:1021A300AC021200A849AD021200A859AF021200F6
:1021B300A81CB1021200A8E9B3021200A820B402BD
:1021C3001200A83AB4021200A8ACB4021200A8E0AC
:1021D300B4021200A80FB5021200A85BB5021200E8
:1021E300A87EE0011200A896E0011200A8AEE0016B
:1021F3001200A8F2E0011200A86EE1011200A8D3B8
:10220300E1011200A851E2011200A8FBE201120051
:10221300A85EE4011200A8C4E4011200A805E501C8
:102223001200A895E5011200A85AE7011200A85D63
:10223300E8011200A866ED011200A8DAED01120010
:10224300A8C1EE011200A8DFEE011200A806EF01FB
:102253001200A81EEF011200A84AEF011200A87293
:10226300EF011200A8C5EF011200A80080021200BE
:10227300A86385021200A87E85021200A8A6850223
:102283001200A8A086021200A85787021200A8C352
:1022930087021200A8FC88021200A87889021200A3
:1022A300A8908A021200A8268B021200A8298B028A
:1022B3001200A85E8B021200A833EF021200A83DA1
:1022C300EF021200A887EF021200A8A6EF02120085
:1022D300A8C3EF021200A879F0021200A8B7F00217
:1022E3001200A8C1F0021200A819F1021200A846B8
:1022F300F1021200A89DF1021200A812F2021200CC
:10230300A84EF2021200A8B6F2021200A8F9F202D5
:102313001200A872F3021200A8D2F3021200A8045A
:10232300F4021200A814F4021200A824F40212000A
:10233300A843F4021200A8F9B7031200A863B80374
:102343001200A888B8031200A899B9031200A87B49
:10235300BE011200A81CC0011200A857C001120040
:10236300A823C2011200A8B9C2011200A842C401E5
:102373001200A88BC4011200A883C5011200A80291
:10238300C6011200A87EC6011200A8C5C60112002C
:10239300A814C7011200A854C7011200A8A2C801BB
:1023A3001200A804CA011200A8EACB011200A8F780
:1023B300CB011200A852CC011200A8A6CC01120036
:1023C300A85BD0011200A862C5031200A878C50358
:1023D3001200A8469A031200A8809A031200A80FBD
:1023E3009B031200A84E9B031200A8CB9B03120071
:1023F300A8099C031200A83F9C031200A8769C0323
:102403001200A88F9C031200A8B59C031200A8C455
:102413009D031200A8D69D031200A872C4031200E4
:10242300A8F3BF031200A885C0031200A8CEC003FF
:102433001200A8EAC0031200A804C1031200A8698D
:10244300FA021200A840FB021200A84BFB02120082
:10245300A8DCFB021200A868FD021200A88DFD0291
:102463001200A806A3021200A879A3021200A85220
:10247300A4021200A8ECA4021200A803A5021200F1
:10248300A851A5021200A864A5021200A8A7A502DC
:102493001200A820A6021200A841A6021200A82139
:1024A300A7021200A84EA7021200A869A7021200F1
:1024B300A8AAA7021200A8E1A7021200A83EA80238
:1024C3001200A85DA8021200A8B8A8021200A80C66
:1024D300AA021200A838AA021200A86CAA021200CB
:1024E300A896AA021200A8A2AA021200A8DFAA02B2
:1024F3001200A87BAB021200A87EAB021200A881D7
:10250300AB021200A89EAB021200A81FAC0212007D
:10251300A83CAC021200A84AAC021200A8588C01D5
:102523001200A8628C011200A8CA8C011200A82410
:102533008D011200A8AA8D011200A8128E011200AB
:10254300A8548E011200A8DD8E011200A86E8F011F
:102553001200A8EA8F011200A82A90011200A8D342
:1025630094011200A80D95011200A86995011200AB
:10257300A86C95011200A81496011200A85D97019A
:102583001200A8E699011200A8869A011200A8B6C3
:102593009B011200A8CA9E011200A8DA9E01120034
:1025A300A8F39F011200A8E2A0011200A8F9A1015B
:1025B3001200A88BA2011200A8D7A2011200A84FF3
:1025C300A3011200A80BA4011200A897A4011200F2
:1025D300A8B4D0011200A865D1011200A8D7D10177
:1025E3001200A8F9D1011200A898D2011200A8E79D
:1025F300D2011200A8C6D3011200A80CD401120004
:10260300A891D4011200A8F3D4011200A807D7019E
:102613001200A875D7011200A8CED7011200A8573F
:10262300D9011200A817DA011200A8AEDA011200CC
:10263300A8E9DA011200A84DDB011200A889DC0128
:102643001200A88FDD011200A82EDE011200A817C8
:10265300DF011200A8C4C5031200A8E9B9031200E0
:10266300A8FBBA031200A861BB031200A867BD034D
:102673001200A8ACBD031200A85DBE031200A8D2CD
:10268300BB031200A8E0BB031200A8B3C5031200EA
:10269300A825C3031200A835C3031200A850C3031F
:1026A3001200A89FC3031200A8C1AF031200A8C65B
:1026B300AF031200A80FB1031200A831B103120037
:1026C300A83EB1031200A873B1031200A876B103A8
:1026D3001200A879B1031200A87CB1031200A8D29A
:1026E300B1031200A8D5B1031200A8D8B103120098
:1026F300A8DBB1031200A8FBFF011200A8A0890305
:102703001200A8AE89031200A82C8A031200A85253
:102713008B031200A8DF8D031200A83EE90212000A
:10272300A818EA021200A8A8EA021200A846EB02BF
:102733001200A868EB021200A897EB021200A80C83
:10274300EC021200A849EC021200A8CBEC02120022
:10275300A80FED021200A8C8ED021200A813EE02A2
:102763001200A83CEE021200A895EE021200A8F493
:10277300EE021200A882BD021200A83BBE021200A4
:10278300A86CBE021200A80CC0021200A842C2022A
:102793001200A8BCC2021200A8DDC3021200A8F7EF
:1027A300B3031200A833B4031200A846B403120003
:1027B300A874B4031200A8A4B4031200A8DFB403DE
:1027C3001200A84FB5031200A882B5031200A8E4B3
:1027D300B1031200A824B2031200A836B2031200F8
:1027E300A852B2031200A896B2031200A89FB20324
:1027F3001200A8EDB2031200A80EB3031200A8BA88
:10280300B3031200A8C0B3031200A8CDB303120090
:10281300A8F7C4031200A814C5031200A87CFD0185
:102823001200A81AFE011200A827FE011200A82F09
:10283300FE011200A852FE011200A877FE01120049
:10284300A8F6FE011200A86CFF011200A89BFF016D
:102853001200A8D5FF011200A8EBFF011200A8ABDC
:10286300C3031200A8D0C3031200A8F8C3031200C5
:10287300A87EAD031200A897AD031200A8A3AD0371
:102883001200A8B7AD031200A8DAAD031200A8E640
:10289300AD031200A8F5AD031200A808AE031200A1
:1028A300A83DAE031200A877AE031200A8ACAE0396
:1028B3001200A8F8AE031200A844AF031200A85CEC
:1028C300AF031200A866AF031200A877AF0312008C
:1028D300A8BBAF031200A810CD021200A838CD0286
:1028E3001200A84BCD021200A85ECD021200A874FC
:1028F300CD021200A8D0CD021200A80ACE02120007
:10290300A82ED1021200A825D2021200A857D20283
:102913001200A8BBD2021200A88BD3021200A8B3E4
:10292300D3021200A8C8D3021200A8D8D3021200FF
:10293300A81ED4021200A873D4021200A8BDBE03BD
:102943001200A8D8BE031200A802BF031200A81FDA
:10295300BF031200A847BF031200A869BF031200F8
:10296300A882BF031200A8B1BF031200A8CCBF0303
:102973001200A8B8C4031200A8EE9D031200A8F524
:102983009D031200A8029F031200A8349F031200A4
:10299300A8569F031200A8799F031200A89B9F03C8
:1029A3001200A8D69F031200A845A0031200A88214
:1029B300A0031200A8CFA0031200A8FDA0031200D9
:1029C300A81DA1031200A833C2031200A86CC203FE
:1029D3001200A822C3031200A80039011200A88F15
:1029E30039011200A8CE39011200A8FE39011200E4
:1029F300A8E63E011200A8703F011200A8D54001CD
:102A03001200A8DD42011200A88543011200A8E1CB
:102A130043011200A88D47011200A8D449011200F6
:102A2300A8BA50011200A84F51011200A8A15101E8
:102A33001200A80D52011200A8A352011200A80E01
:102A430053011200A8D653011200A8DC540112004E
:102A5300A88B55011200A8F455011200A85856017D
:102A63001200A818C1031200A881C1031200A8D044
:102A7300C1031200A811C2031200A808A503120083
:102A8300A860A5031200A885A8031200A833C503F4
:102A93001200A882C50301010BFEFF1001300000E4
:102AA30000B520B520B520B5207D1F771FB520E8E0
:102AB3002B000000000E2D0000F32D012ECE2E0062
:102AC300000000000000000000000000000C0000F7
:102AD300000C00312E30302028463857312E342E4A
:102AE300332900312E31302028463857312E342EE9
:102AF300332900FAF90AFAFFFFFFFF00000000E89C
:102B030003000059415453D7E47320D51B9D26ED90
:102B13002189196924FD2907FF01020031F500000D
:102B23000000400F0000500000000010C16CF5646D
:102B330000020008000005011E1E02051E0203B864
:102B43000B803E34120100000000580000640000B6
:102B53000000000C0002050200010206060606063C
:102B630000141414141400060100020004000A04E3
:102B73000F010000038FFA038FFA00004040F91E93
:102B83000B1FE11EDB1E171F1D1F111FC91EED1E8C
:102B9300F31EE71E231F0005150D09100804003856
:102BA3003C3E363B3B352B432C3030161819202343
:102BB3001A1C1E30303017181921301B1D1F30D737
:102BC3001F0720DD1FE31F0120F51FEF1F0D20133B
:102BD3002019202520E91FD11FCB1FFB1F1F2045D4
:102BE300212B20312003007100300160001100709F
:102BF3000031022003500480001000610000001423
:102C030000630073007200620043000000130006BB
:102C1300000000000004001200000000000000009B
:102C23000004000400370037003C024400000000A9
:102C33000000000000650000003500810000000571
:102C43000000008300000001017101010101011175
:102C53000101013101010101018001100161013B09
:102C63000014006301730172016201430100011347
:102C73000106013D013500040112010001000100BC
:102C830001000104010401330133013C0144013219
:102C930001360000010001650100013500810100DA
:102CA3000105018201830100010302710230016009
:102CB300021102700201020202020280021002618A
:102CC300023A00410063027302720262024302008D
:102CD3000213023800000200020402120200020082
:102CE300020002000204020402370037003C0244DF
:102CF300020002390000020002650200023502816F
:102D03000200020502820283020002010371030131
:102D1300030103010301030103220302030103105F
:102D23000300030003000300030003000300034246
:102D33000300032403060300030003040312032513
:102D430003230325032303040304030003000300F5
:102D53000344030003000323030003650321003539
:102D6300038103000305030003000300030304714D
:102D73000402046004110470040204020401040246
:102D830004100461040004140463047304720462F1
:102D9300044304000413040604000400040404129E
:102DA300040004000400040004510464000004004F
:102DB3000400044404000400040004000465040047
:102DC3000435048104640005040004830400040042
:102DD300034948424D181725050200011916181614
:102DE30016152303000C0E020B040B0A0708000F31
:102DF300B520C720CD20A11FD3209B1FA71F2121B2
:102E0300D920DF20EB20E52036000100060000007A
:102E13000F0000000000000000000000000003FF9E
:102E2300FF00000403FFFF0000FFFF0FF401000594
:102E3300C4040320000100000B0000000000000098
:102E43000003010001363601010001020100010304
:102E53000100010401060605020000070100340811
:102E630001000F090401010D0100FF0E0800001706
:102E7300020000190100FF1A0100011B0100051CDB
:102E83000100081D0200001F0100012001000121B3
:102E93000200002301000F24020000260100012785
:102EA300010308280200FF2A0100072B0102402C1E
:102EB3000100002D0100012E0100012F0100FF3050
:102EC300010B1C310800003A0100082D214B215150
:102ED3002133213F213921008001000000800A7D38
:102EE30022018002000000810A7D2202800400008A
:102EF30000820A8322038008000000830A892204D7
:102F03008010000000840A8F2205802000000085C5
:102F13000A9522068040000000860A95222180003F
:102F2300010000880A9B22228000020000890A9B7C
:102F330022208080000000870A9B221180008000ED
:102F4300008F0AA122148000000100900AA7221515
:102F53008000000800930AAD22000000000000007A
:102F6300000000000007260100072602003B25039E
:102F73000041250400472505004D2506005925116C
:102F83000071251400772515006525FFFF0000005B
:102F930000000000009C36063A703DD9404344AD22
:102FA30047174B814EEA515F3F3F1B171313130F14
:102FB3000F0F0B0B0B0B0707070706060606060684
:102FC3000300BE040A150008050C01050714100AC6
:102FD300080910000102030405060708090A0B0C7F
:102FE3000D0E0F00160F160D0B150B021102220BFF
:102FF30030030006FF2223242A26292531323337C2
:05300300202136FF4111
:1039000074F6120C3A74FF120BE574AB85108285C5
:103910001183F07E00EE75F00EA4A9F024B3F582B9
:10392000E934F6F583E064FF7004A3E064FF604EC1
:10393000EE75F00EA424B3F508E934F6F509850810
:1039400082F58312472E850882850983A3A3124737
:103950003BE5082404123983240512398324061216
:103960003983240712398324081239832409FAE59C
:10397000093400FB1251430EEEC3941540977401B5
:10398000024371FAE5093400FB12471AE50822C028
:1039900082C08374FF120BE590F98FE0640170140C
:1039A00090F9A9E024C4FCA3E034FFFD123F5A12B1
:1039B00053C98003E0700D90F991123F537A007B58
:1039C000011253CD74FF1242C87401023F49C082F4
:1039D000C08374FE120BE5EB851082851183F074B1
:1039E00001120C1BEAF07C027D0085108285118398
:1039F000AA82AB8379001227997402023F4974F0BE
:103A0000120C3A74DC120BE5743E120C1BC082C01F
:103A1000837442120C1B7808120A98D083D08278E3
:103A2000081201B54003023ABD743A120C1BC08261
:103A3000C083743E120C1B7808120A98D083D0827F
:103A400078081201B550767434120C1B123EDA124B
:103A500001DF740C120C1B7808120ABA743A120CAB
:103A60001B7808120A9878081201DF7404120C1BE4
:103A70007808120ABA7436120C1B123EDA1201DFF1
:103A80007410120C1B7808120ABA743E120C1B78C0
:103A900008120A9878081201DF7408120C1B7808C3
:103AA000120ABA7438120C1B123EDA1201DF7414B7
:103AB000120C1B7808120ABA7442023BE4744212D8
:103AC0000C1BC082C083743A120C1B7808120A982F
:103AD000D083D08278081201B54003023B71743E56
:103AE000120C1BC082C0837442120C1B7808120A8D
:103AF00098D083D08278081201B550757436120CB4
:103B00001B123EDA1201DF740C120C1B7808120A29
:103B1000BA743E120C1B7808120A9878081201DF5A
:103B20007404120C1B7808120ABA7438120C1B1297
:103B30003EDA1201DF7410120C1B7808120ABA74F4
:103B400042120C1B7808120A9878081201DF7408D8
:103B5000120C1B7808120ABA7434120C1B123EDACB
:103B60001201DF7414120C1B7808120ABA743A801E
:103B7000737438120C1B123EDA1201DF740C120C33
:103B80001B7808120ABA7442120C1B7808120A98A1
:103B900078081201DF7404120C1B7808120ABA7438
:103BA00034120C1B123EDA1201DF7410120C1B7857
:103BB00008120ABA743A120C1B7808120A9878088C
:103BC0001201DF7408120C1B7808120ABA7436123C
:103BD0000C1B123EDA1201DF7414120C1B7808124F
:103BE0000ABA743E120C1B7808120A98780812015F
:103BF000DF8510828511837808120ABA740C120CC2
:103C00001B7808120A987410120C1B780C120A9870
:103C10007808790C1204CC7414120C1B780C120A5C
:103C2000987808790C1204CC741C120C1B780812BA
:103C30000ABA7404120C1B7808120A987408120C41
:103C40001B780C120A987808790C1204CC85108223
:103C5000851183780C120A987808790C1204CC74B8
:103C600018120C1B7808120ABA7404120C1B78087C
:103C7000120A98740C120C1B780C120A98780879A6
:103C80000C120327C008C009C00AC00B7408120C2C
:103C90001B780C120A987410120C1B7808120A98E0
:103CA000780C7908120327D00BD00AD009D00878F5
:103CB00008790C1204CCC008C009C00AC00B8510DA
:103CC00082851183780C120A987414120C1B7808E0
:103CD000120A98780C7908120327D00BD00AD00961
:103CE000D0087808790C1204CC90FAA1780C120A4A
:103CF000987808790C120327C008C009C00AC00BC5
:103D00007418120C1B780C120A98741C120C1B7875
:103D100008120A98780C7908120327D00BD00AD021
:103D200009D0087808790C1204A7C008C009C00A95
:103D3000C00B7404120C1B7808120A987404120C3D
:103D40001B780C120A987808790C120327C008C057
:103D500009C00AC00B7408120C1B780C120A987464
:103D600008120C1B7808120A98780C79081203279D
:103D7000D00BD00AD009D0087808790C1204CCC036
:103D800008C009C00AC00B851082851183780C1207
:103D90000A988510828511837808120A98780C7920
:103DA00008120327D00BD00AD009D0087808790C64
:103DB0001204CC90FAA1780C120A987808790C12A7
:103DC0000327C008C009C00AC00B7418120C1B7866
:103DD0000C120A987418120C1B7808120A98780CA6
:103DE0007908120327D00BD00AD009D008780879B7
:103DF0000C1204A7D00FD00ED00DD00C780C79087F
:103E00001206E37420120C1B780C120ABA742012EA
:103E10000C1B7808120A98C008C009C00AC00B859C
:103E20001082851183780C120A9890F9A9124379AF
:103E3000E50875F0E8A4C508AAF075F003A42AFA0D
:103E400075F0E8E509A42AF509750A00750B0078F4
:103E5000081201DF780C79081204CCD00BD00AD0FC
:103E600009D0087808790C120327C008C009C00AD5
:103E7000C00B741C120C1B7808120A98C008C009E9
:103E8000C00AC00B7420120C1B780C120A9874180C
:103E9000120C1B7808120A98780C7908120327D0A4
:103EA0000BD00AD009D0087808790C1204A790FA30
:103EB000A1780C120A987808790C1206E3D00FD07A
:103EC0000ED00DD00C780C79081204CC780C1202AC
:103ED0003CAA0CAB0D742402499812437D750A006C
:103EE000750B00780822C082C08390F9ABE07002A5
:103EF000A3E0701F90F9A9C3E0943CA3E0940040B4
:103F00003690F9A9E024C4F8A3E034FFF990F9ABA6
:103F10001249CE90F9ABC3E09442A3E0940040175D
:103F200090F9ABE024BFF0A3E034FFF07CE87DFD26
:103F30007A101253CB801090F9AB123F531253C931
:103F400090F9ABE4F0A3F08003120BF4D083D0829D
:103F500002009A1249A0123F5A22EC75F0E8A4CC54
:103F6000AAF075F003A42AFA75F0E8EDA42AFD2260
:103F7000C082C083E990F99EF0740190F99FF0E44B
:103F800090F9A0F090F9A9743CF0A3E4F090F9AB9B
:103F9000F0A3F090F9AD7403F0A3E4F090F973F09E
:103FA000A3F090F975743CF0A3E4F090F97BF0A3D2
:103FB000F090F98FF090F990F090F991743CF0A3A3
:103FC000E4F0740A90F993F0743290F994F0746408
:103FD00090F995F0E490F996F0740190F997F0E477
:103FE00090F9AFF090F96FF090F970F090F96EF0F1
:103FF0007A05FB1222E390F9B0EAF0A3EB1250AA83
:10400000C0E012500ED0E01240C4F5838882A3A312
:10401000A3E4F0A31240C4F91249CB90F9B4E4F040
:10402000A3F0740290F9A3F0740A90F9A4F090F947
:10403000A1E4F0A3F0740290F9A7F0740A90F9A833
:10404000F090F9A574FFF0A3F0740A90F998F0903D
:10405000F999749EF0A374F9F090F99B7495F0A30C
:1040600074FAF0E490F99DF07A987BF91221995353
:10407000F4FE43FE0153F5FE43FF01C2A053F4FDDD
:1040800043FE02C2917D017C007B007A007903121D
:1040900026AF90F99EE0FA79031226BB7903122627
:1040A000B590F99EE0F91224457A207B8090F99E24
:1040B000E0F91226437A067B8090F99EE0F91226F9
:1040C00043023F4C1240C822F01240CD2290F9B07A
:1040D000E0F8A3E02274F4120C3A74F5120BE5EA4E
:1040E000FEEBFF7401120C1B7411F07402120C1B16
:1040F0007422F07403120C1B7433F07404120C1B42
:104100007444F07405120C1B7455F07406120C1BE9
:104110007466F07407120C1B7477F07408120C1B91
:104120007488F07409120C1B7499F0740A120C1B39
:1041300074AAF074805FF9E47001E97003024266CA
:10414000801EE0640A70127C017D00740A120C1B50
:10415000AA82AB837900122799AA08AB091222E937
:1041600090F99EE0F91222F58A088B09E5087002A1
:10417000E509700302425E850882850983E0120E1C
:10418000E60004019A411AAF41D1B841D391415997
:1041900041AA08AB09122A0380BF74EE1242C885F7
:1041A0000882850983A3A31243DB122A1B80AAAAD3
:1041B00008AB09122A0980A1850882850983A3E03A
:1041C00090F99FF0640670071242B5EC02414DE091
:1041D000640170297A801250237A007B01125025E5
:1041E0007C017D007402120C1BAA82AB8379001241
:1041F0002799C2AF75C9AB75C95B0080FDE0640942
:1042000070081242B5740302414DE070097C017DD3
:1042100000740402414D640270097C017D00740544
:1042200002414DE0640370097C017D007406024187
:104230004DE0640470097C017D00740702414DE08B
:10424000640570097C017D00740802414DE064083A
:1042500060030241427C017D00740902414DEEFA87
:1042600074806FFB8045EEA2E0500A122A3F740171
:104270006EFAEF80EE5480600F90F9AD1243DB7957
:1042800000122A4B748080E8EE541060071229F166
:10429000741080DC74015FF9E47001E9600912298F
:1042A000DFEEFA740180BB7A007B00740B120BF412
:1042B0007F04020CFE7CE87D037A017B0090F99E6E
:1042C000E0F91223EB02473E851082851183F07CD2
:1042D000017D00AA82AB8379001227992274F6121D
:1042E0000C3AEA240CF582EB3400F583124379781A
:1042F00008120F450000020006802243208002437E
:104300006F43EA2411F582EB124FDFF8A3E0F58347
:104310008882E070097A01790812270380517A04B3
:1043200080F51225B98A088B09AE08AF09EE700135
:10433000EF603C8E828F83E0702EA3A3A3E0602801
:10434000740290F9A3F08E828F83A312503190F9FA
:10435000A11249CE8E828F83A3A3A3A3E090F9A4D8
:10436000F07A017908122703EEFAEFFB1223498055
:1043700003120BF47F02020CFE12437D22E0F508CB
:10438000A3E0F5092274F6120C3A8A828B83A3A368
:10439000A3A3E0F508A3E0702AE508120EE60002E8
:1043A00002A84304B043C3431243C5122A0F80132B
:1043B0008A828B83A3A3A3A3A3A31249A01243C5FC
:1043C000122A1580AFEA2413F582EB3400F583E05E
:1043D000F9EA2415F582EB3400F583E0FAA3E0FB5B
:1043E0002274F0120C3A74FF120BE58A0A8B0B8AC6
:1043F000828B83E0540F600EE0540F640F700DA3A6
:10440000E06003024523122A21024523E0540F6491
:10441000086003024523A3A3A3A3A3E0C4540FFC95
:104420008A828B83A3A3A3124721124FFD90F96FB9
:10443000124721A3A3E0540F6A600302452390F9B9
:1044400070E06C6003024523850A828B83A3A3A3DB
:10445000A3A3A3E0851082851183F0850A828B8354
:10446000A3A3A3A3A3A3A3E0FE7A067B001222E3E7
:104470008A0E8B0F7808120E2B7508007808120E22
:104480002F75080F7808120E2F7D017C007900121D
:104490002A2D7404120BF41249B0C0E0888289837B
:1044A000E0540FFAD0E01249A6C0E074F05AFAD0F6
:1044B000E04A88828983F0E50E240508E50F340080
:1044C000F990F970E0C454F0C0E088828983E05428
:1044D0000FFAD0E04A1249C2120EE6000903FA446C
:1044E0000728450955450A89450BB8450CE7450D90
:1044F00017460EB34611E3461C45EE75F03CA490FA
:10450000F9A9124771120E2B90F9A17404120E46EC
:104510001253BB120BF490F9A912472EAA0EAB0F3F
:104520001222E97401024998850A82850B83A3A3AC
:10453000A3A3A3A3A3E090F9ADF0A3E412477512DF
:104540000E2B90F9A17404120E461253BB120BF4F9
:1045500090F9AD80C4E50A2407FEE50B124FD27531
:10456000F03CA490F975124771120E2B90F9A174CA
:1045700004120E461253BB120BF47C017D00EEFABE
:10458000EFFB79001227998093850A82850B83A31C
:10459000A3A3A3A3A3A3E090F993124775120E2B34
:1045A00090F9A17404120E461253BB120BF47C0155
:1045B0007D007A937BF980CA850A82850B83A3A349
:1045C000A3A3A3A3A3E090F994124775120E2B9016
:1045D000F9A17404120E461253BB120BF47C017D38
:1045E000007A947BF9809B850A82850B83A3A3A321
:1045F000A3A3A3A3E090F995124775120E2B90F98F
:10460000A17404120E461253BB120BF47C017D0000
:104610007A957BF902458212476D120E2B90F9A113
:104620007404120E461253BB120BF4850A82850BDA
:1046300083124743E0F9EA90F9AD1249CF850A8227
:10464000850B83A3A3124743A3A312475B90F9A949
:104650001249CEE50A240C124FDBFAE50A240BF5C9
:1046600082E50B3400F58312475B90F9751249CE51
:10467000E50A240D124FDB90F993F0E50A240E129F
:104680004FDB90F994F0E50A240F124FDB90F99577
:10469000F090F9AD12472E12472B90F97512473B57
:1046A0007A937BF912471A7A947BF9790012279949
:1046B00002460C850A82850B83A3A3A3A3A3A3A30D
:1046C000E090F997124775120E2B90F9A17404121D
:1046D0000E461253BB120BF47C017D007A977BF9D6
:1046E00002458212476D120E2B90F9A17404120E2E
:1046F000461253BB120BF47C017D00E50A2407FA35
:10470000E50B3400FB79001227997964122A51C213
:10471000AF75C9AB75C95B0080FD79001227998020
:104720001DE0FA850A828B83A3A32290F9A9124780
:104730003222E0FAA3E0FB1229E5221247327C0183
:104740007D0022A3A3A3A3A3A3A3A3E0FA850A82C7
:10475000850B83A3A3A3A3A3A3A322E0F9EA75F087
:104760003CA4F8AAF075F03CE9A42AF92212477A91
:1047700022F0A3E5F0F012477A2288828983E05480
:10478000F04403F075080275090078082274F012ED
:104790000C3A74FA120BE5851082851183ECF0A3B4
:1047A000EDF08A088B09890A8A828B83E0540F64B2
:1047B000016003024939A3E0640160030249968A5B
:1047C000828B83A3A3A3A3A3E0FA8508828B83A390
:1047D000A3A3A3E0F9EAFEE9FF7A067B001222E335
:1047E0008A0E8B0FEE7001EF600302490975080114
:1047F0007808120E2F75080F7808120E2F7D017C95
:10480000007901122A277402120BF490F970E070FB
:10481000030249048510828511831243DB122A5D4D
:10482000E9FE85108285118312503190F9A5124955
:10483000CEEE704590F9B41243DB79018A088B09FA
:1048400074FF297808120BC3E508A2E0500709E9B4
:10485000C3941040E775080175090074FF297808B2
:10486000120BD2124FE5F0E9FE85108285118312FA
:1048700049A07A007B00122A571249B0C0E0888212
:104880008983E0540FFAD0E01249A6C0E074F05AD0
:10489000FAD0E04A88828983F0EEC454F0850E8213
:1048A000850F83A3A3A3A3A3F07404120C1B7402AB
:1048B000F07405120C1B740A1249C2F8A3E0F974D3
:1048C00002120C1B125087120E2F7508A07509F9E1
:1048D0007808120E2B780E120E2B7508067509003B
:1048E0007808120E2B7508047808120E2B79207C9C
:1048F000987DF9740B120C1BAA82AB831221B17440
:1049000009120BF41229D9802790F970E060217503
:104910000C04750D00780C120E2B90F9A174041282
:104920000E467C20A90AAA08AB091253C3120BF445
:10493000AA0EAB0F1222E9805DE0540F640F70568F
:10494000A3E0640170508A828B83A3A3A3A3E054E5
:104950000FFA8508828B83A3A3A3A3A3E0C4540FFB
:10496000FE90F96FE0701190F970E0700BEA90F929
:104970006FF0EE90F970801D90F970E0601890F97A
:104980006FE06A701190F970E06E700A90F996E02D
:104990007004125018F07406120BF47F08020CFE1B
:1049A000E0FCA3E0FD224AFAF090F96FE0540F22F8
:1049B000E50E2404F8E50F3400F990F96EE0C454D4
:1049C000F022F0851082851183E02290F9B2E8F0A0
:1049D000A3E9F02274F0120C3A74EB120BE5EAFE34
:1049E000EBFF90F9A51250318E828F83E064016055
:1049F00003024E2AA3E064036003024E2A740812E5
:104A00000C1B74DD1242CEE490F98FF0740190F922
:104A1000AFF0124FC7850882F583E0C0E07413122F
:104A20000C1BD0E0F0EE2404FEEF124FD2C0E07475
:104A300014120C1BD0E0F0750A03780A120E2F75C1
:104A40000A00780A120E2F7D017C007900740B1287
:104A50000C1BAA82AB83122A277402120BF47D036B
:104A600090F970E0FC90F96FE0F9740D120C1BAA3C
:104A700082AB83122A33750A02750B00780A120E74
:104A80002B90F9A17404120E467C20790C740F123D
:104A90000C1BAA82AB831253C3120BF48E828F833A
:104AA000E0FA850882850983124FFD740185108222
:104AB000851183F0120C1B7402F0120C1B7403F0AE
:104AC000120C1B7404F090F9ADE07002A3E0703397
:104AD00012506B120B5A8A0A8B0BE50875F00AA468
:104AE000F8ACF075F00AE509A42CF97430C398FC11
:104AF000747599FDEAF8EBF9E8C3124FB1ECF0A335
:104B0000ED806D90F9ADE064017002A3E0701512C4
:104B1000506B120B5A8A0A8B0B74309508FC747513
:104B2000950980CF90F9ADE064027002A3E0701C9B
:104B300012506B120B5A8A0A8B0BE50875F00AA407
:104B4000FCAEF075F00AE509A42E80A790F9ADE05F
:104B500064037002A3E0704312506B120B5A8A0A6E
:104B60008B0BEAF8EBF9E8124FB1E508F0A3E50981
:104B7000F090F977780C120A987402780A120BD226
:104B8000E50A2483F582E50B34F9F583E50CF0A3FF
:104B9000E50DF0A3E50EF0A3E50FF090F973E02426
:104BA00001F0A3E03400F090F973C3E09404A3E0B3
:104BB00094005003024D8790F9ADE07002A3E070BD
:104BC0005C90F97BE50875F00AA4F8AAF075F00A84
:104BD000E509A42AF97430C398F87475991250063F
:104BE0005016E50875F00AA4F50875F00AE509A461
:104BF0002AF509125036801790F97BE50875F00AFE
:104C0000A4F50875F00AE509A42AF50912505AF925
:104C100090F971E8F0A3E912509E024CF190F9ADC1
:104C2000E064017002A3E0702490F97B7430C395B6
:104C300008F8747595091250065005125036800612
:104C400090F97B12505A125092EC024CEE90F9AD52
:104C5000E064027002A3E0705D90F97BE50875F0F6
:104C60000AA4F8AAF075F00AE509A42A1250065021
:104C700021E50875F00AA4F50875F00AE509A42AEB
:104C8000F50990F97B125031E508C398F8E50999C8
:104C9000801D90F97BE50875F00AA4F50875F00A07
:104CA000E509A42AF509E0C39508F8A3E0950912DF
:104CB00050927402803890F9ADE064037002A3E072
:104CC000703890F97BC3E09508A3E0950990F97BD3
:104CD000E0500EF8A3E0F9E508C398F8E5099980DB
:104CE00008C39508F8A3E095091250927403120CBA
:104CF0001BAA82AB83790012279990F97112472E73
:104D000090F993125077501812502EE8C333F8E9F7
:104D100033F990F9A9E028F0A3E03912509E805EA3
:104D200090F994125077501212502E90F9A9E02861
:104D3000F0A3E03912509AEC804190F99512507727
:104D4000502612502E7583F97582A912500790F9DA
:104D5000A94009C3E098F0A3E0998005743CF0A352
:104D6000E412509A7402801390F9A91240D0C31330
:104D7000F9E81390F9A91250977403120C1BAA8238
:104D8000AB83790012279912504F120BD290F9A9D8
:104D9000125031C3E50898E50999501112504F128D
:104DA0000BD290F9A9E508F0A3E509801590F9A9BF
:104DB000C3E0943CA3E09400500990F9A9743CF03E
:104DC000A3E4F012472B90F973C3E09403A3E0949B
:104DD00000403590F97D7412120E461229EB7412C0
:104DE000120BF490F97BEAF0A3EBF090F97BC3E0AF
:104DF0009431A3E09475400A90F97B7430F0A37469
:104E000075F090F97B12472E90F997E06401700FCE
:104E100090F9A9C3E09478A3E094004002C291E421
:104E200090F990F01229F1024FACEE2403F582EFD5
:104E3000124FDF540F640F6003024F07A3E06401B9
:104E40006003024FAC8E828F83A3A3A3A3A3A3A36B
:104E5000E0FAC4540FFB740F5AFA8E828F83A3A317
:104E6000A3A3A3A3A3A3E0C4540FFC90F970E07024
:104E70003C90F96FE0703690F9B6E004F0EA90F9F2
:104E80006FF0EC90F970F0EB90F96E1250AAC0E060
:104E900012500ED0E0F075080175090090F970E02D
:104EA000147808120BD2124FE5F0024FAC90F96F54
:104EB000E06A701B90F970E06C7014E07003024FB0
:104EC000AC90F996E06003024FAC12501880DA748F
:104ED00006120C1B7402F07407120C1B740AF07497
:104EE00004120C1B125087120E2F7508A07509F9B9
:104EF0007808120E2B124FC1120E2B124FF1120E08
:104F00002B750804024F90E0540F64086003024FB1
:104F1000AC8E828F83A3A3A3A3A3A3A3A3E0C454B3
:104F20000FFC8E828F83A3A3A3A3A3A3A3E0540F9C
:104F3000FA90F96FE06A701C90F970E06C70158E51
:104F4000828F83A3A3E0F9EE2403FAEF3400FB126F
:104F50002A0F80587406120C1B7402F07407120C8E
:104F60001B740AF07404120C1B74FFF0A3F0750894
:104F70000A7808120E2F7508A07509F97808120E24
:104F80002B124FC1120E2B124FF1120E2B7508026D
:104F90007808120E2B79207C987DF9740D120C1B69
:104FA000AA82AB831221B17409120BF47415024961
:104FB0009833F8E933F9E8247DF582E934F9F5838B
:104FC00022124FC7780822EE2403F508EF3400F5CB
:104FD00009223400FF8E828F83E022F582E50B34B4
:104FE00000F583E02290F9B4E04508F0A3E045091C
:104FF000228E828F83A3A3E0F508024787E0F9EAB7
:10500000F508E9F50922F9C3E098A3E099221240D6
:10501000CDF5838882A3A3227A01125023740190D4
:10502000F996227B0090F99EE0F91223F12290F983
:10503000751240D0F9227430C39508FA7475950939
:10504000FB90F97B1240D0F9EAC398F8EB992290D3
:10505000F97512437D7403780822E02508F8A3E06F
:105060003509F974D028F8748A392290F9731240FE
:10507000D0F97A037B0022E0F87583F9758271C359
:10508000E098A3E0940022E8F0A3E9F075080A781C
:105090000822F990F971E8F0A3E9F002473EF07CAC
:1050A000017D00851082851183221240C8F5838816
:1050B00082E4F0A3F090F970E02274F5120C3A74D7
:1050C000FA120BE58A088B09E9FE7401120C1B74B5
:1050D000AAF07402120C1B7455F07403120C1BE935
:1050E000F079037401120C1BAA82AB83122457744B
:1050F00004120C1BE9F0EEF9AA08AB09122457744C
:1051000005120C1BE9F079027404120C1BAA82AB85
:1051100083122457E9851082851183F07C037D007A
:105120007401120C1BAA82AB837900122799EEFC42
:105130007D00AA08AB091251437406120BF47F03D9
:10514000020CFE12471A8510828511830242D37425
:10515000F7120C3A7409120C1BE0FE740A120C1BB5
:10516000E0FF740F5EC0E0EDA2E0E492E0C4C0E0B6
:10517000ECC43354E05460C0E0E9A2E0E492E013F0
:10518000135480FCD0E04CFCD0E04CFCD0E04C8AC6
:10519000828B83F0EF1255831254C6F07F01020C0C
:1051A000FE74F6120C3AECFEEDFF740A120C1BE0D2
:1051B000F508740B120C1BE0F509740C120C1B1291
:1051C00049A0740F5508C0E0EFA2E0E492E0C4C02B
:1051D000E0EEC43354E05460C0E0E9A2E0E492E0C1
:1051E00013135480FED0E04EFED0E04EFED0E04ED1
:1051F0008A828B83F0A3E509F0ED8A828B83A3A3D7
:10520000F0EC8A828B83A3A3A3F002437474F1129F
:105210000C3AEAFEEBFF890E8C0D8D0C12241590D2
:10522000F977EAF0A3EBF0A3ECF0A312529B120A79
:10523000988E828F8312529B120A987410780812EB
:1052400009DA8E828F83A3E50812529C120A98E530
:10525000098E828F83A3A312529C120A988E828F8A
:1052600083A3A3A3E508F0740F550EC0E090F96E78
:10527000E0C454F0FAD0E0125293F0740F550CC011
:10528000E0E50DC454F0FAD0E0125293A3F07F078A
:10529000020CFE4A8E828F83024756EDF090F9771A
:1052A00078082274F4120C3A8A088B09E9FEECF9AA
:1052B0007410120C1B1243DB90F99FE06409700C10
:1052C000EEF9AA08AB09122A210242B0750A0A783F
:1052D0000A120E2F750AA0750BF9780A120E2B7898
:1052E00008120E2B8E0A750B00780A120E2B8A0AF2
:1052F0008B0B780A120E2B7C987DF97415120C1BFF
:10530000AA82AB831221B17409120BF480B274F635
:10531000120C3A74EA120BE57C107D277A011253C5
:10532000CB90F96FE0540FC0E07406120C1BD0E074
:10533000F090F970E0C454F0C0E07407120C1BD078
:10534000E0F07508017808120E2F7808120E2F7DF4
:10535000017C0079017402120C1BAA82AB83122A11
:10536000277402120BF490F970E070157404120C9B
:105370001BE4F07405120C1BE4F0750804F50980B9
:10538000157404120C1BE4F07405120C1B7401F06C
:105390007508047509007808120E2B90F9A17404A1
:1053A000120E467C2079167406120C1BAA82AB835F
:1053B0001253C3120BF474160243717C207906AAAF
:1053C0000EAB0F122A397406227A807B0090F99E68
:1053D000E0F91223EB2274F7120C3A74F8120BE581
:1053E00078FF79FF8A828B83E0C0E07402120C1B85
:1053F000D0E01254D0E0C0E07403120C1BD0E012D5
:1054000054D0A3E0C0E07404120C1BD0E01254C6C8
:10541000E0C0E07405120C1BD0E01254D7E0C0E0ED
:105420007406120C1BD0E01254D7A3E0C0E074073E
:10543000120C1BD0E0F07C007D00E8851082851105
:1054400083F07401120C1BE9F07402120C1BE5824C
:105450002CF582E5833DF583E0FE8510828511837E
:10546000E06EF0FE7401120C1BE0F9EEF87E08E825
:10547000A2E0E95010C313F9E813F8740168F87456
:10548000A069F98006C313F9E813F81EEE70E0EC8A
:1054900024010CED3400FDC3EC9406ED9400A2D27F
:1054A00065D0334095E88A828B83A3A3A3A3A3A3EB
:1054B000F0E98A828B83A3A3A3A3A3A3A3F0740818
:1054C000120BF402519C1254CA221254D0A3A322EC
:1054D000F08A828B83A3221254CAA32274F4120C82
:1054E0003A74FF120BE5EAFEEBFF90F990E07024AE
:1054F00090F997E064017004D2918007E07004A2F3
:105500009150F5D291740190F990F07C607DEA128F
:1055100053C9806A740190F98FF07A087B001222D7
:10552000E38A088B0974018A828B83F07403A3F0E9
:10553000EF8A828B83A3A3F0EE8A828B83A3A312CC
:105540005583A3A3F074028A828B83A3A3A3A3A38E
:10555000F0122A45D2907915122A517C087D00AAB2
:1055600008AB097901122799790F122A51AA08ABC1
:10557000091222E9A290B3929074CC1242C874012D
:105580000242ADA3F0E48A8202472674F0120C3A7C
:10559000E97005790002499B8982AA828A08750907
:1055A0000074077808120BD2F50AF50BEA75F07251
:1055B000A4FAACF0E42C8A0CF50D3395E0F50EF569
:1055C0000F7808790C120A12E5C6A2E0E492E0789E
:1055D000081209DA85080C85090D850A0E850B0F5E
:1055E00090FA1E7808120A2590FA22780C120166A9
:1055F00070E2809F74F2120C3AECFEEDFF890A9083
:10560000F9B21243797A057B001222E38A0C8B0DE2
:10561000A80CA90D88828983EEF0A3EFF088828917
:1056200083A3A3E50AF088828983A3A3A3E4F0A35C
:10563000F0E5087002E509601AE87001E96014906D
:10564000F9B2E0FAA3E0F5838A82A3A3A31249CEBC
:105650001249CB7F06020CFEC082C08390F9B08055
:1056600001A3125031E87001E9601788828983E054
:105670006A7003A3E06B88828983A3A370E3E0F9D7
:1056800080027900023F4C74F6120C3A7A008004D2
:105690001262B10A902FD0125E6540F47A00801C2D
:1056A0008A0875090074037808120BD21264137407
:1056B000FEF0A374FF1257D3A3A3F00A902FD212C7
:1056C0005E6540DC7A00801C8A08750900740378E6
:1056D00008120BD2E50824F9F582E50934F8F583C0
:1056E0001257090A125E6240DF902FCDE49390E3D7
:1056F000BBF01256F80264BD7CE87D037A107B0093
:1057000090E39FE0F91223EB2274FEF0A374FFF004
:105710002274F4120C3A74FD120BE5EAFEEBFF89D9
:1057200008125D657003A3E069700579000257CB2C
:105730007902EEFAEFFB121E57E960EFE508F50972
:105740007809120E2F125BE9120BF4E9707B90E3DB
:10575000BAE0F509F9740129F090E353E0F50AA3E2
:10576000E0F50B780A120E2B7D017C00AA0AAB0B28
:10577000121E0F7402120BF4E9704E7401120C1B0E
:105780007406125D837001EB603B8A828B83A3A356
:10579000A3A3A3A3126CFD740188828983F0E5089A
:1057A00060047C8080027C00EC125884E509125D64
:1057B00076A31264231257D3125D7B74FC12570B2D
:1057C000121B0980067910800279C77403120BF44A
:1057D0000264781262DBA32274F7120C3AEAFEEB41
:1057E000FF121D85E960067AFF7BFF807F90FA64D7
:1057F000E064027070EEFAEFFB12586F5046EB75E2
:10580000F006A4F8AAF0EAF9E81262637028EB1235
:10581000628290E352125881E064FE7004A3E06457
:10582000FF6021EB75F006A4F8EAF9E8126259E08E
:10583000FAA3E0FB8036E064036009E064047004CE
:105840007AFE80A57B0080010B902FD3E493FAEBC6
:10585000C39A5011EB1262496E7003A3E06F70E8B7
:10586000EEFAEF80CEEEFAEFFB121DF1026DDB12C5
:105870001E6F121E51E9FB902FD0E493FAE9C39AF0
:105880002212640AA312588922F088828983A3A372
:105890002274F2120C3A8A088B098C0A8D0B7E0056
:1058A000121D85E960057900025940AA08AB09126A
:1058B000586F500E126E436403600302593E7F021C
:1058C000804AAA08AB09121DF7121AC18A0C8B0D67
:1058D000A80CA90DE87001E9606488828983A3A3FC
:1058E000A3A3A3E0A2E050567F01A2E150127901E8
:1058F000AC08AD09AA0AAB0B121DCDE9700E803EB3
:1059000088828983A3A3A3A3A3D2E1F090E353E009
:10591000650A7004A3E0650B700C7901AA08AB0955
:10592000121DA90E8018EFF9AC08AD09AA0AAB0B3D
:10593000121DCDE970080EAA08AB09121E03EEF97C
:105940007F06020CFE74F0120C3A74FE120BE51284
:105950005AF78C088D09851082851183E02416F58D
:105960000EA3E03400F50F850E82126CFB8882894D
:1059700083A3E0F50C125BC2FA88828983A3A3A3F8
:10598000A3E0F9EAFEE9FFAA08AB09121E09E9FA49
:10599000850E82850F83126A98E02AF50A530C80DF
:1059A0007808120E2B7D00AC0AA90B7402120C1B96
:1059B000125AE7120BF4E9FA74036A7005790002CF
:1059C0005ACCEA703E90E34CE0601CE50CF50D7893
:1059D0000D120E2F7901AC08AD09E9120C1B126DE6
:1059E000E0125BF3120BF4780C120E2F125BE9122B
:1059F0000BF4E9700E7412120C1B12716474FFF038
:105A0000A380427412120C1B127164E064FF7004D4
:105A1000A3E064FF6030851082851183E0240B12BF
:105A20005ADC126DE6121DF1EA65087003EB650998
:105A3000708BEEFAEFFB121DF17412120C1B127137
:105A400064EAF0A3EBF07808120E2B7D01AC0AA9F2
:105A50000B7402120C1B125AE7120BF4EEFAEFFB56
:105A600012700890E353E06E7003A3E06F6020E8CB
:105A70007001E9604B88828983A3A3A3A3E064013A
:105A8000600D88828983A3A3A3A3E064027031120E
:105A90005ACF127164A3E0F5087808120E2FE50BB7
:105AA000F5087808120E2F7900EEFCEFFD74021253
:105AB0000C1B126DE0121DC77402120BF40259BDCB
:105AC000125ACF126A98E50AF0121CF5026A6A852A
:105AD0001082851183E02416125ADC22F8A3E034E8
:105AE00000F98882898322E0240B126A93FAA3E0EA
:105AF000FB121E0F740222851082851183EAF0A327
:105B0000EBF02274F0120C3A8A0E8B0F126CF31227
:105B10005BC2FC88828983A3A3A3A3E0FBECF50806
:105B2000EBF50988828983A3A3A3A3A3E0FC888261
:105B30008983A3A3A3A3A3A3E0FBECFEEBFF8882CE
:105B40008983A3A3A3A3A3A3A3E0F50A88828983DF
:105B5000A3E05480F50CAC0AA90BAA08AB09121EED
:105B600015E9FA74036A605790E353E0650870041E
:105B7000A3E06509603AEA7030E50CF50D780D1286
:105B80000E2F125BD4120BF4E97034780C120E2F26
:105B9000780B120E2FA90AEEFCEFFDAA08AB091232
:105BA0001DC77402120BF4801674046A701180DB36
:105BB000E50CF5087808120E2F125BD4120BF402D4
:105BC0006A6F88828983A3A3E0F50B88828983A307
:105BD000A3A3E0227901E50E240BF582E50F1268FC
:105BE0001DFCA3E0FD125BEF2279027CFE7DFFEE3F
:105BF000FAEFFB121DFD74012274F0120C3A74FAD4
:105C0000120BE5E9851082851183F08A088B09EC77
:105C1000FEEDFF7416120C1BE0F50C7417120C1B32
:105C2000E0F50DA90C121E1B7401120C1B125AFD7B
:105C30007404120C1B7408F07403120C1BAA82ABC0
:105C400083121D678A0E8B0FEA7001EB7003025CF2
:105C5000E18A828B83A3A3A3A3A3A3E0F50AA3E015
:105C6000F50B7402850A82850B83F0A3E50D125CA7
:105C7000E6E50C125CE6A3E508F0E509850A8285F5
:105C80000B83A3A3A3A3F0EE850A82850B83A3A3B2
:105C9000A3A3A3F0EF850A82850B83A3A3A3A3A3E9
:105CA000A3F07401120C1B126DE6121E09E9851097
:105CB00082851183FAE02A850A82850B83A3A3A338
:105CC000A3A3A3A3F07401120C1B126CFD850E821A
:105CD000850F83A3A3E8F0A3E9F0AA0EAB0F121B74
:105CE000097406026A6CF0850A82850B83A3A322DD
:105CF00074F2120C3A74FD120BE58A088B09ECFE63
:105D0000EDFF890C125D657003A3E06970047901F1
:105D1000804B750D0190E353E065087004A3E065C6
:105D20000960387401120C1B7404125D837001EB5E
:105D300060298A828B83A3A3A3A3A3A3126CFD74FF
:105D40000388828983F0A3E50C125D761264281221
:105D50005D7B126279121B09E9F50DA90D7403121E
:105D60000BF4025940121E6F8A0A8B0BA80AA90B6A
:105D700090E353E06822F0EE02588AF08A828B8327
:105D8000A3A322F0851082851183AA82AB83121D02
:105D900067EA2274F7120C3A126CF3E8FAE9FB791D
:105DA000018A828B83A3A3E0FC8A828B83A3A3A3B3
:105DB000E0FBECFA121B7B026DDB74F6120C3A75F9
:105DC00008A97509F87E317FF81256F890E3BBE018
:105DD00014F0700C902FCDE49390E3BBF0121E8171
:105DE0007A00803F8E828F83A3A3A3A3E0602BEE73
:105DF0002404F582EF12665870208E828F83A3A34D
:105E0000A3A3A3E0640160128E828F83125709E47A
:105E10008E828F83A3A3A3A3A3F00AEE2406FEEF32
:105E20003400FF902FD0125E6540B97A008028E5DB
:105E30000824071266547012850882850983A3120C
:105E40005709E4850882850983F00AE5082408F5E6
:105E500008E5093400F509902FD2125E6540D002A2
:105E600064BD902FD4E493FBEAC39B2274F6120C1A
:105E70003AE9701E7C007A6F7BE390E344E0FD908A
:105E8000E342E0C39D125EA974FE6E700374FF6F5F
:105E9000700D7C017A6B7BE390E344E0125EA91203
:105EA0001D31EEFAEFFB0264BDF9121DE58A088B85
:105EB00009AE08AF092274F4120C3AEAFEEBFF7A3D
:105EC000FE7BFF7D0080010DEDC39950798E828F9E
:105ED00083750801750900750A00750B00ED7808D7
:105EE0001209F37808120A5F90FA22780812016604
:105EF00060D5750801750900750A00750B00ED780D
:105F0000081209F378081209CA8E828F8378081262
:105F10000A72EC700990E344E0F98D088005EDF910
:105F2000750800121E5D8A0A8B0BA80AA90B90E364
:105F300053E028F8A3E039F9E50828F8E439F974C2
:105F40000128FAE439FB02647874F4120C3A90E305
:105F500053126CFDEAC398F8EB99F974FF28FE74AC
:105F6000FF39FF90E344E0F9121E5D8A088B09C3F4
:105F7000EE9508EF95095021EEFAEFFB121E63E94A
:105F8000C3405F750801750900750A00750B00783C
:105F9000081209F390E36B804490E344E0F508F9BC
:105FA000121E5D8A0A8B0BC3EE950AFEEF950BFF5E
:105FB00090E342E0C39508F8E49400F9C3EE98EF4B
:105FC00099A2D265D033501A750801750900750A77
:105FD00000750B00EE78081209F390E36F78081251
:105FE0000A85121D3102647874F6120C3A121DF7FC
:105FF0008A088B09121AC1EA7001EB6006AA08AB85
:106000000980047AFE7BFF0264BD74F0120C3A74BE
:10601000FE120BE5125AF77EFE7FFF851082851176
:1060200083C082C08390E353126CFDD083D082E0A2
:10603000C398F508A3E099F509750A00750B00905F
:10604000E344E0F9121E5D90FA22780C120A987867
:106050000C790812017B402790E342E02AF8E43BE8
:10606000F990E344E0FCE8C39CF50CE99400F50DDD
:10607000750E00750F007808790C12017B500B909B
:10608000E373E0605690E356804C90E373E0C0E029
:1060900090E343E0FCD0E0C39C50408A0C8B0D7829
:1060A00008790C12017B4028EF2508FAEF3509FB2F
:1060B000121E63121E5D8A088B09A808A90990E3C5
:1060C00053E028F8A3E039F9740128FEE439800A86
:1060D000851082851183E0FEA3E0FFEEFAEFFB025C
:1060E0006A6A74F2120C3A8C088D09890A740E12CD
:1060F0000C1BE07005902FD18003902FD0E493F516
:106100000B121E6F8A0C8B0DAE0CAF0D90E353E09B
:106110006E7003A3E06F70057900025940121E51A2
:10612000E9FC902FD0E4936C70127AFE7BFF121E74
:1061300051E9FCC3950B4004790280DEEC75F00652
:10614000A4A9F0126DF7EEF0A3EFF074FE650870ED
:106150000474FF6509600BEC75F006A41262591215
:1061600062797401650A702A1262817401888289D9
:1061700083A3A3A3A3A3F090E352126405F01262D9
:1061800070AA08AB09121D01EA7001EB708A7C004D
:106190008020EC75F006A41262637003026118128D
:1061A000628190E351125881A3A3A3E50AF0026132
:1061B000180C902FD3E493FAECC39A4003026118B1
:1061C0007E00801DEE75F006A42433F582E5F034E0
:1061D000F8126CFBEC126249687003A3E06960D1AD
:1061E0000E902FD0E493FAEEC39A40D8E4936E70E9
:1061F000C0EC75F00BA424D9F8E5F034F7F9E8FA0F
:10620000E9FB8A828B8312627990FA8EE08A828B14
:1062100083A3A3A3A3A3F074028A828B83A3A3A363
:10622000A3F0E48A828B83A3A3A3A3A3A3F090FA91
:10623000227808120A988A828B83A3A3A3A3A3A31C
:10624000A37808120ABA02611875F00BA424D9F5D4
:1062500082E5F034F7F583E0222433F582E934F85F
:10626000F583222436F582E934F8F583E0640122CF
:1062700090E360E0FCA3E0FD22E508F0A3E509F06F
:1062800022EC75F006A42431F8E934F8F922C08232
:10629000C083121E6F121E51E9FA902FD0E4936A48
:1062A0007004790480041262B1F9D083D0820200B4
:1062B0009AEA75F006A42431F8E5F034F8F98882FA
:1062C000898374FEF0A374FF12588974FEF0A374DE
:1062D000FF1262DB126436A3A3F022F0E488828905
:1062E00083A3A3A3A32274F6120C3A7E0790E3477C
:1062F000E0703F126270121D018A088B09A808A97C
:1063000009E87001E9602B88828983A3E0C3940DBA
:1063100040047E01801C88828983A3E0C3940740E7
:10632000047E03800D88828983A3E0C39403400226
:106330001E1EEEF90264BD74F0120C3A8A0A8B0B31
:10634000E9FEECFF8D087410120C1BE0F50CA3E0C5
:10635000F50D1263FB12587A504F890A750B0074C1
:1063600003780A120BD2E50A24AFF582E50B34F864
:10637000F583E0FAEFC39A502CE5086023750F000F
:106380007403780E120BD2E50E24A9F8E50F34F849
:10639000F9EF88828983A3A3A3A3A3A312642CF09B
:1063A0007900026A6F790380F979007AFE7BFF1227
:1063B00063FBE493650E7004790280E6E50860E013
:1063C000890875090074037808120BD2126413E56A
:1063D0000AF0A3E50B12642C126423A3A3F074FF4C
:1063E00088828983A3A3A3A3A3F0EE88828983F084
:1063F00090E351126405A3A3A380A4121E4BE9F5F8
:106400000E902FD22212640AA322E088828983A3ED
