:020000040000FA
:030000000200D229
:030013000213B91C
:03001B000213F9D4
:03002B000213714C
:03003B0002147636
:03004B000213920B
:0300530002159300
:03005B000213A1EC
:030063000213ADD8
:030073000214DB99
:03007B0002130469
:100083000215CCC4F5F0E5C75430C4C0E0E5C7544D
:10009300CF45F0F5C7E47385C7F053F0CFD0E0C484
:1000A30045F0F5C722D083D082E5C7C45403C0E02E
:1000B300E493C0E0740193C0E0740293C45430F538
:1000C300F0E5C754CF45F0F5C72200000080FB756B
:1000D300D0007581407510007511F1000200E21225
:1000E3000163B9000302014DE490F10078DC790B60
:1000F3008002F0A3D8FCD9FA90FBDBAA82AB8390F1
:100103002787781E79028015E493A3AC82AD838A96
:10011300828B83F0A3AA82AB838C828D83D8E9D9A7
:10012300E790F100AA82AB83902787780179018059
:1001330015E493A3AC82AD838A828B83F0A3AA8256
:10014300AB838C828D83D8E9D9E7758233758311AC
:1001530074001200867582CD7583007400120086C8
:10016300790122E066701008A3E066700A08A3E034
:1001730066700408A3E06622C3E09608A3E096082D
:10018300A3E09608A3E096A2D265D03322C3E796F4
:100193000809E7960809E7960809E79622C3E09657
:1001A30008A3E09608A3E09608A3E09622BB010209
:1001B300E722C082C08389828A83BB0003E0800276
:1001C300E493D083D08222E9799EC608CAC608CBBD
:1001D300C608CCC6C370207996CACBCC7019798E69
:1001E300CBCC70137986CC700EF9802ACA33CACB74
:1001F30033CBCC33CC331930E7F2CCCBCA335014E6
:100203007004EA30E00DE4CA3ACACB3BCBCC3CCC19
:10021300500209C3E913C6CC182313C6CB18C6CAA8
:1002230018C6F92212026720F01430E72B74FFFC82
:10023300FBFA747F8022E4FCFBFA7480801AB4809A
:1002430008BC00F2BB00EF800F50EBF9E4C39AFA4D
:10025300E49BFBE49CFCE499C6CC18C6CB18C6CA45
:1002630018C6F922E4C9C608CAC608CBC6D33303E5
:1002730008CCC63392F0C3947F402E94184019C91A
:10028300B90704CACBCC225025C309CA33CACB331E
:10029300CBCC33CC33D9F422F4600DC9CCC313CB0C
:1002A30013CBCA13CAD9F6CC22E4FCFBFA2214FC02
:1002B300FBFA22E6C33318461846184622E7C3332F
:1002C30019471947194722181818E6084608700AEB
:1002D300E608C3337005E633F4220822191919E737
:1002E300094709700AE709C3337005E733F42209A4
:1002F30022E6084608C3134608336002E633F422B5
:10030300E7094709C3134709336002E733F42200BF
:100313001202F4604F1203036012E7548066F61270
:1003230002CA70111202C0703B090909F4F618F6EB
:1003330018F618F6221202DF70151202B608080822
:1003430060EAE6447FF618768018E4F618F622127F
:1003530002B660161202C07012E4F608F608F60838
:10036300E65480F609090918181822EAC0E0EBC020
:10037300E0ECC0E0EDC0E0E687F0A4FBACF008E6FB
:1003830087F0A42CFCE435F0FA1809E687F0A42CD6
:100393004B60027401CA35F0FCE433FB09E687F0D5
:1003A300D2F7A42CCB35F0FC1908E687F0A42BCCAC
:1003B30035F0FBE433FD0819E687F0D2E7A42C4AB5
:1003C300CB35F0CD3400FC09E687F0D2E7A42DCC81
:1003D30035F0FDE433FA0918E687F0D2F7A42CCD03
:1003E30035F0CA3400FC08E687F0D2E7D2F7A42A36
:1003F300CC35F07A7E20E70B0ACB33CBCD33CDCC93
:1004030033CC33CB3350147004ED30E00ED2F1E42F
:10041300CD3DCDCC3CCC3B5005DA05C2F1EB547F4E
:10042300C63308E63392F0FBE73309E733C39A5048
:100433002D2B70190C0D4C4D70151806E608C3339F
:10044300700D20F10AA2F013F6E418800B4024E4A7
:10045300F630F002768018F618F618F68024D33BAF
:1004630014501074FFA2F013F6187680E418F618EF
:10047300F6800FA2F013F618E63303F618ECF6181D
:10048300EDF6D0E0FDD0E0FCD0E0FBD0E0FA2212A4
:10049300030360461202F4603DE9687008F618F63B
:1004A30018F618F622748067F71204C6090909744E
:1004B3008067F7221202F4601D12030370051919F5
:1004C30019801A1202CA701F1202DFC37003E66793
:1004D3003319191940071818182208080874FFF669
:1004E30018F618F618F6221202DF60171202C0700F
:1004F3002192F01202B67019501720F01408080860
:10050300090909E7F61819E7F61819E7F61819E7BC
:10051300F6221202B660E6E869701F0808E6248036
:10052300F608E436F618547FB47F0CE6548060076F
:10053300F6E418F618F622181822E9C6CC08C6CD38
:1005430008C6CE08C6CFC0E0E8C0E0EAC0E0EBC012
:10055300E009E9F809E7FA09E7FBE6F918E6F8C361
:10056300EC98ED99EE9AEBC2E7F5F0EFC2E795F060
:10057300500E600CEBCFFBEACEFAE9CDF9E8CCF8EC
:10058300EAA2E7D2E7FAEB33FB13F5F0EEA2E7D2E8
:10059300E7FEEF33FFC5F013A2E730E601B313C55F
:1005A300F0C3C0E0C0F07F00C39BFB605B941860A6
:1005B3000C401AD0E023F9D0E0F80206958AF0E95E
:1005C300486003D2F0E4AFF0FAF9F8803BEB30E493
:1005D3000D89F0EA6003D2F0E4AFF0F9CAF8EB302A
:1005E300E30D88F0EF6002D2F0AFF0E4CAC9F8EB94
:1005F30054076014FBC3EA13FAE913F9E813F8EF9D
:10060300135002D2E0FFDBEDD0E0C0E030E739C3A6
:10061300E49FFFF5F0EC98FC42F0ED99FD42F0EE1B
:100623009AFE42F0D0E0F9D0E0F8E5F0607AE923F1
:10063300F9EE20E742D8028067C3EF33FFEC33FCC7
:10064300ED33FDEE33FE80EAEC28FCED39FDEE3AA6
:10065300FED0E023F9D0E0F84002801BC3EE13FE86
:10066300ED13FDEC13FCEF135002D2E0FF08B800CA
:10067300067F7F74FF802EEF3350178CF020F0023B
:1006830060100CBC000C0DBD00080EBE000408E891
:1006930060DFE933E813FFEE2313FE4F4D4C800870
:1006A300E95480FFE4FEFDFCEE33EF33F47004FC09
:1006B300FD7E80D0E0FBD0E0FAD0E0F8D0E0CFC6FA
:1006C30018CEC618CDC618CCC6F9221202F470048F
:1006D30018181822120303700D74FFF61819F61870
:1006E30019F61819F622E7548066F61202B6700F4F
:1006F3001202C070F014F608F608F608F680D1125C
:1007030002C0700CF608F608768008E6447F80EC99
:100713001202E2700C1202CD60BFE65480F6E48050
:10072300BB1202CD700519191980A5E869700C7602
:100733003F18768018F618F6E8F922E6CDC0E018DF
:10074300ECC0E0E633CD33CDD313F6E719FCE7195C
:100753001933CC33C3947F400ECD9D502408E65407
:1007630080F6E418F6800FF4043D14501408E644B0
:100773007FF6187680E418F618F6D0E0FCD0E0FD9A
:1007830022CCD313CCFD18E4C6CBC0E018E4C6CA10
:10079300C0E00808ED08C633E613F618E433C6755F
:1007A300F003C3CA97CA09CB97CB199C40047D08B1
:1007B300802EBD000302087716B6FF05060608164D
:1007C30018C3CA33CACB33CB33CA27CA09CB37CBF7
:1007D300193CC37D08803E187D0820E75CC633C6FC
:1007E300CA33CACB33CB33DDF1D5F0EB30E77BCA69
:1007F30097CA09CB974ACB199C406F4B7025E620CB
:10080300E0218066187D08C3CA97CA09CB97CB1924
:100813009CD3C633C6CA33CACB33CB3350C9DDE707
:10082300D5F0E1D3E4C636C608C636C608C636C612
:1008330008C636C61818188031C3CA97CA09CB9799
:10084300CB199CB34097C633C6CA33CACB33CB3319
:10085300DD34D5F02EC6A2E0C640C8CA27CA09CBEC
:1008630037194A70BECB3CB480B90808E63308E6B2
:1008730033601F181818D0E0FAD0E0FBD0E0FCD0AA
:10088300E0FD22187D08CA27CA09CB37CB193CD310
:10089300808013F618E4B67F11F618B6FF0EF6182B
:1008A300C60470D20808768080CAF618F618F68057
:1008B300C5080808EAC0E0EBC0E086F0E7A4FA1830
:1008C3000986F0E7A42AFA180986F0E7A42AFA1899
:1008D3000986F0E7A42AFA1986F0E7A4FBE5F02AD3
:1008E300FA190886F0E7A42BFBE5F03AFA19088613
:1008F300F0E7A42BFBE5F03AFA18180986F0E7A411
:10090300C5F02BFBE43AFA1908E7C5F0C6A426F6AE
:10091300E5F03BFBE43AFA1886F0E7A4F6E5F008C5
:1009230026F6E43B08F6E43A08F6D0E0FBD0E0FA1A
:1009330022E4CFC0E0E4CEC0E0E4CDC0E0E4CCC02C
:10094300E075F020C3E633F608E633F608E633F63F
:1009530008E633F6181818EC33FCED33FDEE33FEDE
:10096300EF33FFC3EC9709ED9709EE9709EF97195A
:100973001919400FFFEC97FC09ED97FD09EE97FE5F
:10098300191906D5F0BEECF709EDF709EEF709EFF3
:10099300F7191919D0E0FCD0E0FDD0E0FED0E0FF5C
:1009A30022E4C396F608E496F608E496F608E4967D
:1009B300F622C6F4C608C6F4C608C6F4C608C6F4CA
:1009C300C6226016080808C6C313C618C613C6187D
:1009D300C613C618C613C6D5E0EA2270090808086C
:1009E300226016181818C6C333C608C633C608C60D
:1009F30033C608C633C6D5E0EA22E627F60809E679
:100A030037F60809E637F60809E637F622E026F650
:100A130008A3E036F608A3E036F608A3E036F6228C
:100A2300E026F008A3E036F008A3E036F008A3E0E0
:100A330036F022C3E697F60809E697F60809E69723
:100A4300F60809E697F622C3E0C696F608A3E0C6C1
:100A530096F608A3E0C696F608A3E0C696F622C368
:100A6300E096F008A3E096F008A3E096F008A3E070
:100A730096F022E056F608A3E056F608A3E056F6F1
:100A830008A3E056F622E056F008A3E056F008A3C8
:100A9300E056F008A3E056F022E0F608A3E0F608DB
:100AA300A3E0F608A3E0F622E6F008A3E6F008A325
:100AB300E6F008A3E6F022CAC0E0E6F0A308DAFAFB
:100AC300D0E0FA22CAC0E0E0A3C582CCC582C583C8
:100AD300CDC583F0A3C582CCC582C583CDC583DADA
:100AE300E6D0E0CA22CAC0E0E493A3C582CCC582A3
:100AF300C583CDC583F0A3C582CCC582C583CDC5CF
:100B030083DAE5D0E0CA22C3E498F8E499F9120B3A
:100B13004B8026C3E49AFAE49BFBE920E7E9120B36
:100B23004BE498F8E499F922C3E498F8E499F912AC
:100B33000B4BE498F8E499F9C3E49AFAE49BFB229B
:100B4300EB20E7CFE920E7E0B90010BB0008E88A13
:100B5300F084F8AAF022E4FBC8FA22EB70227B109F
:100B6300C833C8C933C9335007C39AC3DBF28006FD
:100B73009A50012ADBEAC833F4C8C933F4C9FA220C
:100B830075F008E4C833C8C933C933C99AC99B503F
:100B930004C92AC93BD5F0ECFBC833F4C8E4C9FA4D
:100BA30022600D08C6A2E713C618C613C6D5E0F324
:100BB30022600C08C6C313C618C613C6D5E0F422B8
:100BC300700422600D18C6C333C608C633C6D5E009
:100BD300F418222510C0A8C2AF40021511F510D099
:100BE300A822C0D02510C0A8C2AF50020511F5102D
:100BF300D0A8D0D0222510F582C0A8C2AF400215DC
:100C030011F510D0A8851183222510F582E4351142
:100C1300F58322E473C0E0E8C0E0E58124FCF8E654
:100C2300A2E7D0E0F8D0E0222510C582C0E0E511AC
:100C330034FFC583C0E0E510C3958224F8C0A8C281
:100C4300AF858311858210D0A8CEF0A3E520F0A351
:100C53007808E608F0A3DEFAEFF0A3E58124FAF8BA
:100C6300E608F0A3E608F0A3E608F0A30808E60800
:100C7300F0A3E608F0A315811581D0E0FED0E0F8DB
:100C8300158115811581E8C0E0EEC0E0222510C56D
:100C930082C0E0E51134FFC583C0E0E510C395824F
:100CA30024F9C0A8C2AF858311858210D0A8CEF0E5
:100CB300A3E520F0A37808E608F0A3DEFAEFF0A39B
:100CC300E58124FBF8E608F0A3E608F0A30808E6AC
:100CD30008F0A3E608F0A315811581D0E0FED0E06B
:100CE300F815811581E8C0E0EEC0E0228511838507
:100CF3001082E0A3FEE0A3F5207808E0A3F608DF66
:100D0300FAE0A3FFE0A3C0E0E0A3C0E0E0A3C0E0FB
:100D1300E0A3C0E0E0A3C0E085A8F0C2AF858210E5
:100D230085831185F0A8D083D08202009A85118330
:100D3300851082E0A3FEE0A3F5207808E0A3F6087F
:100D4300DFFAE0A3FFE0A3C0E0E0A3C0E0E0A3C0BC
:100D5300E0E0A3C0E085A8F0C2AF858210858311CF
:100D630085F0A8D083D08222C0D02510C582C0E0F0
:100D7300E51134FFC583C0E0E510C3958224F3C0B9
:100D8300A8C2AF858311858210D0A8C8F0A3E9F06B
:100D9300A3EAF0A3EBF0A37908E709F0A3D8FAECF0
:100DA300F0A3EDF0A3EEF0A3EFF0A3D0E0F0A3D017
:100DB300E0F0A3D0E0F0A3E520F0A3E5F0F0A32258
:100DC300851183851082E0C0E0A3E0F9A3E0FAA3D4
:100DD300E0FBA37808E0F608A3DFFAE0FCA3E0FD5C
:100DE300A3E0FEA3E0FFA3E0C0E0A3E0C0E0A3E034
:100DF300F5D0A3E0F520A3E0A3F5F0E5A8C2AF8505
:100E03008210858311F5A8D082D083D0E0F8D0E09A
:100E1300327404800A74038006740280027401C071
:100E2300E0F404120BF8D0E0120ABA22740480042E
:100E330074028000CCC0E0EDC0E0E510C39CCCADF3
:100E43001150011DC0A8C2AF8C108D11D0A8120A79
:100E5300C7D0E0FDD0E0FC2274028000CCC0E0EDFE
:100E6300C0E0E510C39CCCAD1150011DC0A8C2AFBA
:100E73008C108D11D0A8120AE8D0E0FDD0E0FC223E
:100E8300D083D082C5F0E493A3C5F0C395F0F5F009
:100E9300E493A3C395F04005E5F0048001E475F005
:100EA30002A42582F582E5F03583F583E493A3C09C
:100EB300E0E493C0E022D083D082E9C0E0E493A3CE
:100EC300C386F0C5F095F0F908E493A386F0C5F066
:100ED30095F0700BE493A3C3994005E9048002A342
:100EE300E475F002A42582F582E5F03583F583D01D
:100EF300E0F9E493A3C0E0E493C0E022D083D0827E
:100F0300CCC0E0E493A36006120F291470FAE493B3
:100F1300A36006120F481470FAD0E0FCE493A3C058
:100F2300E0E493C0E022C0E0E493A3D39C5010E438
:100F330093A3C39C400AD0E0D0E0D0E0020F1CA3EF
:100F4300A3A3D0E022C0E0E493A36C7009D0E0D067
:100F5300E0D0E0020F1CA3A3D0E022D083D082EC28
:100F6300C0E0EDC0E0E493A3FCE493A3FDED4C608B
:100F73000D120FAAEC24FFFCED34FFFD80EFE49388
:100F8300A3FCE493A3FDED4C600D120FE9EC24FFE9
:100F9300FCED34FFFD80EFD0E0FDD0E0FCE493A353
:100FA300C0E0E493C0E022C0E0C3E4939608740178
:100FB300939618400FE493667008087401936618BB
:100FC30070007019A3A3C3E4939608740193961851
:100FD300A3A3400DD0E0D0E0D0E0020F9AA3A3A3D7
:100FE300A3A3A3D0E022C0E0C0F088F0E49366702E
:100FF300080874019366187000A8F0A3A3700BD0BF
:10100300F0D0E0D0E0D0E0020F9AA3A3D0F0D0E07C
:1010130022EC23F5F0EB54802345F0C4F5F0642073
:101023007004EB4480FBE5C7FC54CF45F0F5C7E4FF
:101033008B838A8293F98CC7227800800A78018097
:1010430006780480027808C083C082C085C084C04B
:101053009F759F03C3E9943075F008A444804BF552
:10106300858A84E87013851082851183E0700104FA
:10107300F8A3E0700104F9800279018C828D83105A
:10108300AF11759201E493A3759200F0A3D8F3D93D
:10109300F18013C2AF759201E493A3759200D2AFAE
:1010A300F0A3D8EFD9EDD09FD084D085D082D08360
:1010B30022C083C082C085C084C0C77583F875828F
:1010C300DAC083C08275851175841D75F0167801A9
:1010D30010AF027800759201E0A3759200F0A3D5DA
:1010E300F0F3E86002D2AFD082D0838B858A847814
:1010F3000110AF0278008DAD8CAC75C75112111B76
:10110300759200E5AE20E7FBE86002D2AFD0C7D00E
:1011130084D085D082D08322E47375920175AE02A8
:101123007A04E0F5AFA3DAFAE5AE20E6FBD9F122C3
:1011330079FF12207353BEFBE5BEA2E650FA007896
:10114300F8790100E824FF18E934FFF9E87001E9B0
:1011530070F175C600E5C670FC43BE0443FE01434F
:10116300FE08438F201211E278108682088683805E
:101173000374CDF01211D5C37400958274EE958378
:1011830040EF7582FF7583008004A88276CDE581E8
:10119300F5081211D5750900C3E5089582E4958316
:1011A30040E8790012218712233D7A007B00122048
:1011B300F7121241122301121630121F3B1220792B
:1011C30079FF12206D790212218712207F7A007B2A
:1011D3000022E58224FFF582E58334FFF583227440
:1011E300F8120C907E007F00790412231FE9601926
:1011F3000E7A107B27122199EE601EC3940340E8F8
:10120300D290D2937F01020D307E007A507BC312BD
:1012130021997A507BC3122199EF70047A018002DD
:101223007A00EAFF600CA2905004C29080BAD29078
:1012330080B6A2935004C29380AED29380AA74F76F
:10124300120C907508007509007808120E1C7C08B2
:101253007D007A017B001220FD7402120BE57508F4
:10126300137509F97808120E1C75080875090078BA
:1012730008120E1C7C007D007A017B0012210F7482
:1012830004120BE5781379F97C00E8FAE9FB8A820A
:101293008B83A3A882A9838A828B83E064FF705C1B
:1012A3000CECC3940840E37B20781379F97A08EBBC
:1012B30088828983F00BA3A882A9831AEA70F07548
:1012C300080080187A247BF4122199630801AA0884
:1012D30079011223B57A247BF412219912234FE961
:1012E300640470E07A0079011223B57A0279071257
:1012F3002319EA90F913F0EB90F914F07F02020D31
:1013030030C0E074F1120D6B7E00750801750900A1
:10131300EE7808120BC3E508558A6039EEC333F83B
:10132300E433F9E81213667002A3E06028A2A0B3C5
:1013330092A0750801750900EE7808120BC3E50841
:10134300F4558AF58AEEC333121366F8A3E0F583E6
:101353008882120C160EEEC3940840AEC2EB7F02D5
:10136300020DC32406F582E934FAF583E022C0E0D6
:10137300C0D0C082C083C2C790DF60E0C394044082
:101383000553BEFCE5BED083D082D0D0D0E032C0BE
:10139300E074F2120D6B1224457F01020DC3C0E00D
:1013A30074F2120D6B12244B80EFC0E074F2120D35
:1013B3006B12245180E3C0E0C0D0E8C0E0E9C0E094
:1013C300EAC0E0C082C083E5C1C0E090FA90121485
:1013D3005E90FA90121463D0E0F090FA90121449E0
:1013E30090FA9112144390FA917005121439800304
:1013F30012143E0214BFC0E0C0D0E8C0E0E9C0E070
:10140300EAC0E0C082C083E5F9C0E090FA9212140A
:101413005E90FA92121463D0E0F090FA921214499B
:1014230090FA9312144390FA9370051214398003BF
:1014330012143E0214BF121456E422121451042251
:10144300121574E06A2212144EFA22E0F8A3121461
:1014530056E022E0F5838882A3A32212144EF822D9
:1014630012158A12146A22E028FAA3E034008A8251
:10147300F58322C0E0C0D0E8C0E0E9C0E0EAC0E004
:10148300C082C083C2E91214D112154490FA90703D
:1014930005121527800312152CF01214D1121565AD
:1014A300600E90FA9012151C90FA9012157AF5C1FD
:1014B300D083D082D0E0FAD0E0F9800AF0D083D094
:1014C30082D0E0FAD0E0D0E0F8D0D0D0E03290FA89
:1014D3009012155790FA9022C0E0C0D0E8C0E0E91E
:1014E300C0E0EAC0E0C082C083C2EAC2F912154D6F
:1014F30012154490FA927005121527800312152CC9
:10150300F012154D121565600E90FA9212151C908B
:10151300FA9212157AF5F98097E0240BF8888289FC
:1015230083E0F822121532E422121532E00422E09D
:10153300240B1812153A22A3E03400F98882898318
:1015430022E0240C081215606A2290FA92121557B1
:1015530090FA9222E0240BF8121560FA2212153A3F
:10156300E022E0F8A3121574A3A3A3A3A3A3E06A44
:1015730022121456A3A32212158AA3A3A3A3A3A3DF
:10158300A3A312146AE022E0FAA3E0F5838A82227D
:10159300C0E074F2120D6BE59EFAE5C35A54206065
:1015A300051224B1801EE5C35A5440601790DF072B
:1015B300E0FA90FA9EE0C39AA2D265D0335002EAD1
:1015C300F075C3A37F01020DC3C0E074F2120D6B6B
:1015D300E591FAA2E0C0D0E5E9A2E092F0120C187E
:1015E300158182F0500875E9FE1224ED8037E5E994
:1015F3005A5402600875E9FD1224F38028E5E95A7C
:101603005440600CC2AF5391BFD2AF12260780156E
:10161300E5E95A5420600E1225DD75E9DF90DF629B
:10162300E0A2E240F2759B0075E9FF809774F8121F
:101633000C90121E99121DCD7901121655E9FE79EF
:10164300FF122073EEF980057401120BE57F01028E
:101653000D3074F8120C9074FF120BD6121E8DE924
:10166300FEE4851082851183F0AA82AB837956123A
:101673001EB17A137BF979E2121EB190FBD9E070A7
:1016830002A3E0601290FBD9E0FAA3E0FB122097DB
:1016930090FBD9E4F0A3F0EEF980ADC082C083746F
:1016A300E269700B7C137DF9122019790080031213
:1016B3001EAB02181474F8120C908908EAFEEBFFB3
:1016C30074E26508700BEEFCEFFD7A137BF91220D0
:1016D30019EEFAEFFBA908121EB1021650C082C020
:1016E30083EA24161216F0121DD3021812F582EBA8
:1016F30012170122EA2413F582EB12170122340098
:10170300F583E4F02274F5120C90EAFEEBFF8E826F
:101713008F837808120A9C90FBD57808120AAB9045
:10172300FBD9E07002A3E0600579FC0218068E8203
:101733008F83A3A3A3A3E0640370030217E98E823C
:101743008F83A3A3A3A3E070477A1B7B001220918E
:101753008A088B09A808A90990FBD9E8F0A3E9F046
:10176300E87001E97005791A0218067C1B7D00797F
:101773000012201F90FBD9E0240BF8A3E03400F9FA
:10178300EE2413F582EF1218D7E8F0A3E9F08056A0
:101793008E828F83A3A3A3A3A3A3A3E06048EE2415
:1017A30013F508EF3400F5098E828F83A3A3A3A357
:1017B300A3A3A3E075F021A4FAABF012209185084E
:1017C30082850983EAF0A3EBF0850882850983E02B
:1017D300F8A3E0F990FBD9E8F0A3E9F090FBD9E096
:1017E3007002A3E06080EE2410F582EF1216F38EF0
:1017F300828F83A3A3A3A3A3A3F0EEFAEFFB121E8E
:10180300FF79007F04020D30C082C083121E9379DA
:1018130000D083D08222C082C0831216F7121DD952
:1018230080ED74F3120C908A0C8B0D7B007A00E52B
:101833000C241BF582E50D1218D7E0F9121D498A15
:10184300088B09AE08AF09EE7001EF607D850C08C7
:10185300850D09750A007808120E187C107D00EEBC
:101863002422FAEF3400FB1220137403120BE5E574
:101873000C241BF8E50D3400F9E8FAE9FB8A828BA6
:1018830083E08E828F83A3A3A3A3F0E50C241CF52E
:1018930082E50D1218D7E0F508A3E0F509780812E0
:1018A3000E188A828B83E0FC7D008E828F83A3A334
:1018B300E0FAA3E0FB1220137403120BE5EE241FDE
:1018C3001218DC121D4379008002791A7F06020D7B
:1018D30030F582EB3400F58322F582EF121701EE27
:1018E300FAEFFB221200A8B7AE011200A8F3AE0173
:1018F3001200A812AF011200A8A5AF011200A89907
:10190300B0011200A8E8B0011200A888B2011200C9
:10191300A8CBB2011200A825B6011200A8A0B801F5
:101923001200A893B9011200A850BA011200A80B23
:10193300A3011200A8B7A5011200A8C8A5011200AF
:10194300A81EA6011200A860A6011200A8DDA60128
:101953001200A8A2A7011200A8AAA7011200A8D1E9
:10196300A7011200A8DAA7011200A8DDA70112003F
:10197300A80BA8011200A875A8011200A80EAA01BD
:101983001200A8CCAA011200A80EAB011200A8EF06
:10199300AB011200A8F2AB011200A810AC011200B7
:1019A300A8BFAD011200A820AE011200A8A0AE018D
:1019B3001200A838DB021200A876DB021200A8A1ED
:1019C300DB021200A849F8011200A85BF80112001B
:1019D300A88CF8011200A8FDF8011200A899F901DA
:1019E3001200A84EFA011200A8E1FA011200A800A1
:1019F300FB011200A82BFB011200A874FB011200CB
:101A0300A8D0FB011200A8C5FC011200A86DFD01BE
:101A13001200A8F8FD011200A8F696011200A8769C
:101A230097011200A8B097011200A80D98011200A7
:101A3300A8D999011200A8F199011200A84C9A01A2
:101A43001200A8DC9A011200A8399B011200A852C7
:101A53009C011200A8429D011200A8B79D0112002B
:101A6300A81A9E011200A8699E011200A8B29E0145
:101A73001200A89D9F011200A895A0011200A8C002
:101A8300A0011200A80BA1011200A858A101120085
:101A9300A8EEA1011200A8A0A2011200A8A392021D
:101AA3001200A8BC92021200A80C93021200A8B65E
:101AB30093021200A80394021200A8469402120093
:101AC300A8AF95021200A85C97021200A8F0CB02FF
:101AD3001200A834CD021200A8FFCE021200A808FB
:101AE300CF021200A811CF021200A81ACF021200CF
:101AF300A828CF021200A831CF021200A838EE02A4
:101B03001200A8D8B2021200A8F6B4021200A8422A
:101B1300B6021200A8F8B6021200A8D86C0112008F
:101B2300A8036D011200A84F6F011200A8916F0165
:101B33001200A83670011200A84470011200A87F99
:101B430070011200A89A70011200A8057201120018
:101B5300A85674011200A8DD75011200A87A760157
:101B63001200A84977011200A8677A011200A8059C
:101B73007B011200A83F7B011200A85C86021200C1
:101B8300A86A86021200A89386021200A8B58602EC
:101B93001200A83489021200A87A89021200A8E868
:101BA30089021200A8BF8A021200A8F48A02120056
:101BB300A84B8B021200A8928B021200A8E28B02A0
:101BC3001200A83A8C021200A8315D011200A8622B
:101BD3005E011200A8F15E011200A8146001120058
:101BE300A8FC61011200A88C62011200A8806301A5
:101BF3001200A8FB63011200A84E64011200A8D8CA
:101C030065011200A8E865011200A8F5650112003C
:101C1300A81966011200A82166011200A83F6601F7
:101C23001200A85267011200A8AC67011200A801B4
:101C330068011200A84868011200A8546801120044
:101C4300A89268011200A88969011200A8686A01B4
:101C53001200A80B6B011200A8AD6B011200A8D1F2
:101C63006B011200A8FA6B011200A8186C01120094
:101C7300A85C6C011200A85F6C011200A8876C01BC
:101C83001200A8B06C011200A83ACF021200A86794
:101C9300CF021200A88BCF021200A8F1CF021200CC
:101CA300A83BD0021200A859D0021200A8E0D0022B
:101CB3001200A826D1021200A85CD1021200A88A41
:101CC300EE021200A8B2EE021200A8DEED0212002C
:101CD300A829EE021200A819E9011200A85EE90181
:101CE3001200A8C5E9011200A816EA011200A84FC4
:101CF300EA011200A870EA011200A87AEA011200B0
:101D0300A892EB011200A8B7EB011200A839EC016D
:101D13001200A84CEC011200A85EEC011200A8000E
:101D2300ED011200A8F5ED011200A801EF01120068
:101D3300A893EF011200A89DEF011200A807F0017C
:101D43001200A818F0011200A861F0011200A80007
:101D530080021200A83080021200A86080021200E4
:101D6300A88F80021200A8C880021200A82781024F
:101D73001200A84282021200A88C82021200A8BBA1
:101D830082021200A82B83021200A85383021200BE
:101D9300A87F83021200A88D83021200A8FB83028E
:101DA3001200A83A84021200A87C84021200A8B987
:101DB30084021200A8DC84021200A8E78402120045
:101DC300A80585021200A8E385021200A8F6850281
:101DD3001200A83886021200A85186021200A82217
:101DE300BC021200A85FBC021200A875BC0212005C
:101DF300A887BD021200A89EBD021200A8B2BD02B0
:101E03001200A84CBE021200A8A1BE021200A869CB
:101E1300BF021200A875BF021200A85CBA0112002B
:101E2300A891BA011200A8ABBA011200A8EFBA0137
:101E33001200A843BD011200A8C6BD011200A86686
:101E4300BE011200A8C3C0011200A8D2C001120033
:101E5300A8D5C0011200A8DDC0011200A8FAC00174
:101E63001200A80CC1011200A83EC1011200A80370
:101E7300C2011200A874C2011200A8DFC20112003D
:101E8300A881C3011200A83FC4011200A86DC401B8
:101E93001200A80CC5011200A818C5011200A85A07
:101EA300D4021200A881D4021200A8A8D4021200FE
:101EB300A818D5021200A886ED021200A896ED021A
:101EC3001200A899ED021200A8CAED021200A8DDC3
:101ED3009D021200A8629E021200A8619F021200D6
:101EE300A84BA0021200A8E5A0021200A822A20299
:101EF3001200A8DCA2021200A81CA3021200A84E22
:101F0300A3021200A8A0C0021200A87CC102120002
:101F1300A8DFC1021200A87AC2021200A83AC302C3
:101F23001200A8B3C3021200A8EEC3021200A83322
:101F3300C4021200A87CC4021200A80AD80112002D
:101F4300A818D8011200A88DD8011200A8A8D8019A
:101F53001200A8F7D8011200A807DB011200A8CAD3
:101F6300DC011200A88EDF011200A8C5DF011200F8
:101F7300A8DFDF011200A851E0011200A885E001EB
:101F83001200A8B4E0011200A800E1011200A8DFCA
:101F93007B011200A8F77B011200A80F7C0112003D
:101FA300A8537C011200A8D67C011200A83B7D0136
:101FB3001200A8E57D011200A83F7F011200A8A529
:101FC3007F011200A8E67F011200A87680011200AB
:101FD300A83B82011200A8DE82011200A81B870120
:101FE3001200A88F87011200A87288011200A8901E
:101FF30088011200A8B788011200A8CF8801120037
:10200300A8FB88011200A82389011200A8459802A1
:102013001200A84F98021200A89998021200A8B8BB
:1020230098021200A8D598021200A88B99021200F8
:10203300A8C999021200A8D399021200A82B9A02E8
:102043001200A8589A021200A8AF9A021200A824FC
:102053009B021200A8609B021200A8DB9B021200E5
:10206300A8549C021200A8B49C021200A8E69C0289
:102073001200A8F69C021200A8069D021200A825D1
:102083009D021200A896E1021200A800E2021200CB
:10209300A825E2021200A836E3021200A8F84A01BA
:1020A3001200A8994C011200A8D44C011200A8A058
:1020B3004E011200A8364F011200A8BF50011200B2
:1020C300A80851011200A80052011200A87F520172
:1020D3001200A8FB52011200A84253011200A8915A
:1020E30053011200A8D153011200A81F5501120079
:1020F300A88156011200A86758011200A87458015C
:102103001200A8CF58011200A82359011200A8D821
:102113005C011200A8B1FF011200A8C7FF01120061
:10212300A8D6FF011200A8A2B7021200A8DCB702CA
:102133001200A86BB8021200A8AAB8021200A81DC8
:10214300B9021200A85EB9021200A897B9021200E0
:10215300A8CEB9021200A8E0B9021200A80DBA0273
:102163001200A82DBB021200A83DBB021200A85BFF
:10217300BB021200A8CBBB021200A80ABC021200C9
:10218300A8CFEE021200A890E9021200A822EA02E8
:102193001200A86BEA021200A887EA021200A8A1A3
:1021A300EA021200A859A3021200A830A4021200E6
:1021B300A83BA4021200A8CCA4021200A858A602AD
:1021C3001200A87DA6021200A8A6CE011200A8162E
:1021D300CF011200A8B2CF011200A81FD001120034
:1021E300A824D1011200A8A3D1011200A8CDD101C6
:1021F3001200A83CD3011200A857D3011200A898DB
:10220300D3011200A8CFD3011200A82CD4011200CD
:10221300A846D4011200A8A1D4011200A8DED5015A
:102223001200A820D6011200A849D6011200A8B5B1
:10223300D6011200A8CCD6011200A8CFD6011200F5
:10224300A8ECD6011200A871D7011200A894D701F7
:102253001200A8F8D7011200A88689011200A8A0CD
:1022630089011200A8538A011200A8B38A0112003F
:10227300A81A8B011200A85C8B011200A8F38B0132
:102283001200A88D8C011200A8248D011200A862EF
:102293008D011200A80A92011200A8A69301120050
:1022A300A8F993011200A83E94011200A86D9501AC
:1022B3001200A829C5011200A8D6C5011200A84A18
:1022C300C6011200A804C7011200A848C8011200E1
:1022D300A8B4C8011200A81AC9011200A8A9CA010A
:1022E3001200A854CB011200A8D1CB011200A86D93
:1022F300CC011200A854CD011200A8AFEF021200C6
:10230300A886E3021200A898E4021200A8FEE402E1
:102313001200A804E7021200A849E7021200A8FA73
:10232300E7021200A86FE5021200A87DE502120081
:10233300A89EEF021200A882EC021200A892EC02FF
:102343001200A8ADEC021200A807ED021200A810BB
:10235300D9021200A815D9021200A81BD902120033
:10236300A820D9021200A869DA021200A88BDA02A7
:102373001200A898DA021200A8CDDA021200A8D03F
:10238300DA021200A8D3DA021200A8D6DA02120087
:10239300A82CDB021200A82FDB021200A832DB02FA
:1023A3001200A835DB021200A8BDEF021200A8DF5D
:1023B300AD021200A8EDAD021200A86BAE0212002E
:1023C300A891AF021200A81EB2021200A882B202A4
:1023D3001200A8C7B2021200A8A2A8021200A83FC6
:1023E300AC021200A81BAD021200A835AD02120008
:1023F300A8AFAD021200A8CEAD021200A8A68C02AF
:102403001200A8808D021200A8108E021200A8AE3E
:102413008E021200A8D08E021200A8FF8E021200B4
:10242300A8748F021200A8B18F021200A833900281
:102433001200A87790021200A83091021200A87B24
:1024430091021200A8A491021200A8FD91021200A9
:10245300A85C92021200A827E1011200A8E0E101A2
:102463001200A811E2011200A8B1E3011200A8E7CB
:10247300E5011200A861E6011200A882E70112003B
:10248300A860DD021200A89CDD021200A8AFDD02E5
:102493001200A8DDDD021200A80DDE021200A8481A
:1024A300DE021200A860DE021200A8D0DE021200D3
:1024B300A803DF021200A883DF021200A8C3DF0211
:1024C3001200A8D5DF021200A8F1DF021200A8351E
:1024D300E0021200A83EE0021200A88CE002120003
:1024E300A8ADE0021200A859E1021200A85FE102C0
:1024F3001200A86CE1021200A815EF021200A83224
:10250300EF021200A8DBD1021200A879D202120056
:10251300A886D2021200A88ED2021200A8B1D2025B
:102523001200A8D6D2021200A855D3021200A8CBDB
:10253300D3021200A8FAD3021200A834D402120064
:10254300A84AD4021200A814ED021200A839ED0221
:102553001200A861ED021200A8CDD6021200A8E66F
:10256300D6021200A8F2D6021200A806D702120061
:10257300A829D7021200A835D7021200A844D7020F
:102583001200A857D7021200A88CD7021200A8C6BF
:10259300D7021200A8FBD7021200A847D8021200E4
:1025A300A893D8021200A8ABD8021200A8B5D8028B
:1025B3001200A8C6D8021200A80AD9021200A8B5B0
:1025C300F0011200A8DDF0011200A8F0F0011200E2
:1025D300A803F1011200A819F1011200A875F10175
:1025E3001200A8AFF1011200A8D3F4011200A8CA87
:1025F300F5011200A8FCF5011200A860F601120013
:10260300A830F7011200A858F7011200A86DF701CE
:102613001200A87DF7011200A8C3F7011200A81841
:10262300F8011200A85AE8021200A875E802120085
:10263300A89FE8021200A8BCE8021200A8E4E8027E
:102643001200A806E9021200A81FE9021200A84E10
:10265300E9021200A869E9021200A8D0EB021200F5
:10266300A80FEC021200A8E1C4021200A8E8C402F9
:102673001200A8F5C5021200A827C6021200A84935
:10268300C6021200A86CC6021200A88EC60212006F
:10269300A8C9C6021200A838C7021200A875C7024B
:1026A3001200A8C2C7021200A8F0C7021200A810A5
:1026B300C8021200A8E6FE011200A8F8FE011200EB
:1026C300A8AEFF011200A8002E011200A8312E01AE
:1026D3001200A8612E011200A84933011200A8AE0E
:1026E30033011200A80935011200A80A37011200AC
:1026F300A8AB37011200A80838011200A8923B01C9
:102703001200A8B83D011200A8B444011200A85257
:1027130045011200A8A445011200A81846011200A1
:10272300A8AE46011200A81947011200A8FA4701F2
:102733001200A84748011200A84D49011200A8FC45
:1027430049011200A8654A011200A8C94A011200F2
:10275300A8B5EA021200A81EEB021200A86DEB0254
:102763001200A8AEEB021200A86EC8021200A8C69F
:10277300C8021200A8EBCB021200A851EF0212000C
:10278300A880EF0201FFFFFFFFFFFFFFFF0503012B
:10279300300000004B1E4B1E4B1E4B1E131D0D1D08
:1027A3004B1EF32800000000192A00009C2AAA2AC5
:1027B300772B000000000000000000000000000074
:1027C3000C0000000C00312E3030202846385731E1
:1027D3002E342E332900312E3130202846385731FC
:1027E3002E342E3329001DFC2DFCE8030000594133
:1027F30054535AF200000000151E211B43239B1F54
:10280300F318CF21E52607FF0101010034F9000089
:102813000002400000005000000000218271F91006
:102823002764006400B80102020008000005011ECD
:102833001E02051E03B80B803E3412010000000087
:1028430058000064000000021F0000002D0000007B
:10285300975118006AAEE7FF965118009F020000D7
:10286300DEFFFFFFFFFFFF0080FFFF007FFFFF0092
:10287300220000007D000000FF0F000000000C009C
:10288300FFFFFFFF02050200000206010002000431
:10289300000A040F01000003E2FC03E2FC00004015
:1028A300400005150D0910080400383C3E363B3B3B
:1028B300352B432C303016181920231A1C1E3030A8
:1028C3003017181921301B1D1F306D1D9D1D731DE1
:1028D300791D971D8B1D851DA31DA91DAF1DBB1D37
:1028E3007F1D671D611D911DB51DED1EC11DC71DFA
:1028F30003007100300160001100700031022003F9
:102903005004800010006100000014006300730095
:102913007200620043000000130006000000000084
:102923000400120000000000000000000400040086
:10293300370037003C0244000000000000000000A4
:1029430065000000350081000000050000008300E1
:1029530000000101710101010101110101013101B6
:10296300010101018001100161013B0014006301B9
:1029730073017201620143010001130106013D016C
:1029830035000401120100010001000100010401EE
:102993000401330133013C014401320136000001DB
:1029A300000165010001350081010001050182017B
:1029B30083010001030271023001600211027002FF
:1029C3000102020202028002100261023A00410087
:1029D30063027302720262024302000213023800AE
:1029E30000020002040212020002000200020002BE
:1029F30004020402370037003C024402000239009B
:102A03000002000265020002350281020002050293
:102A13008202830200020103710301030103010324
:102A23000103010322030203010310030003000354
:102A33000003000300030003000342030003240315
:102A430006030003000304031203250323032503E2
:102A530023030403040300030003000344030003EC
:102A630000032303000365032100350381030003EF
:102A7300050300030003000300034948424D1817F0
:102A830025050200011916181616152303000C0E4E
:102A9300020B040B0A0708000F4B1E5D1E631E3753
:102AA3001D691E311D3D1DBD1E6F1E751E811E7BC2
:102AB3001E36000100060000000F000000000000A9
:102AC3000000000000000003FFFF00000403FFFFFD
:102AD3000000FFFF0FF4010005C404032000010000
:102AE300000B000000000000000003010001363667
:102AF30001010001020100010301000104010606B6
:102B030005020000070100340801000F0904010158
:102B13000D0100FF0E08000017020000190100FF5D
:102B23001A0100011B0100051C0100081D02000021
:102B33001F01000120010001210200002301000FF9
:102B4300240200002601000127010308280200FFD8
:102B53002A0100072B0102402C0100002D01000176
:102B63002E0100012F0100FF30010B1C3108000072
:102B73003A010008D51EF31EF91EDB1EE71EE11EF7
:102B83000000C5220100C522020071220300772242
:102B930004007D220500832206008F22FFFF000030
:102BA3000000000000009C36063A703DD9404344C3
:102BB300AD47174B814EEA515F3F3F1B171313136A
:102BC3000F0F0F0B0B0B0B0707070706060606066F
:102BD300060300BE040A08050C040A0005100000E1
:102BE3000102030405060708090A0B0C0D0E0F006A
:102BF300160F160D0B150B021102220B30030006E4
:102C0300FF2223242A26292531323337202136FF78
:012C1300417F
:102E0000C082C08374FF120BD690FBADE0640170EA
:102E10001090FBC7E024C4FCA3E034FF12480B80F1
:102E200003E0700312482074FF1236E97401023483
:102E3000FFC082C08374FE120BD6EB851082851111
:102E400083F07401120C0CEAF07C027D0085108284
:102E5000851183AA82AB83790012247B7402023429
:102E6000FF74F0120C2B74DC120BD6743E120C0C97
:102E7000C082C0837442120C0C7808120A9CD08362
:102E8000D08278081201A04003022F20743A120C5D
:102E90000CC082C083743E120C0C7808120A9CD0BD
:102EA00083D08278081201A050767434120C0C1270
:102EB000333D1201CA740C120C0C7808120AAB7460
:102EC0003A120C0C7808120A9C78081201CA740491
:102ED000120C0C7808120AAB7436120C0C12333D2B
:102EE0001201CA7410120C0C7808120AAB743E124C
:102EF0000C0C7808120A9C78081201CA7408120C8B
:102F00000C7808120AAB7438120C0C12333D120103
:102F1000CA7414120C0C7808120AAB7442023047BF
:102F20007442120C0CC082C083743A120C0C7808E4
:102F3000120A9CD083D08278081201A04003022F8D
:102F4000D4743E120C0CC082C0837442120C0C78F4
:102F500008120A9CD083D08278081201A0507574A0
:102F600036120C0C12333D1201CA740C120C0C7880
:102F700008120AAB743E120C0C7808120A9C7808EE
:102F80001201CA7404120C0C7808120AAB743812BD
:102F90000C0C12333D1201CA7410120C0C7808127A
:102FA0000AAB7442120C0C7808120A9C78081201C1
:102FB000CA7408120C0C7808120AAB7434120C0C88
:102FC00012333D1201CA7414120C0C7808120AABA9
:102FD000743A80737438120C0C12333D1201CA74A7
:102FE0000C120C0C7808120AAB7442120C0C780804
:102FF000120A9C78081201CA7404120C0C78081288
:103000000AAB7434120C0C12333D1201CA74101244
:103010000C0C7808120AAB743A120C0C7808120ADD
:103020009C78081201CA7408120C0C7808120AABBA
:103030007436120C0C12333D1201CA7414120C0CAB
:103040007808120AAB743E120C0C7808120A9C78AD
:10305000081201CA8510828511837808120AAB74A0
:103060000C120C0C7808120A9C7410120C0C780CC0
:10307000120A9C7808790C1204B77414120C0C789C
:103080000C120A9C7808790C1204B7741C120C0CF0
:103090007808120AAB7404120C0C7808120A9C749B
:1030A00008120C0C780C120A9C7808790C1204B7E0
:1030B000851082851183780C120A9C7808790C128D
:1030C00004B77418120C0C7808120AAB7404120CB2
:1030D0000C7808120A9C740C120C0C780C120A9CC6
:1030E0007808790C120312C008C009C00AC00B741A
:1030F00008120C0C780C120A9C7410120C0C780834
:10310000120A9C780C7908120312D00BD00AD0094D
:10311000D0087808790C1204B7C008C009C00AC0EA
:103120000B851082851183780C120A9C7414120C82
:103130000C7808120A9C780C7908120312D00BD074
:103140000AD009D0087808790C1204B790FCF478FA
:103150000C120A9C7808790C120312C008C009C02E
:103160000AC00B7418120C0C780C120A9C741C12F6
:103170000C0C7808120A9C780C7908120312D00BF8
:10318000D00AD009D0087808790C120492C008C07F
:1031900009C00AC00B7404120C0C7808120A9C7443
:1031A00004120C0C780C120A9C7808790C12031289
:1031B000C008C009C00AC00B7408120C0C780C12AD
:1031C0000A9C7408120C0C7808120A9C780C790876
:1031D000120312D00BD00AD009D0087808790C124B
:1031E00004B7C008C009C00AC00B851082851183CE
:1031F000780C120A9C8510828511837808120A9C2B
:10320000780C7908120312D00BD00AD009D00878B4
:1032100008790C1204B790FCF4780C120A9C780818
:10322000790C120312C008C009C00AC00B7418122E
:103230000C0C780C120A9C7418120C0C7808120AE8
:103240009C780C7908120312D00BD00AD009D00850
:103250007808790C120492D00FD00ED00DD00C78D3
:103260000C79081206CE7420120C0C780C120AABE2
:103270007420120C0C7808120A9CC008C009C00AFD
:10328000C00B851082851183780C120A9C90FBC7B5
:1032900012379FE50875F0E8A4C508AAF075F00399
:1032A000A42AFA75F0E8E509A42AF509750A00755B
:1032B0000B0078081201CA780C79081204B7D00BF9
:1032C000D00AD009D0087808790C120312C008C0BF
:1032D00009C00AC00B741C120C0C7808120A9CC09E
:1032E00008C009C00AC00B7420120C0C780C120A1A
:1032F0009C7418120C0C7808120A9C780C7908122D
:103300000312D00BD00AD009D0087808790C120427
:103310009290FCF4780C120A9C7808790C1206CE74
:10332000D00FD00ED00DD00C780C79081204B778DD
:103330000C120227AA0CAB0D7424023D8B1237A38A
:10334000750A00750B00780822C082C08390FBC903
:10335000E07002A3E0701F90FBC7C3E0943CA3E0C1
:103360009400403690FBC7E024C4F8A3E034FFF992
:1033700090FBC9123DB290FBC9C3E09442A3E09414
:1033800000401790FBC9E024BFF0A3E034FFF07CBD
:10339000E87DFD7A10124811801190FBC9E0FCA372
:1033A000E012480B90FBC9E4F0A3F0023502C082A2
:1033B000C083E990FBBCF0740190FBBDF0E490FB8E
:1033C000BEF090FBC7743CF0A3E4F090FBC9F0A3FF
:1033D000F090FBCB7403F0A3E4F090FB91F0A3F02A
:1033E00090FB93743CF0A3E4F090FB99F0A3F09071
:1033F000FBADF090FBAEF090FBAF743CF0A3E4F0BB
:10340000740A90FBB1F0743290FBB2F0746490FBDC
:10341000B3F0E490FBB4F0740190FBB5F0E490FBE2
:10342000CDF090FB8DF090FB8EF090FB8CF07A0548
:10343000FB12203790FBCEEAF0A3EB12446CC0E005
:10344000124479D0E0F0124479A3E4F0A3F090FBA9
:10345000CE124417123DAF90FBD2E4F0A3F07402F9
:1034600090FBC1F0740A90FBC2F090FBBFE4F0A3A4
:10347000F0740290FBC5F0740A90FBC6F090FBC399
:1034800074FFF0A3F0740A90FBB6F090FBB774BC25
:10349000F0A374FBF090FBB974E8F0A374FCF0E4C3
:1034A00090FBBBF07AB67BFB121F4753F4FE43FE42
:1034B0000153F5FE43FF01C2A053F4FD43FE02C2D7
:1034C000917D017C007B007A00790312236190FBDF
:1034D000BCE0FA790312236D790312236790FBBCD9
:1034E000E0F91221AB7A207B8090FBBCE0F912223C
:1034F000E97A067B8090FBBCE0F91222E980031296
:103500000BE5D083D08202009A74F4120C2B74F570
:10351000120BD6EAFEEBFF7401120C0C7411F0745E
:1035200002120C0C7422F07403120C0C7433F0743D
:1035300004120C0C7444F07405120C0C7455F074E5
:1035400006120C0C7466F07407120C0C7477F0748D
:1035500008120C0C7488F07409120C0C7499F07435
:103560000A120C0C74AAF074805FF9E47001E9701F
:103570000302369A801EE0640A70127C017D00749A
:103580000A120C0CAA82AB83790012247BAA08AB26
:103590000912203D90FBBCE0F91220498A088B09F2
:1035A000E5087002E50970030236928508828509F4
:1035B00083E0120EFF000401CE351AE335D1EC355D
:1035C000D3C5358D35AA08AB091226EB80BF74EE42
:1035D0001236E9850882850983A3A31238021227CF
:1035E0000380AAAA08AB091226F180A1850882856A
:1035F0000983A3E090FBBDF0640670071236FEEC71
:10360000023581E0640170297A801244507A007B8F
:10361000011244527C017D007402120C0CAA82AB90
:1036200083790012247BC2AF75C9AB75C95B00807A
:10363000FDE0640970081236FE7403023581E07003
:10364000097C017D007404023581640270097C01EB
:103650007D007405023581E0640370097C017D0002
:103660007406023581E0640470097C017D007407F2
:10367000023581E0640570097C017D007408023523
:1036800081E0640860030235767C017D00740902E4
:103690003581EEFA74806FFB8045EEA2E0500A128D
:1036A000272774016EFAEF80EE5480600F90FBCBF9
:1036B0001238027900122739748080E8EE541060C5
:1036C000071226D9741080DC74015FF9E47001E9F7
:1036D00060091226C7EEFA740180BB7A007B007481
:1036E0000B120BE57F04020CEF851082851183F02D
:1036F0007C017D00AA82AB83790012247B227CE8C6
:103700007D037A011248150243D874F6120C2BEA95
:10371000240CF582EB3400F58312379F7808120FE2
:103720005E0000020006804F3720802F379C37EA6A
:103730002411F582EB1243BEF8A3E0F5838882E002
:1037400070097A0179081223B580517A0480F51244
:1037500022AD8A088B09AE08AF09EE7001EF603C1C
:103760008E828F83E0702EA3A3A3E0602874029062
:10377000FBC1F08E828F83A312441790FBBF123DD2
:10378000B28E828F83A3A3A3A3E090FBC2F07A0141
:1037900079081223B5EEFAEFFB12209702460D12BC
:1037A00037A322E0F508A3E0F5092274F6120C2BEA
:1037B0008A828B83A3A3A3A3E0F508A3E0702AE584
:1037C00008120EFF000202CE3704D637E93712374F
:1037D000EC1226F780138A828B83A3A3A3A3A3A34F
:1037E0001246121237EC1226FD02460DEA2413F59A
:1037F00082EB3400F583E0F9EA2415F582EB34001E
:10380000F583E0FAA3E0FB2274F0120C2B74FF1294
:103810000BD68A0A8B0B8A828B83E0540F600EE0F2
:10382000540F640F700DA3E060030239451227099D
:10383000023945E0540F64086003023945A3A3A38D
:10384000A3A3E0C4540FFC8A828B83A3A3A3123BDF
:10385000461243F590FB8D123B46A3A3E0540F6A3A
:10386000600302394590FB8EE06C600302394585A8
:103870000A828B83A3A3A3A3A3A3E085108285114F
:1038800083F0850A828B83A3A3A3A3A3A3A3E0FE53
:103890007A067B001220378A0E8B0F7808120E1CD6
:1038A0007508007808120E2075080F7808120E208F
:1038B0007D017C0079001227157404120BE5123D7E
:1038C0009DC0E01247F1D0E0123D93C0E074F05A81
:1038D000FAD0E04A88828983F0E50E240508E50FD6
:1038E0003400F990FB8EE0C454F0C0E01247F1D0F0
:1038F000E04AF0851082851183E0120EFF00090373
:103900001C39074A390977390AAB390BDA390C09FE
:103910003A0D393A0EDF3A110F3B3E39EE75F03C65
:10392000A490FBC7123B7A120E1C90FBBF740412CA
:103930000E371247E3120BE590FBC71244ABAA0EF9
:10394000AB0F12203D7401023D8B850A82850B83EB
:10395000A3A3A3A3A3A3A3E090FBCBF0A3E4123BF8
:103960007E120E1C90FBBF7404120E371247E31236
:103970000BE590FBCB80C4E50A2407FEE50B124360
:10398000B175F03CA490FB93123B7A120E1C90FB95
:10399000BF7404120E371247E3120BE57C017D0061
:1039A000EEFAEFFB790012247B8093850A82850B67
:1039B00083A3A3A3A3A3A3A3E090FBB1123B7E1216
:1039C0000E1C90FBBF7404120E371247E3120BE576
:1039D0007C017D007AB17BFB80CA850A82850B83DE
:1039E000A3A3A3A3A3A3A3E090FBB2123B7E120E5A
:1039F0001C90FBBF7404120E371247E3120BE57CD8
:103A0000017D007AB27BFB809B850A82850B83A3B4
:103A1000A3A3A3A3A3A3E090FBB3123B7E120E1CAF
:103A200090FBBF7404120E371247E3120BE57C01C2
:103A30007D007AB37BFB0239A4123B7F120E1C90EF
:103A4000FBBF7404120E371247E3120BE5850A829E
:103A5000850B83123B50E0F9EA90FBCB123DB38516
:103A60000A82850B83A3A3123B50A3A3123B689049
:103A7000FBC7123DB2E50A240C1243BAFAE50A2448
:103A80000BF582E50B3400F583123B6890FB931233
:103A90003DB2E50A240D1243BA90FBB1F0E50A24C9
:103AA0000E1243BA90FBB2F0E50A240F1243BA900B
:103AB000FBB3F090FBCB1244AB1244A890FB9312E3
:103AC00044AB7C017D007AB17BFB790012247B7CC6
:103AD000017D007AB27BFB790012247B023A2E85AD
:103AE0000A82850B83A3A3A3A3A3A3A3E090FBB5A2
:103AF000123B7E120E1C90FBBF7404120E3712474D
:103B0000E3120BE57C017D007AB57BFB0239A41240
:103B10003B7F120E1C90FBBF7404120E371247E35A
:103B2000120BE57C017D00E50A2407FAE50B340061
:103B3000FB790012247B796412273FC2AF75C9ABB1
:103B400075C95B0080FDE0FA850A828B83A3A322FE
:103B5000A3A3A3A3A3A3A3A3E0FA850A82850B834F
:103B6000A3A3A3A3A3A3A322E0F9EA75F03CA4F8BE
:103B7000AAF075F03CE9A42AF922F0A3E5F0F08858
:103B8000828983E054F04403F075080275090078D7
:103B9000082274F0120C2B74FA120BD68510828551
:103BA0001183ECF0A3EDF08A088B09890A8A828BD5
:103BB00083E0540F64016003023D2DA3E0640160C3
:103BC00003023D898A828B83A3A3A3A3A3E0FA8582
:103BD00008828B83A3A3A3A3E0F9EAFEE9FF7A0698
:103BE0007B001220378A0E8B0FEE7001EF6003020C
:103BF0003CFD7508017808120E2075080F78081230
:103C00000E207D017C00790112270F7402120BE552
:103C100090FB8EE07003023D248510828511831293
:103C2000380212274BE9FE12441190FBC3123DB239
:103C3000EE704590FBD212380279018A088B097424
:103C4000FF297808120BB4E508A2E0500709E9C380
:103C5000941040E775080175090074FF297808126F
:103C60000BC31243DDF0E9FE8510828511831246F5
:103C7000127A007B00122745123D9DC0E01247F1E9
:103C8000D0E0123D93C0E074F05AFAD0E04A888246
:103C90008983F0EEC454F0850E82850F83A3A3A31D
:103CA000A3A3F07404120C0C7402F07405120C0C33
:103CB000740AF01244117402120C0C1243C4120E56
:103CC000207508BE7509FB7808120E1C780E120EBE
:103CD0001C7508067509007808120E1C7508047812
:103CE00008120E1C79207CB67DFB740B120C0CAAFA
:103CF00082AB83121F5F7409120BE5802790FB8E45
:103D0000E06021750C04750D00780C120E1C90FB00
:103D1000BF7404120E377C20A90AAA08AB09124707
:103D2000EB120BE5AA0EAB0F12203D805CE0540FA6
:103D3000640F7055A3E06401704F8A828B83A3A344
:103D4000A3A31247F58508828B83A3A3A3A3A3E0B3
:103D5000C4540FFE90FB8DE0701190FB8EE0700B51
:103D6000EA90FB8DF0EE90FB8E801D90FB8EE06064
:103D70001890FB8DE06A701190FB8EE06E700A90D7
:103D8000FBB4E07004124442F07406120BE57F08A5
:103D9000020CEF4AFAF090FB8DE0540F22E50E245E
:103DA00004F8E50F3400F990FB8CE0C454F0229045
:103DB000FBD0E8F0A3E9F02274F0120C2B74EB12A4
:103DC0000BD6EAFEEBFF90FBC31244178E828F8363
:103DD000E06401600302420AA3E06403600302425C
:103DE0000A7408120C0C74DD1236EFE490FBADF08F
:103DF000740190FBCDF01243A6850882F583E0C0E4
:103E0000E07413120C0CD0E0F0EE2404FEEF124329
:103E1000B1C0E07414120C0CD0E0F0750A03780AFB
:103E2000120E20750A00780A120E207D017C00799E
:103E300000740B120C0CAA82AB8312270F740212AF
:103E40000BE57D0390FB8EE0FC90FB8DE0F9740D9B
:103E5000120C0CAA82AB8312271B750A02750B0089
:103E6000780A120E1C90FBBF7404120E377C207966
:103E70000C740F120C0CAA82AB831247EB120BE5E9
:103E80008E828F83E0FA8508828509831243F57458
:103E900001851082851183F0120C0C7402F0120C53
:103EA0000C7403F0120C0C7404F090FBCBE0700265
:103EB000A3E0703312448B120B4B8A0A8B0BE5087C
:103EC00075F00AA4F8ACF075F00AE509A42CF974B1
:103ED00030C398FC747599FDEAF8EBF9E8C3124316
:103EE00090ECF0A3ED806D90FBCBE064017002A339
:103EF000E0701512448B120B4B8A0A8B0B743095B1
:103F000008FC7475950980CF90FBCBE064027002C9
:103F1000A3E0701C12448B120B4B8A0A8B0BE50832
:103F200075F00AA4FCAEF075F00AE509A42E80A78E
:103F300090FBCBE064037002A3E0704312448B1249
:103F40000B4B8A0A8B0BEAF8EBF9E8124390E50871
:103F5000F0A3E509F090FB95780C120A9C740278A6
:103F60000A120BC3E50A24A1F582E50B34FBF583A5
:103F7000E50CF0A3E50DF0A3E50EF0A3E50FF0903E
:103F8000FB91E02401F0A3E03400F090FB91C3E04A
:103F90009404A3E09400500302416790FBCBE070CF
:103FA00002A3E0705A90FB99E50875F00AA4F8AAFC
:103FB000F075F00AE509A42AF97430C398F874750D
:103FC000991243FE5016E50875F00AA4F50875F03D
:103FD0000AE509A42AF50912441D801790FB99E50A
:103FE0000875F00AA4F50875F00AE509A42AF50990
:103FF00012445B1243CF8510828511830240D39017
:10400000FBCBE064017002A3E0702490FB99743054
:10401000C39508F8747595091243FE500512441DA6
:10402000800690FB9912445B1243CFEC0240D09083
:10403000FBCBE064027002A3E0705D90FB99E508A1
:1040400075F00AA4F8AAF075F00AE509A42A12434B
:10405000FE5021E50875F00AA4F50875F00AE50997
:10406000A42AF50990FB99124417E508C398F8E5CE
:104070000999801D90FB99E50875F00AA4F508756B
:10408000F00AE509A42AF509E0C39508F8A3E0952C
:10409000091243CF7402803890FBCBE064037002B6
:1040A000A3E0703890FB99C3E09508A3E0950990D0
:1040B000FB99E0500EF8A3E0F9E508C398F8E5098C
:1040C000998008C39508F8A3E095091243CF7403BB
:1040D000120C0CAA82AB83790012247B90FB8F1206
:1040E00044AB90FBB1124498501890FB93124417C4
:1040F000E8C333F8E933F912440685108285118349
:10410000805C90FBB2124498500C90FB93124417C1
:10411000124406EC804590FBB3124498502990FB62
:10412000931244177583FB7582C71243FF90FBC738
:104130004009C3E098F0A3E0998005743CF0A3E443
:104140001243D77402801490FBC7E0F8A3E0C313B6
:10415000F9E81390FBC71243D47403120C0CAA8223
:10416000AB83790012247B124437120BC390FBC738
:10417000124417C3E50898E5099950111244371203
:104180000BC390FBC7E508F0A3E509801590FBC7BA
:10419000C3E0943CA3E09400500990FBC7743CF04A
:1041A000A3E4F01244A890FB91C3E09403A3E0942D
:1041B00000403590FB9B7412120E371226D37412F6
:1041C000120BE590FB99EAF0A3EBF090FB99C3E0AA
:1041D0009431A3E09475400A90FB997430F0A37475
:1041E00075F090FB991244AB90FBB5E06401700F41
:1041F00090FBC7C3E09478A3E094004002C291E42E
:1042000090FBAEF01226D902438BEE2403F582EF29
:104210001243BE540F640F60030242E7A3E064013F
:10422000600302438B8E828F83A3A3A3A3A3A3A3C4
:10423000E0FAC4540FFB740F5AFA8E828F83A3A343
:10424000A3A3A3A3A3A3E0C4540FFC90FB8EE07030
:104250003C90FB8DE0703690FBD4E004F0EA90FBDC
:104260008DF0EC90FB8EF0EB90FB8C12446CC0E078
:10427000124479D0E0F075080175090090FB8EE0DA
:10428000147808120BC31243DDF002438B90FB8DB0
:10429000E06A701B90FB8EE06C7014E070030243C8
:1042A0008B90FBB4E0600302438B12444280DA74CB
:1042B00006120C0C7402F07407120C0C740AF074E1
:1042C00004120C0C1243C4120E207508BE7509FBB3
:1042D0007808120E1C1243A0120E1C1243E9120E93
:1042E0001C75080402436FE0540F64086003024326
:1042F0008B8E828F83A3A3A3A3A3A3A3A3E0C45401
:104300000FFC8E828F83A3A3A3A3A3A3A31247F5BD
:1043100090FB8DE06A701C90FB8EE06C70158E82B5
:104320008F83A3A3E0F9EE2403FAEF3400FB1226F7
:10433000F780587406120C0C7402F07407120C0CFF
:10434000740AF07404120C0C74FFF0A3F075080AE0
:104350007808120E207508BE7509FB7808120E1C2D
:104360001243A0120E1C1243E9120E1C75080278AB
:1043700008120E1C79207CB67DFB740D120C0CAA61
:1043800082AB83121F5F7409120BE57415023D8B1B
:1043900033F8E933F9E8249BF582E934FBF583220D
:1043A0001243A6780822EE2403F508EF3400F5093D
:1043B000223400FF8E828F83E022F582E50B3400E9
:1043C000F583E022E8F0A3E9F075080A780822F9FD
:1043D00090FB8FE8F0A3E9F07C017D002290FBD2F6
:1043E000E04508F0A3E04509228E828F83A3A3E075
:1043F000F508023B8CE0F9EAF508E9F50922F9C372
:10440000E098A3E0992290FBC7E028F0A3E0398070
:10441000C6851082851183E0F8A3E0F9227430C3C9
:104420009508FA74759509FB90FB99E0F8A3E0F9FB
:10443000EAC398F8EB992290FB931237A3740378A0
:1044400008227A0112445012272D740190FBB422E5
:104450007B0090FBBCE0F912214522E02508F8A37F
:10446000E03509F974D028F8748A3922F012447FB3
:10447000E4F0A3F090FB8EE02212447FA3A32290ED
:10448000FBCEE0F8A3E0F58388822290FB91E0F870
:10449000A3E0F97A037B0022E0F87583FB75828F35
:1044A000C3E098A3E094002290FBC7E0FAA3E0FBEE
:1044B0001226CD2274F5120C2B74FA120BD68A0830
:1044C0008B09E9FE7401120C0C74AAF07402120C30
:1044D0000C7455F07403120C0CE9F079037401129A
:1044E0000C0CAA82AB831221BD7404120C0CE9F0EF
:1044F000EEF9AA08AB091221BD7405120C0CE9F003
:1045000079027404120C0CAA82AB831221BDE985D6
:104510001082851183F07C037D007401120C0CAABB
:1045200082AB83790012247BEEFC7D00AA08AB09E4
:10453000790012247B7C017D00851082851183AA7D
:1045400082AB83790012247B7406120BE57F030291
:104550000CEF74F7120C2B7409120C0CE0FE740AA9
:10456000120C0CE0FF740F5EC0E0EDA2E0E492E0FC
:10457000C4C0E0ECC43354E05460C0E0E9A2E0E41D
:1045800092E013135480FCD0E04CFCD0E04CFCD003
:10459000E04C8A828B83F0EF1249F4124937F07FA6
:1045A00001020CEF74F6120C2BECFEEDFF740A12F4
:1045B0000C0CE0F508740B120C0CE0F509740C12ED
:1045C0000C0C124612740F5508C0E0EFA2E0E49202
:1045D000E0C4C0E0EEC43354E05460C0E0E9A2E0BF
:1045E000E492E013135480FED0E04EFED0E04EFE85
:1045F000D0E04E8A828B83F0A3E509F0ED8A828BAE
:1046000083A3A3F0EC8A828B83A3A3A3F07F02028F
:104610000CEFE0FCA3E0FD2274F1120C2BEAFEEBA0
:10462000FF890E8C0D8D0C12217B90FB95EAF0A377
:10463000EBF0A3ECF0A31246A6120A9C8E828F83A5
:104640001246A6120A9C741078081209C58E828F31
:1046500083A3E5081246A7120A9CE5098E828F8380
:10466000A3A31246A7120A9C8E828F83A3A3A3E55D
:1046700008F0740F550EC0E090FB8CE0C454F0FAC3
:10468000D0E012469EF0740F550CC0E0E50DC45406
:10469000F0FAD0E012469EA3F07F07020CEF4A8E9C
:1046A000828F83023B63EDF090FB9578082274F4CF
:1046B000120C2B8A088B09E9FEECF97410120C0C11
:1046C00012380290FBBDE06409700CEEF9AA08AB49
:1046D000091227090236E4750A0A780A120E2075B3
:1046E0000ABE750BFB780A120E1C7808120E1C8E7F
:1046F0000A750B00780A120E1C8A0A8B0B780A12B4
:104700000E1C7CB67DFB7415120C0CAA82AB8312B6
:104710001F5F7409120BE580B274F6120C2B74EA59
:10472000120BD67C107D277A0112481190FB8D1256
:1047300047F57406120C0CEAF090FB8EE0C454F0BE
:10474000FB7407120C0CEBF07409120C0CE054F023
:104750004403F07408120C0CEAF074034BC0E074CC
:1047600009120C0CD0E0F07508017808120E2078C0
:1047700008120E207D017C0079017402120C0CAA33
:1047800082AB8312270F7402120BE590FB8EE07050
:10479000157404120C0CE4F07405120C0CE4F075A2
:1047A0000804F50980157404120C0CE4F074051269
:1047B0000C0C7402F07508047509007808120E1CC0
:1047C00090FBBF7404120E377C2079167406120C0D
:1047D0000CAA82AB831247EB120BE57416120BE5A1
:1047E00002460D7C207906AA0EAB0F122721740613
:1047F0002288828983E0540FFA22C082C0837CE839
:104800007D0312480F124820023502FD1248317A0A
:1048100080124815227B0090FBBCE0F912213F2258
:1048200090FBAF1246121248317A007B01124817F2
:1048300022EC75F0E8A4CCAAF075F003A42AFA756E
:10484000F0E8EDA42AFD2274F7120C2B74F8120B79
:10485000D678FF79FF8A828B83E0C0E07402120C65
:104860000CD0E0124941E0C0E07403120C0CD0E01F
:10487000124941A3E0C0E07404120C0CD0E01249CC
:1048800037E0C0E07405120C0CD0E0124948E0C0DB
:10489000E07406120C0CD0E0124948A3E0C0E074AA
:1048A00007120C0CD0E0F07C007D00E885108285BA
:1048B0001183F07401120C0CE9F07402120C0CE577
:1048C000822CF582E5833DF583E0FE85108285111B
:1048D00083E06EF0FE7401120C0CE0F9EEF87E0835
:1048E000E8A2E0E95010C313F9E813F8740168F87E
:1048F00074A069F98006C313F9E813F81EEE70E09E
:10490000EC24010CED3400FDC3EC9406ED9400A200
:10491000D265D0334095E88A828B83A3A3A3A3A357
:10492000A3F0E98A828B83A3A3A3A3A3A3A3F07418
:1049300008120BE502459F12493B22124941A3A3ED
:1049400022F08A828B83A32212493BA32274F412A1
:104950000C2B74FF120BD6EAFEEBFF90FBAEE0705F
:104960002490FBB5E064017004D2918007E07004EC
:10497000A29150F5D291740190FBAEF07C607DEA7B
:1049800012480F806A740190FBADF07A087B001228
:1049900020378A088B0974018A828B83F07403A301
:1049A000F0EF8A828B83A3A3F0EE8A828B83A3A38A
:1049B0001249F4A3A3F074028A828B83A3A3A3A356
:1049C000A3F0122733D290791512273F7C087D007F
:1049D000AA08AB09790112247B790F12273FAA0894
:1049E000AB0912203DA290B3929074CC1236E974B8
:1049F000010236E1A3F0E48A82023B4B74F0120C10
:104A00002BE970057900023D8E8982AA828A087599
:104A1000090074077808120BC3F50AF50BEA75F064
:104A200072A4FAACF0E42C8A0CF50D3395E0F50E87
:104A3000F50F7808790C1209FDE5C6A2E0E492E0D2
:104A400078081209C585080C85090D850A0E850BA5
:104A50000F90FCD77808120A1090FC4B780C1201CA
:104A60006670E2809F74F2120C2BECFEEDFF890A57
:104A700090FBD012379F7A057B001220378A0C8B6F
:104A80000DA80CA90D88828983EEF0A3EFF088822F
:104A90008983A3A3E50AF088828983A3A3A3E4F012
:104AA000A3F0E5087002E509601AE87001E96014F6
:104AB00090FBD0E0FAA3E0F5838A82A3A3A3123D82
:104AC000B2123DAF7F06020CEFC082C08390FBCED6
:104AD0008001A3124417E87001E960178882898376
:104AE000E06A7003A3E06B88828983A3A370E3E08C
:104AF000F98002790002350274F3120C2B74F01263
:104B00000BD67508007F008F0C7408120C0C124E27
:104B10008F7004A3E064FF7035740A120C0CE0641B
:104B2000FF7004A3E064FF7025740C120C0CE064A9
:104B3000FF7004A3E064FF7015740E120C0CE064A7
:104B4000FF7004A3E064FF700575090180028F09FE
:104B5000E490F8F8F07E3C851082851183AC82AD3C
:104B6000837A007B00EEF9124E997004A3E064FF93
:104B7000701390F8F8E07004EEF0802F7A01EEF9EF
:104B80001220A380267402120C0CE064FF7004A3B0
:104B9000E064FF7004EEFF80127404120C0CE064F9
:104BA000FF7004A3E064FF60028E08AC0C7A007B07
:104BB00000EEF91220A9EA7001EB6008750C017E85
:104BC0003B024C4B851082851183AC82AD837AF811
:104BD0007B07EEF9121048E509605DE064FF7004A0
:104BE000A3E064FF70307402120C0CE064FF7004E8
:104BF000A3E064FF70207404120C0CE064FF7004E6
:104C0000A3E064FF70107406120C0CE064FF7004E3
:104C1000A3E064FF60357509027809120E20740163
:104C2000120C0CAC82AD837AF87B07793F125C855D
:104C3000120BE57509008013750A02780A120E201E
:104C40007409120C0C125C7B120BE50EEEC3943E41
:104C50005003024B57EF601690F8F8E060337A018A
:104C6000EFF91220A3E5086005A9081220B590F815
:104C7000F8E070117E3CEEF91220AF0EEEC3943EC8
:104C800040F412209D79017410120BE57F05020C8F
:104C9000EFE50860D0EFF080D0C082C08374F812D6
:104CA0000BD6851082851183E4F0A3F0EA600874C6
:104CB00002120C0CE480077402120C0C74FF124FE9
:104CC000287A007B001220D37408120BE5D083D021
:104CD0008202009A74F0120C2B74F6120BD6851017
:104CE00082851183EAF0A3EBF0890E8C0F750A0818
:104CF000750B007E007F0080267C01AA0AAB0BA901
:104D00000E1220C774082508F8E43509F9EE28FECC
:104D1000EF39FFE50A2508F50AE50B3509F50B74AF
:104D200002120C0CAC82AD83AA0AAB0BA90E124E78
:104D3000997004A3E064FF6043E50A2408F50AE5DE
:104D40000B3400F50B7404120C0C125095F508741A
:104D5000FF59F509E508250AF8E9350BF9C3E89488
:104D6000F9E994074030E42EF874083FF9E8C39558
:104D70000AFEE9950BFF750AF8750B07E50E124F51
:104D80000DE50AF0A3E50B124F11EEF0A3EFF07A58
:104D9000007B000254F37402120C0CE07002A3E0DA
:104DA0007003024D04851082851183E07002A3E038
:104DB000605D851082851183E0F8A3E0547FF9746B
:104DC00002120C0CE0687003A3E0696003024D134B
:104DD000851082851183A3E05480F9E47001E970A5
:104DE000157408120C0CE064FF7004A3E064FF600B
:104DF00003024D1380137408120C0CE064FF70045E
:104E0000A3E064FF7003024D13AA0AAB0B80847405
:104E100004120C0C12507AAA0AAB0BA90E1220CD68
:104E20008A0C8B0DA80CA90D7406120C0CE068708E
:104E300003A3E0696003024CF9E50F6038740812BF
:104E40000C0CE064FF7004A3E064FF6003024D13E8
:104E50007402120C0CE0FAA3E04480FB1220BBEABF
:104E60007001EB7003024D137C0190F8F9E0F91228
:104E700020C7024D137408120C0CE064FF7004A3E9
:104E8000E064FF7003024D137AFF7BFF024D93AC89
:104E900082AD837AF87B07793F121048E064FF22E5
:104EA00074F7120C2B74F8120BD6E9FE7904122356
:104EB0001FE97008740190F8FAF08046A2AFE492FE
:104EC000E0FAC2AFEEC333F5AD75AE010074806594
:104ED000AE60FAEAA2E092AF124F0C7408F0A3E4BD
:104EE000124F11124F277AF87B07793F121048753D
:104EF00008027808120E207401120C0C125C7B124E
:104F00000BE57408120BE57F01020CEFEE1250AEB8
:104F100022F0124F1622E8247CF582E934F8F5835A
:104F200022851082851183E4F0A3F085108285111B
:104F300083AC82AD832274F2120C2B74F6120BD662
:104F4000E9FE1250A6125CD0124F217A04FBEEF952
:104F50001220DF8510828511837408F0A3E40250CB
:104F6000037404120C0C125095F50C74FF59F50DD6
:104F70007402120C0CE07002A3E060797404120C4D
:104F80000C12507A1250801258357406120C0CE034
:104F9000687003A3E06970587C0012508C74021290
:104FA0000C0C85820A85830B780A120E1C7C087D06
:104FB00000AA08AB0990F8F8E0F91220E574021293
:104FC0000BE5125841780C120E1C7808120E1C903A
:104FD000F8F8E0FC7404120C0C1250861220EB74EA
:104FE00004120BE5E508250CF508E509350DF50972
:104FF0007C0112508C851082851183E0250CF0A372
:10500000E0350DF07402120C0CAC82AD83125080AE
:105010001210487402120C0CE064FF7004A3E064E8
:10502000FF602F851082851183E0240812567A854F
:105030001082851183C082C0837404120C0C125834
:1050400061D083D082E028F8A3E01251F650030229
:105050004F611250A6E508F0A3E509F0EEF9122021
:10506000AF7A0190F8F8E0F91220A3EE90F8F8F08A
:10507000740A120BE57F06020CEFE0FCA3E0FD22B0
:10508000851082851183125CB6EEF922125CB0EEB7
:10509000F91220C72212509922E02403F8A3E03429
:1050A00000F974FC582290F8F8E01250AE22C33395
:1050B000F8E433F9E82478F582E934F8F5832274CA
:1050C000F4120C2BEAFEEB800374804FFF75083C52
:1050D0007C00EEFAEFFBA9081220A9EA7001EB6050
:1050E00008E50890F8F9F0801A0508E508C3943E31
:1050F00040DE74805FF9E47001E960CDE490F8F976
:10510000F0FAFB7F04020CEF74F0120C2B89088A72
:105110000C8B0D7410120C0CE0F50EA3E0F50F745F
:10512000032CF8E43DF974FC58F8740828FAE439C3
:10513000FB750900750A0290F8F8E004FFEFC394CC
:105140003E40027F3C90F8F8E06F602D74C42FFE63
:105150001251E5C082C083E824F4F582E934F8F501
:1051600083125861D083D082E0C398F8A3E099F904
:10517000EA28F8EB1251F640070F150AE50A70BD50
:10518000E50A605CEE1251E5E02AF8A3E03BF9C3C2
:10519000E894F9E99407400590F8F8E0FFE508F590
:1051A000097809120E20850E0A850F0B780A120E57
:1051B0001CAA0CAB0DEFF91220F17403120BE5E9F8
:1051C000F50990F8F8E06F7017E5086009743C2E57
:1051D000F91220B5800A743C2E850E82850F83F06B
:1051E000A9090254F8C333F8E433F9E824F0F5824E
:1051F000E934F8F5832239F9C3E894F9E9940722F0
:1052000074F4120C2B74F8120BD68908ECFEEA2405
:10521000F8F50AEB34FFF50B851082851183AC821B
:10522000AD83AA0AFB121048EE70227406120C0C11
:10523000E4F0A3F07404120C0CAC82AD837404256A
:105240000AFAE4350BFBA9081220D3802A74021253
:105250000C0C125859FEE439FF124F21AA0AAB0B6D
:10526000A9081220D3E508C333F8E433F9124F1626
:10527000E02EF0A3E03FF07408120BE50251037436
:10528000F0120C2B74FC120BD689088A0A8B0BECDB
:10529000FEEDFF750E00750F0074032EF50CE43F54
:1052A000F50D7402780C120BB4AE0CAF0D80318585
:1052B0001082851183AC82AD83AA0AAB0BA90812B8
:1052C000104412564E7A008A0C1254FDE0F8E50E96
:1052D00028F50EE50F3400F50F0AEAC3940440E701
:1052E000EEF8EFF974FF281E74FF39FFE87001E94A
:1052F00070BDAA0EAB0F74040254F574F4120C2B9B
:105300008A0A8B0BECFEEDFF7402780A120BB4894B
:1053100008F50974097808120BC3250AE509350B4D
:10532000F50B790412231FE9600FAC0AAD0BEEFAFE
:10533000EFFB79011210B48006740190F8FAF002C4
:10534000510374F2120C2B8A0C8B0DECFEEDFF74E2
:105350000E120C0CE0F50A7402780C120BB48908DA
:10536000F50974097808120BC3250CE509350DF50C
:105370000D790412231FE9600FAC0CAD0DEEFAEFAE
:10538000FBA90A1210B48006740190F8FAF00250DA
:105390007574F7120C2B74FC120BD68C828D83E083
:1053A000851082851183F08C828D83A3E0C0E07428
:1053B00001120C0CD0E0F07402120C0C74FFF074AB
:1053C00003120C0C74FF124F2A1220D37404024FE4
:1053D0000474F0120C2B74FC120BD6890A8A088B09
:1053E00009ECFEEDFF7414120C0CE0F50EA3E0F5D1
:1053F0000FEA5403F50B606074FC5508F50885103E
:1054000082851183AC82AD83FA121044801E850E12
:1054100082850F83E0C0E0850B0C1254FDD0E012B2
:105420005510050BEE24FF1EEF34FFFFE50BC39470
:10543000045006EE7001EF70D5851082851183ACA3
:1054400082AD83AA08AB09A90A1220D3E508240477
:10545000F508E5093400F509EE5403F50B8E0C8FC1
:105460000D7402780C120BB4E50C7002E50D60347B
:10547000780C120E20AC0EAD0FAA08AB09A90A12C7
:105480005C85120BE57402780C120BC3A80CA90DF5
:10549000E50828F508E50939F509E50E28F50EE5D2
:1054A0000F39F50FE50B60487E008510828511836A
:1054B000AC82AD83AA08AB09A90A121044801485F6
:1054C0000E82850F83E0C0E08E0C1254FDD0E012F6
:1054D00055100EAA0B74FF2AF50BEA70E2851082B4
:1054E000851183AC82AD83AA08AB09A90A1220D327
:1054F0000252F6740A120BE57F08020CEF85108247
:10550000851183E582250CF582E5833400F583223D
:10551000F0850E82850F83A385820E85830F22740A
:10552000F1120C2B74FA120BD6851082851183EAC6
:10553000F0A3EBF0890E8C097415120C0C125CC8E8
:105540007417120C0CE0FEA3E0FFE50A5403F50803
:10555000604DF50CC3E50A950CF50AE50B9400F5D2
:105560000B7402120C0CAC82AD83AA0AAB0BA90916
:10557000121044801585080C7402120C0C12565B34
:105580000508EE24FF1EEF34FFFFE508C394045026
:1055900006EE7001EF70DE7402120C0C12563DEE36
:1055A0005403F5088E0C8F0D7402780C120BB4AEF8
:1055B0000CAF0D802B7402120C0CAC82AD838510E5
:1055C0008285118312591FA90E12104485108285FD
:1055D0001183E0240412567A7402120C0C12563D08
:1055E000EEF8EFF974FF281E74FF39FFE87001E947
:1055F00070C3E508603D7E007402120C0CAC82ADF5
:1056000083AA0AAB0BA909121044800B8E0C7402FA
:10561000120C0C12565B0EAA0874FF2AF508EA70E9
:10562000EB7402120C0CAC82AD83AA0AAB0BA90975
:105630001220D37406120BE57F07020CEFAC82AD8B
:1056400083AA0AAB0BA9091220D312564E22E50AEF
:105650002404F50AE50B3400F50B22E582250CFC49
:10566000E5833400FD125CB0A90E12104085108253
:10567000851183E0240112567A22F0A3E03400F071
:105680002274F0120C2B74F6120BD6E9FE8A0E8BE4
:105690000F8C0C8D0D741C120C0CE0F50A124F0CC3
:1056A000125CD07F0090F8F8E06E70077A00EEF997
:1056B0001220A37402120C0CE50EF0A3E50FF07497
:1056C00004120C0CE50CF0A3E50DF07402120C0CA6
:1056D000AC82AD83AA08AB09EEF91220D374021292
:1056E0000C0CAC82AD83AA08AB09EEF9121048E0AD
:1056F000650E7004A3E0650F600302581A7404126B
:105700000C0CE0650C7004A3E0650D600302581AF0
:10571000E50A7003025818741A120C0C12586188AA
:10572000828983A80CA90DE85403F50AE58270026A
:10573000E5837015E875F0FFA4F8AAF075F0FFE9AD
:10574000A42AF9E8FAE9FB80227A007B00800AE0CB
:10575000FCEA2CFAEB3400FBA3E8FCE9FD74FF2C17
:105760001874FF3DF9EC7001ED70E4E50A601F74F8
:1057700004C3950AF8E49400F9E875F0FFA4F8ACC6
:10578000F075F0FFE9A42CF9EA28FAEB39FB851053
:1057900082851183EAF0A3EBF0125841741A120CBF
:1057A0000CE07002A3E0601A741A120C0C120E3393
:1057B000AC0CAD0DAA08AB09EEF91220E57402128B
:1057C0000BE5AC0CAD0DAA08AB09EEF91258358506
:1057D0001082851183E0687003A3E069703C851036
:1057E00082851183AC82AD8374FC12584E1220DF87
:1057F0007402120C0CAC82AD8374F812584E121065
:10580000488510828511831258617406120C0CE0D1
:10581000687003A3E0697002EEFF7404120C0C12AE
:105820005859FAE439FB124F0CE02AF0A3E03BF0A0
:10583000EFF90254F31220CD8A0A8B0BA80AA90BA8
:1058400022E5082408F508E5093400F509222508B1
:10585000FA74FF3509FBEEF922125099F874082802
:1058600022E0F8A3E0F922C082C08375AB2A12209F
:105870009D024CCD74F2120C2BEAFEEBFF8C088DCE
:1058800009740E120C0C125CC8E490F8FAF0740162
:105890006E7001EF60091220BBEA7001EB600479C1
:1058A000008025780A120E1CAC08AD09EEFAEFFB59
:1058B00079011220C17402120BE5E9600990F8FA2F
:1058C000E0600812209D7910025075790F80F974FC
:1058D000F6120C2B74F8120BD674016A7001EB707F
:1058E000067A087B00802E125C6E7001E970047AE3
:1058F0000080F0851082851183AC82AD8374F82816
:10590000FA74FF39FB90F8F9E0F9121048740212AA
:105910000C0C12591F7408120BE57F02020CEF12D7
:105920005CB62274F1120C2B74F1120BD6740112B6
:105930000C0CEAF0A3EBF08C0C8D0D750E00E490CE
:10594000F8FAF07401120C0CE064017002A3E0702C
:10595000717407120C0C124E8F7004A3E064FF7078
:105960005C7409120C0CE064FF7004A3E064FF7027
:105970004C740B120C0CE064FF7004A3E064FF7025
:105980003C740D120C0CE064FF7004A3E064FF7023
:105990002C7508027808120E207421120C0C12507B
:1059A0007A7AF87B07793F125C85120BE590F8FA5A
:1059B000E060047A1080027A00EAF980027910022D
:1059C0005C5E741E120C0CE07002A3E07003025CBB
:1059D0005C7401120C0C12591F125C6EFEE9FF740C
:1059E00005120C0CE8F0A3E9F0EE7001EF700579F8
:1059F0000F025C5E7407120C0CAC82AD8374F82E3F
:105A0000FA74FF3FFB90F8F9E0F91210487409129C
:105A10000C0CC082C083741E120C0C125C9DD083CF
:105A2000D082C3E098A3E09950057910025C5E1221
:105A30005C63120C0C125CD0741E120C0C125CC84D
:105A40008017E50A24FFF50AE50B34FFF50BE50A9C
:105A50007002E50B7003025C50851082851183ACE7
:105A600082AD83EEFAEFFB90F8F9E0F9121040EE08
:105A700024010EEF3400FFA808A90988828983A3B6
:105A8000858208858309851082851183E0FA8882E2
:105A90008983E06A60AC85108285118385820885E0
:105AA00083097808120E1C740B120C0C12507A74B5
:105AB00003120C0C12591F79001220C17402120B30
:105AC000E5E9F5087003025C4D7409120C0C1250E4
:105AD00095F87403120C0CE8F0A3E9F0E508C33361
:105AE000F8E433F9E82478F8E934F8F97401120C91
:105AF0000CE8F0A3E9F07401120C0C125C94C08263
:105B0000C0837403120C0C125861D083D082125CD3
:105B10008B90F8F9E0F5097C007405120C0C125C0E
:105B2000A7780C120E1C8E0A8F0B780A120E1CAC72
:105B3000087409120C0C12591FA9091220EB7404E5
:105B4000120BE5125C63120C0C120E337420120C53
:105B50000C125CBC1220E57402120BE57409120CE5
:105B60000CE0C3950CFAA3E0950DFB741E120C0C0F
:105B7000125861EAC398F50AEB99F50B780A120EF0
:105B80001C7420120C0CE02EF50AA3E03FF50B78F4
:105B90000A120E1CAC087409120C0C125C9D7422C3
:105BA000120C0CE028FAA3E039FBA9091220EB74CF
:105BB00004120BE57401120C0C125C94C082C083B9
:105BC0007403120C0C125861D083D082125C8B7457
:105BD00009120C0C125CBC1220CD7403120C0CEADE
:105BE000F0A3EBF0EE24F8FEEF34FFFF7403120C89
:105BF0000CAC82AD8374042EFAE43FFBA90812209A
:105C0000DF7407120C0CAC82AD83EEFAEFFBA9082F
:105C10001210487403120C0C125861740B120C0C05
:105C2000E0687003A3E069700C7C017405120C0C31
:105C3000125CA78003750E1090F8F8E065087010EC
:105C4000851082851183E0F91220B58003750E104E
:105C500090F8FAE0600612209D750E10A90E740FE0
:105C6000025635EE250CFEEF350DFF742022122072
:105C7000BB8A088B09A808A909E822AC82AD837AFF
:105C8000F87B07EEF91220D9740122E0C398FEA335
:105C9000E099FF22E0F8A3E0F583888222E0250C5A
:105CA000F8A3E0350DF922125CB6A9091220C7222B
:105CB000851082851183E0FAA3E0FB22E0FCA3E0DB
:105CC000FDEEFAEFFBA90822E0F50AA3E0F50B22AE
:105CD000E0F508A3E0F5092274F2120C2BECFEEDBE
:105CE000FF740E120C0C125CC87410120C0C125CB7
:105CF000D074016A7001EB702B7AF87B07743F90C7
