:020000040000FA
:030000000200D229
:03002B00020C9331
:03003300020C6D4F
:03004B00020CAAFA
:03005300020CD1CB
:03005B00020CB9DB
:03006300020CC5C7
:03006B00020C2A5A
:03007B00020C4034
:10008300020D0AC4F5F0E5C75430C4C0E0E5C75417
:10009300CF45F0F5C7E47385C7F053F0CFD0E0C484
:1000A30045F0F5C722D083D082E5C7C45403C0E02E
:1000B300E493C0E0740193C0E0740293C45430F538
:1000C300F0E5C754CF45F0F5C72200000080FB756B
:1000D300D0007581407510087511E3000200E2122B
:1000E3000163B9000302014DE490E30878647917D2
:1000F3008002F0A3D8FCD9FA90F96BAA82AB839063
:10010300214178E379018015E493A3AC82AD838A1E
:10011300828B83F0A3AA82AB838C828D83D8E9D9A7
:10012300E790E308AA82AB839021417801790180AB
:1001330015E493A3AC82AD838A828B83F0A3AA8256
:10014300AB838C828D83D8E9D9E775823075830AB6
:1001530074001200867582CD7583007400120086C8
:10016300790122E066701008A3E066700A08A3E034
:1001730066700408A3E06622C3E7960809E79608B9
:1001830009E7960809E796A2D265D03322C3E09621
:1001930008A3E09608A3E09608A3E096A2D265D050
:1001A3003322C3E7960809E7960809E7960809E7A3
:1001B3009622C3E09608A3E09608A3E09608A3E07E
:1001C3009622BB0102E722C082C08389828A83BB55
:1001D3000003E08002E493D083D08222080808EA77
:1001E300C0E0EBC0E086F0E7A4FA180986F0E7A4C4
:1001F3002AFA180986F0E7A42AFA180986F0E7A470
:100203002AFA1986F0E7A4FBE5F02AFA190886F022
:10021300E7A42BFBE5F03AFA190886F0E7A42BFBD9
:10022300E5F03AFA18180986F0E7A4C5F02BFBE4C9
:100233003AFA1908E7C5F0C6A426F6E5F03BFBE455
:100243003AFA1886F0E7A4F6E5F00826F6E43B0848
:10025300F6E43A08F6D0E0FBD0E0FA22E4CFC0E0BF
:10026300E4CEC0E0E4CDC0E0E4CCC0E075F020C350
:10027300E633F608E633F608E633F608E633F6180F
:100283001818EC33FCED33FDEE33FEEF33FFC3EC14
:100293009709ED9709EE9709EF97191919400FFF81
:1002A300EC97FC09ED97FD09EE97FE191906D5F0B9
:1002B300BEECF709EDF709EEF709EFF7191919D0B5
:1002C300E0FCD0E0FDD0E0FED0E0FF22E4C396F6F0
:1002D30008E496F608E496F608E496F622C6F4C611
:1002E30008C6F4C608C6F4C608C6F4C622601608D3
:1002F3000808C6C313C618C613C618C613C618C63D
:1003030013C6D5E0EA2270090808082260161818F7
:1003130018C6C333C608C633C608C633C608C633B1
:10032300C6D5E0EA22E627F60809E637F60809E625
:1003330037F60809E637F622E026F608A3E036F694
:1003430008A3E036F608A3E036F622E026F008A379
:10035300E036F008A3E036F008A3E036F022C3E06D
:1003630096F008A3E096F008A3E096F008A3E096C1
:10037300F022E056F608A3E056F608A3E056F60886
:10038300A3E056F622E056F008A3E056F008A3E0F7
:1003930056F008A3E056F022E046F008A3E046F04A
:1003A30008A3E046F008A3E046F022E0F608A3E045
:1003B300F608A3E0F608A3E0F622E493F608740136
:1003C30093F608740293F608740393F622E6F00892
:1003D300A3E6F008A3E6F008A3E6F022CAC0E0E62D
:1003E300F0A308DAFAD0E0FA22CAC0E0E0A3C5829B
:1003F300CCC582C583CDC583F0A3C582CCC582C5D8
:1004030083CDC583DAE6D0E0CA22CAC0E0E493A371
:10041300C582CCC582C583CDC583F0A3C582CCC5B7
:1004230082C583CDC583DAE5D0E0CA22C3E498F858
:10043300E499F91204708026C3E49AFAE49BFBE979
:1004430020E7E9120470E498F8E499F922C3E498E8
:10045300F8E499F9120470E498F8E499F9C3E49A7A
:10046300FAE49BFB22EB20E7CFE920E7E0B9001099
:10047300BB0008E88AF084F8AAF022E4FBC8FA2259
:10048300EB70227B10C833C8C933C9335007C39AF2
:10049300C3DBF280069A50012ADBEAC833F4C8C9E9
:1004A30033F4C9FA2275F008E4C833C8C933C93331
:1004B300C99AC99B5004C92AC93BD5F0ECFBC83380
:1004C300F4C8E4C9FA22600D08C6A2E713C618C629
:1004D30013C6D5E0F322600C08C6C313C618C613AF
:1004E300C6D5E0F422700422600D18C6C333C608D3
:1004F300C633C6D5E0F418222510C0A8C2AF400207
:100503001511F510D0A822C0D02510C0A8C2AF5035
:10051300020511F510D0A8D0D0222510F582C0A86D
:10052300C2AF40021511F510D0A885118322251002
:10053300F582E43511F58322E473C0E0E8C0E0E519
:100543008124FCF8E6A2E7D0E0F8D0E0222510C52C
:1005530082C0E0E51134FFC583C0E0E510C3958296
:1005630024F8C0A8C2AF858311858210D0A8CEF02D
:10057300A3E520F0A37808E608F0A3DEFAEFF0A3E2
:10058300E58124FAF8E608F0A3E608F0A3E608F00C
:10059300A30808E608F0A3E608F0A315811581D0A7
:1005A300E0FED0E0F8158115811581E8C0E0EEC0CA
:1005B300E0222510C582C0E0E51134FFC583C0E009
:1005C300E510C3958224F9C0A8C2AF858311858243
:1005D30010D0A8CEF0A3E520F0A37808E608F0A396
:1005E300DEFAEFF0A3E58124FBF8E608F0A3E608C2
:1005F300F0A30808E608F0A3E608F0A31581158127
:10060300D0E0FED0E0F815811581E8C0E0EEC0E04F
:1006130022851183851082E0A3FEE0A3F5207808EC
:10062300E0A3F608DFFAE0A3FFE0A3C0E0E0A3C085
:10063300E0E0A3C0E0E0A3C0E0E0A3C0E085A8F051
:10064300C2AF85821085831185F0A8D083D0820242
:10065300009A851183851082E0A3FEE0A3F520783C
:1006630008E0A3F608DFFAE0A3FFE0A3C0E0E0A3FD
:10067300C0E0E0A3C0E0E0A3C0E085A8F0C2AF857E
:10068300821085831185F0A8D083D08222C0D02523
:1006930010C582C0E0E51134FFC583C0E0E510C397
:1006A300958224F3C0A8C2AF858311858210D0A898
:1006B300C8F0A3E9F0A3EAF0A3EBF0A37908E709F4
:1006C300F0A3D8FAECF0A3EDF0A3EEF0A3EFF0A3C0
:1006D300D0E0F0A3D0E0F0A3D0E0F0A3E520F0A3B6
:1006E300E5F0F0A322851183851082E0C0E0A3E04A
:1006F300F9A3E0FAA3E0FBA37808E0F608A3DFFA86
:10070300E0FCA3E0FDA3E0FEA3E0FFA3E0C0E0A3C1
:10071300E0C0E0A3E0F5D0A3E0F520A3E0A3F5F06B
:10072300E5A8C2AF858210858311F5A8D082D08356
:10073300D0E0F8D0E0327404800A740380067402B7
:1007430080027401C0E0F40412051DD0E01203DF3F
:10075300227404800474028000CCC0E0EDC0E0E5A4
:1007630010C39CCCAD1150011DC0A8C2AF8C108D1D
:1007730011D0A81203ECD0E0FDD0E0FC22D083D04E
:1007830082C5F0E493A3C5F0C395F0F5F0E493A319
:10079300C395F04005E5F0048001E475F002A4255B
:1007A30082F582E5F03583F583E493A3C0E0E49317
:1007B300C0E022D083D082E9C0E0E493A3C386F0F3
:1007C300C5F095F0F908E493A386F0C5F095F070B1
:1007D3000BE493A3C3994005E9048002A3E475F0F5
:1007E30002A42582F582E5F03583F583D0E0F9E4B0
:1007F30093A3C0E0E493C0E022D083D082CCC0E0D6
:10080300E493A360061208261470FAE493A3600627
:100813001208451470FAD0E0FCE493A3C0E0E4931B
:10082300C0E022C0E0E493A3D39C5010E493A3C39D
:100833009C400AD0E0D0E0D0E0020819A3A3A3D0E3
:10084300E022C0E0E493A36C7009D0E0D0E0D0E0F4
:10085300020819A3A3D0E022D083D082ECC0E0ED3C
:10086300C0E0E493A3FCE493A3FDED4C600D1208F8
:10087300A7EC24FFFCED34FFFD80EFE493A3FCE43D
:1008830093A3FDED4C600D1208E6EC24FFFCED3460
:10089300FFFD80EFD0E0FDD0E0FCE493A3C0E0E4F3
:1008A30093C0E022C0E0C3E49396087401939618C2
:1008B300400FE49366700808740193661870007023
:1008C30019A3A3C3E49396087401939618A3A340B2
:1008D3000DD0E0D0E0D0E0020897A3A3A3A3A3A385
:1008E300D0E022C0E0C0F088F0E49366700808749A
:1008F300019366187000A8F0A3A3700BD0F0D0E0AA
:10090300D0E0D0E0020897A3A3D0F0D0E022EC23FC
:10091300F5F0EB54802345F0C4F5F064207004EB4C
:100923004480FBE5C7FC54CF45F0F5C7E48B838ACD
:100933008293F98CC7227800800A780180067804B4
:1009430080027808C083C082C085C084C09F759F21
:1009530003C3E9943075F008A444804BF5858A8479
:10096300E87013851082851183E0700104F8A3E019
:10097300700104F9800279018C828D8310AF1175A7
:100983009201E493A3759200F0A3D8F3D9F18013F5
:10099300C2AF759201E493A3759200D2AFF0A3D8CE
:1009A300EFD9EDD09FD084D085D082D08322C0836D
:1009B300C082C085C084C0C77583F47582D7C083E5
:1009C300C08275850A75841A75F016780110AF0216
:1009D3007800759201E0A3759200F0A3D5F0F3E8D7
:1009E3006002D2AFD082D0838B858A84780110AF26
:1009F3000278008DAD8CAC75C751120A1875920040
:100A0300E5AE20E7FBE86002D2AFD0C7D084D08543
:100A1300D082D08322E47375920175AE027A04E02A
:100A2300F5AFA3DAFAE5AE20E6FBD9F12279FF129E
:100A33001A5D53BEFBE5BEA2E650FA0078F87901D1
:100A430000E824FF18E934FFF9E87001E970F17553
:100A5300C600E5C670FC43BE0443FE0143FE0843E3
:100A63008F20120ADF78108682088683800374CD74
:100A7300F0120AD2C37408958274E0958340EF752F
:100A830082FF7583008004A88276CDE581F5081284
:100A93000AD2750900C3E5089582E4958340E87995
:100AA30000121B59121DCF7A007B00121AE1120BA0
:100AB3003E121D93120D6E1218C5121A6379FF129E
:100AC3001A577902121B59121A697A007B0022E520
:100AD3008224FFF582E58334FFF5832274F812053F
:100AE300B57E007F007904121DB1E960190E7A10FA
:100AF3007B27121B77EE601EC3940340E8D290D28B
:100B0300937F010206557E007A507BC3121B777ACE
:100B1300507BC3121B77EF70047A0180027A00EADC
:100B2300FF600CA2905004C29080BAD29080B6A20B
:100B3300935004C29380AED29380AA74F71205B582
:100B430075080075090078081207417C087D007A52
:100B5300017B00121AE7740212050A750810750961
:100B6300F578081207417508087509007808120717
:100B7300417C007D007A017B00121AF9740412058E
:100B83000A781079F57C00E8FAE9FB8A828B83A363
:100B9300A882A9838A828B83E064FF6003020C2509
:100BA3000CECC3940840E07B10781079F57A08EBDD
:100BB30088828983F00BA3A882A9831AEA70F0754F
:100BC300080080187A247BF4121B77630801AA08B3
:100BD3007901121E117A247BF4121B77121DEDE9A1
:100BE300640470E07A007901121E117A0279071207
:100BF3001DABEA90F510F0EB90F511F07508107548
:100C030009F5780812074175080875090078081274
:100C130007417C007D007A017B00121AF3740412F1
:100C2300050A7F02020655C0E074F2120690120C08
:100C3300884005758922C2C57F010206E8C0E074B9
:100C4300F2120690C2AFE58AA2E25008538AFBA2D1
:100C5300A0B392A0C2EBD2AF7C197D007A087B00CF
:100C630090F5FAE0F9121B2380CEC0E074F212066D
:100C73009090DF60E0C394045002C2E8120C8840F5
:100C830002C2E880B3121DFF90DF60E0C394042228
:100C9300C0E0C0D0C082C083C2C790DF60E0D08311
:100CA300D082D0D0D0E032C0E074F2120690121E8F
:100CB300717F010206E8C0E074F2120690121E77FB
:100CC30080EFC0E074F2120690121E7D80E3C0E054
:100CD30074F2120690E59EFAE5C35A542060051299
:100CE3001ED7801EE5C35A5440601790DF07E0FA11
:100CF30090F66FE0C39AA2D265D0335002EAF07542
:100D0300C3A37F010206E8C0E074F2120690E591E6
:100D1300FAA2E0C0D0E5E9A2E092F012053D158108
:100D230082F0500875E9FE121F138037E5E95A5423
:100D330002600875E9FD121F198028E5E95A54403D
:100D4300600CC2AF5391BFD2AF12202D8015E5E9DD
:100D53005A5420600E12200375E9DF90DF62E0A28F
:100D6300E240F2759B0075E9FF809774F81205B5B0
:100D730012183512176F1216617901120D96E9FEDA
:100D830079FF121A5DEEF98005740112050A7F01DD
:100D930002065574F81205B574FF1204FB12182FDE
:100DA300E9FEE4851082851183F0AA82AB8379562C
:100DB30012184D7A107BF579E212184D90F969E01B
:100DC3007002A3E0601290F969E0FAA3E0FB121A43
:100DD3008190F969E4F0A3F0EEF980ADC082C0839D
:100DE30074E269700B7C107DF51219FD79008003A4
:100DF300121847020F8F74F81205B58908EAFEEB43
:100E0300FF74E26508700BEEFCEFFD7A107BF512C0
:100E130019FDEEFAEFFBA90812184D020D91F582A8
:100E2300EB120E4C22C082C083120E4212166702CE
:100E33000F8DC082C083120E4212166D020F8DEA0F
:100E43002413F582EB120E4C223400F583E4F022D6
:100E530074F51205B5EAFEEBFF8E828F83780812D4
:100E630003AE90F96578081203D090F969E0700237
:100E7300A3E0600579FC020F518E828F83A3A3A3A5
:100E8300A3E064037003020F348E828F83A3A3A3B2
:100E9300A3E070477A1B7B00121A7B8A088B09A890
:100EA30008A90990F969E8F0A3E9F0E87001E9708D
:100EB30005791A020F517C1B7D007900121A0390E9
:100EC300F969E0240BF8A3E03400F9EE2413F5826A
:100ED300EF121046E8F0A3E9F080568E828F83A3C9
:100EE300A3A3A3A3A3A3E06048EE2413F508EF3460
:100EF30000F5098E828F83A3A3A3A3A3A3A3E07505
:100F0300F021A4FAABF0121A7B850882850983EAE3
:100F1300F0A3EBF0850882850983E0F8A3E0F9905C
:100F2300F969E8F0A3E9F090F969E07002A3E060E1
:100F330080EE2410F582EF120E248E828F83A3A3FA
:100F4300A3A3A3A3F0EEFAEFFB12188F79007F049B
:100F530002065574F81205B574FF1204FBEAFEEBA2
:100F6300FF7401851082851183F0AA82AB837952C5
:100F730012184DEE2415F582EF120E24EE242012E2
:100F8300104B1216737900020D8C7900D083D08236
:100F93002274F31205B58A0C8B0D7B007A00E50CE5
:100FA300241BF582E50D121046E0F91216EB8A08B0
:100FB3008B09AE08AF09EE7001EF607D850C0885E3
:100FC3000D09750A00780812073D7C107D00EE2498
:100FD30022FAEF3400FB1219F7740312050AE50C29
:100FE300241BF8E50D3400F9E8FAE9FB8A828B83C8
:100FF300E08E828F83A3A3A3A3F0E50C241CF582C8
:10100300E50D121046E0F508A3E0F509780812078C
:101013003D8A828B83E0FC7D008E828F83A3A3E0D5
:10102300FAA3E0FB1219F7740312050AEE241F1248
:10103300104B1216E579008002791A7F06020655D5
:10104300F582EB3400F58322F582EF120E4CEEFAB3
:10105300EFFB2274F51205B58A088B09ECFEEDFF50
:101063007B007A0079001216EBEA7001EB603AEA32
:10107300242D1210AF2422121043E508F0A3E50932
:10108300F0EA242A1210AF242B121043EEF0A3EF40
:10109300F0EA242E120E21EA242F1210437431F0A9
:1010A300EA241F120E211216E5020F51F582EB34CA
:1010B30000F5837402F0EA221200A8E9F802120094
:1010C300A808F9021200A8AEF9021200A8E4F90276
:1010D3001200A8D7E7011200A883EA011200A8A40E
:1010E300EA011200A821EB011200A8E6EB011200AD
:1010F300A8EEEB011200A815EC011200A81EEC01EA
:101103001200A821EC011200A84FEC011200A8B9AB
:10111300EC011200A852EE011200A810EF01120018
:10112300A852EF011200A833F0011200A836F00113
:101133001200A854F0011200A803F2011200A864DF
:10114300F2011200A8E4F2011200A8E288031200DF
:10115300A82089031200A82689021200A858890230
:101163001200A87F89021200A8C089021200A8D227
:1011730089021200A8038A021200A8748A021200CC
:10118300A8108B021200A8C58B021200A8148C02AF
:101193001200A8578C021200A87D8C021200A8BA74
:1011A3008C021200A8038D021200A8228D021200E5
:1011B300A84D8D021200A8918D021200A8B48D02D1
:1011C3001200A8108E021200A8058F021200A8AD0B
:1011D3008F021200A83890021200A878AF02120002
:1011E300A89AAF021200A8E8AF021200A828B00222
:1011F3001200A85CB1021200A8C0B1021200A8CF6D
:10120300B1021200A8DAB1021200A89EB2021200C3
:10121300A828B3021200A82AB4021200A832B4020A
:101223001200A8DFB4021200A80FB5021200A8260C
:10123300B5021200A8FAB5021200A807CE021200E6
:10124300A82BCE021200A874CE021200A827CF0248
:101253001200A842D0021200A854D0021200A8EE35
:10126300D0021200A809D1021200A87FD1021200F5
:10127300A869FC011200A8ADFD011200A878FF01C6
:101283001200A881FF011200A88AFF011200A8938F
:10129300FF011200A89CFF011200A8A5FF01120084
:1012A300A8B3FF011200A8BCFF011200A8C5FF01EB
:1012B3001200A8CEFF011200A8EDFF011200A8A49E
:1012C300E4021200A848E5021200A893E502120006
:1012D300A801E6021200A81EE6021200A84FE602C9
:1012E3001200A897E6021200A88CE7021200A8DDFC
:1012F300D2021200A8FBD4021200A847D6021200A1
:10130300A8FDD6021200A8A744011200A8D84401E0
:101313001200A84E47011200A8E847011200A8F6E0
:1013230047011200A83148011200A82C49011200FC
:10133300A8564B011200A84651011200A8A653015A
:101343001200A86C54011200A8D455011200A8D5AC
:1013530056011200A8D559011200A88B5B01120097
:10136300A8E35B011200A8C35C011200A86E5D0133
:101373001200A8315E011200A83AA8021200A84880
:10138300A8021200A871A8021200A893A8021200D2
:10139300A812AB021200A858AB021200A8C6AB02F7
:1013A3001200A89DAC021200A8D2AC021200A82918
:1013B300AD021200A85DAD021200A8A7AD02120093
:1013C300A8F7AD021200A803AE021200A85BAE029A
:1013D3001200A893AE021200A8A578011200A81962
:1013E30079011200A8D77A011200A86E7B011200BE
:1013F300A8E77C011200A8B87E011200A8407F0173
:101403001200A82D80011200A8B080011200A801CB
:1014130081011200A88682011200A896820112009F
:10142300A8A382011200A8C782011200A8CF8201DB
:101433001200A8ED82011200A8F784011200A87817
:1014430085011200A8C985011200A80D86011200AA
:10145300A81686011200A86586011200A8CC860191
:101463001200A8E287011200A83E88011200A80317
:1014730089011200A89589011200A8928A0112001D
:10148300A8628B011200A8D48C011200A8CC8D0194
:101493001200A8828E011200A81D8F011200A82B32
:1014A3008F011200A84F8F011200A8788F0112003C
:1014B300A8848F011200A8908F011200A8AE8F019B
:1014C3001200A8F28F011200A85290011200A889FD
:1014D30090011200A8CC90011200A800290112006B
:1014E300A88A29011200A8512A011200A80A2B0177
:1014F3001200A8BE2B011200A87C2D011200A872B5
:101503002E011200A8692F011200A80C300112004D
:10151300A83330011200A8E530011200A82F3101D1
:101523001200A8C231011200A86132011200A8837F
:1015330032011200A85B33011200A8073501120023
:10154300A85F35011200A8B035011200A8B4360116
:101553001200A8F636011200A83B37011200A89921
:1015630037011200A8E938011200A8353901120029
:10157300A89C3A011200A8243D011200A84C3D0189
:101583001200A88E3F011200A8E53F011200A87ABD
:1015930040011200A8CD40011200A8004101120031
:1015A300A82A41011200A81542011200A88D420188
:1015B3001200A8EA43011200A81A44011200A8AEBF
:1015C30097031200A8D697031200A852970312009C
:1015D300A89D97031200A89DC2011200A8D0C201C2
:1015E3001200A899C3011200A89AC4011200A8B856
:1015F300C5011200A858C7011200A8D3C7011200E1
:10160300A87FC8011200A898C9011200A803CA0143
:101613001200A84ACA011200A8A1CA011200A8AB6D
:10162300CA011200A804CB011200A86ECB0112005C
:10163300A804CC011200A888CC011200A87ECD0119
:101643001200A804CE011200A830CE011200A86433
:10165300CE011200A895CE011200A84BCF011200B3
:10166300A864CF011200A8BACF011200A8DDCF01F0
:101673001200A8E9CF011200A81299021200A8577C
:1016830099021200A8BE99021200A80F9A02120032
:10169300A8489A021200A8699A021200A8739A0233
:1016A3001200A88B9B021200A8B09B021200A83262
:1016B3009C021200A8459C021200A8579C0212002B
:1016C300A8F99C021200A8EE9D021200A8FA9E023D
:1016D3001200A88C9F021200A8969F021200A80075
:1016E300A0021200A811A0021200A85AA002120020
:1016F300A8A4B6021200A8D4B6021200A804B70226
:101703001200A833B7021200A86CB7021200A8CBCC
:10171300B7021200A8E6B8021200A830B9021200FC
:10172300A85FB9021200A8CFB9021200A8F7B90244
:101733001200A823BA021200A831BA021200A89F0D
:10174300BA021200A8DEBA021200A820BB021200DD
:10175300A85DBB021200A880BB021200A88BBB02CB
:101763001200A8A9BB021200A887BC021200A89A03
:10177300BC021200A84ADC021200A887DC02120095
:10178300A89DDC021200A8AFDD021200A8C6DD028C
:101793001200A8DADD021200A874DE021200A8C942
:1017A300DE021200A891DF021200A89DDF021200E0
:1017B300A807DC011200A83CDC011200A856DC01DA
:1017C3001200A8C3DC011200A865DD011200A8A95C
:1017D300DD011200A8FDDF011200A880E001120064
:1017E300A820E1011200A87DE3011200A88CE30107
:1017F3001200A88FE3011200A897E3011200A8B416
:10180300E3011200A8C6E3011200A8F8E3011200E5
:10181300A8BDE4011200A82EE5011200A899E50174
:101823001200A83BE6011200A8F9E6011200A8275E
:10183300E7011200A8C6E7011200A865FB02120027
:10184300A88CFB021200A8B3FB021200A823FC021F
:101853001200A82199031200A83199031200A88B42
:10186300C8021200A810C9021200A80FCA0212006F
:10187300A8F9CA021200A893CB021200A8D0CC0286
:101883001200A88ACD021200A8CACD021200A8FC39
:10189300CD021200A8C8E0021200A8A4E1021200BF
:1018A300A807E2021200A8A2E2021200A862E30261
:1018B3001200A8DBE3021200A816E4021200A85BE0
:1018C300E4021200A80080021200A80E8002120097
:1018D300A88380021200A89E80021200A8ED800255
:1018E3001200A8FD82021200A8C084021200A88D73
:1018F30087021200A8C487021200A8DE8702120022
:10190300A85088021200A88488021200A8B3880293
:101913001200A8FF88021200A8F7B2011200A80F54
:10192300B3011200A827B3011200A86BB301120080
:10193300A8E7B3011200A84CB4011200A8CAB4016D
:101943001200A874B5011200A8D7B6011200A83D71
:10195300B7011200A87EB7011200A80EB801120049
:10196300A8D3B9011200A8D6BA011200A8DFBF019B
:101973001200A853C0011200A83AC1011200A858CE
:10198300C1011200A87FC1011200A897C101120072
:10199300A8C3C1011200A8EBC1011200A83EC201F5
:1019A3001200A8F5CF011200A858D5011200A873A0
:1019B300D5011200A89BD5011200A895D6011200EB
:1019C300A84CD7011200A8B8D7011200A8F1D8017A
:1019D3001200A86DD9011200A885DA011200A81B14
:1019E300DB011200A81EDB011200A853DB01120069
:1019F300A8D1C2021200A8DBC2021200A825C302AA
:101A03001200A844C3021200A861C3021200A8175F
:101A1300C4021200A855C4021200A85FC402120037
:101A2300A8B7C4021200A8E4C4021200A83BC5026E
:101A33001200A8B0C5021200A8ECC5021200A854F7
:101A4300C6021200A897C6021200A810C70212000D
:101A5300A870C7021200A8A2C7021200A8B2C70248
:101A63001200A8C2C7021200A8E1C7021200A8DF31
:101A73008A031200A8498B031200A86E8B0312007D
:101A8300A87F8C031200A8F490011200A89592017C
:101A93001200A8D092011200A89C94011200A8324F
:101AA30095011200A8BB96011200A8049701120029
:101AB300A8FC97011200A87B98011200A8F79801CF
:101AC3001200A83E99011200A88D99011200A8CD19
:101AD30099011200A81B9B011200A87D9C01120012
:101AE300A8639E011200A8709E011200A8CB9E015C
:101AF3001200A81F9F011200A8D4A2011200A8E39C
:101B030098031200A8F998031200A84DE8021200E6
:101B1300A887E8021200A816E9021200A855E902F4
:101B23001200A8D2E9021200A810EA021200A84685
:101B3300EA021200A87DEA021200A896EA02120045
:101B4300A8BCEA021200A8CBEB021200A8DDEB024C
:101B53001200A8F397031200A84D90031200A8E304
:101B630090031200A8FA90031200A83C91031200FC
:101B7300A86B91031200A88791031200A8A19103F7
:101B83001200A80080031200A87C80031200A8A101
:101B930080031200A8FBF2011200A871F3011200E6
:101BA300A84AF4011200A8E4F4011200A8FBF4010E
:101BB3001200A849F5011200A85CF5011200A89FC4
:101BC300F5011200A818F6011200A82CF601120064
:101BD300A84DF6011200A82DF7011200A85AF7012B
:101BE3001200A875F7011200A8B6F7011200A8F7B2
:101BF300F7011200A854F8011200A86AF8011200B4
:101C0300A8C5F8011200A819FA011200A845FA01A3
:101C13001200A879FA011200A8A3FA011200A8AFD2
:101C2300FA011200A8ECFA011200A888FB011200C5
:101C3300A88BFB011200A88EFB011200A8ABFB01CD
:101C43001200A82CFC011200A849FC011200A8579D
:101C5300FC011200A8D15E011200A8DB5E01120094
:101C6300A8435F011200A89D5F011200A823600131
:101C73001200A88B60011200A8CD60011200A856C3
:101C830061011200A8E761011200A863620112005A
:101C9300A8A362011200A84C67011200A88667017D
:101CA3001200A8E267011200A8E567011200A88DDF
:101CB30068011200A8D669011200A85F6C01120026
:101CC300A8FF6C011200A82F6E011200A843710136
:101CD3001200A85371011200A86C72011200A85BD4
:101CE30073011200A87274011200A8047501120096
:101CF300A85075011200A8C875011200A8847601C6
:101D03001200A81077011200A82DA3011200A8DE6B
:101D1300A3011200A850A4011200A872A40112008A
:101D2300A811A5011200A860A5011200A83FA601F1
:101D33001200A885A6011200A80AA7011200A86C28
:101D4300A7011200A880A9011200A8EEA9011200A0
:101D5300A847AA011200A8D0AB011200A890AC01B9
:101D63001200A827AD011200A862AD011200A8C697
:101D7300AD011200A802AF011200A808B0011200C1
:101D8300A8A7B0011200A890B1011200A8F1FF02A8
:101D93001200A8CF8C031200A8E18D031200A847FC
:101DA3008E031200A8B591031200A8FA9103120042
:101DB300A8AD92031200A8B88E031200A8C68E0322
:101DC3001200A83499031200A83396031200A84303
:101DD30096031200A86196031200A8D3960312007B
:101DE300A89F84031200A8C084031200A8348503AB
:101DF3001200A8BB85031200A8E385031200A8AA5A
:101E030086031200A8F6FF011200A8A7D70212004A
:101E1300A8B5D7021200A833D8021200A859D902D4
:101E23001200A8E6DB021200A8DCBC021200A8B66E
:101E3300BD021200A846BE021200A8E4BE021200B0
:101E4300A806BF021200A835BF021200A8AABF024B
:101E53001200A8E7BF021200A869C0021200A8ADD1
:101E6300C0021200A866C1021200A8B1C10212008A
:101E7300A8DAC1021200A833C2021200A892C20259
:101E83001200A82691021200A85A93021200A8BEBB
:101E930093021200A87D95021200A8A696021200D2
:101EA300A81197021200A8B397021200A8DD8603B7
:101EB3001200A81987031200A82C87031200A85A3E
:101EC30087031200A88A87031200A8C5870312009C
:101ED300A83588031200A86888031200A8DEFD0253
:101EE3001200A81EFE021200A830FE021200A84C27
:101EF300FE021200A890FE021200A899FE02120030
:101F0300A8E7FE021200A808FF021200A8B4FF020D
:101F13001200A8BAFF021200A8C7FF021200A87895
:101F230098031200A89598031200A86AF6021200FB
:101F3300A808F7021200A815F7021200A81DF7025D
:101F43001200A840F7021200A865F7021200A8E4E5
:101F5300F7021200A85AF8021200A889F802120028
:101F6300A8C3F8021200A8D9F8021200A8E0960349
:101F73001200A80597031200A82D97031200A85C6E
:101F830082031200A87582031200A8818203120043
:101F9300A89582031200A8B882031200A8C4820382
:101FA3001200A8D382031200A8E682031200A81B22
:101FB30083031200A85583031200A88A8303120027
:101FC300A8D683031200A82284031200A83A84032C
:101FD3001200A84484031200A85584031200A89990
:101FE30084031200A8AEA0021200A8D6A002120019
:101FF300A8E9A0021200A8FCA0021200A812A102E4
:102003001200A86EA1021200A8A8A1021200A8CC77
:10201300A4021200A8C3A5021200A8F5A50212008B
:10202300A859A6021200A829A7021200A851A702C4
:102033001200A866A7021200A876A7021200A8BC85
:10204300A7021200A811A8021200A8F0920312001E
:10205300A80B93031200A83593031200A85293030D
:102063001200A87A93031200A89C93031200A8B548
:1020730093031200A8E493031200A8FF9303120032
:10208300A83998031200A8F5EB021200A8FCEB0292
:102093001200A809ED021200A83BED021200A85D90
:1020A300ED021200A880ED021200A8A2ED021200B8
:1020B300A8DDED021200A84CEE021200A889EE0280
:1020C3001200A8D6EE021200A804EF021200A82400
:1020D300EF021200A84195031200A87A950312009B
:1020E300A83096031200A809F3021200A87DF30298
:1020F3001200A869F4021200A802F5021200A893C4
:10210300F5021200A824F6021200A8269403120076
:10211300A88F94031200A8DE94031200A81F95034E
:102123001200A882EF021200A8DAEF021200A8FF41
:10213300F2021200A8B498031200A8039903010144
:102143000BFEFF100130000000ED17ED17ED17ED4A
:1021530017B516AF16ED178A2200000000B0230052
:10216300009524A324702500000000000000000057
:1021730000000000000C0000000C00312E30302065
:1021830028463857312E342E332900312E31302052
:1021930028463857312E342E332900A8F9B8F9FFD1
:1021A300FFFFFF00000000E803000059415453D72C
:1021B300E4AB170D13D51D2519C1109B1BED20078B
:1021C300FF0102002BF500000000400F000050004B
:1021D30000000010C166F56400020008000005015C
:1021E300071E02051E0203B80B803EFFFF0100001D
:1021F30000005800006400000000000C000205020B
:102203000001020606060606001414141414000640
:10221300010000000A040F010000023DFA023DFA2A
:1022230031164316191613164F165516491601166D
:1022330025162B161F165B160005150D091008042D
:1022430000383C3E363B3B352B432C3030161819B7
:1022530020231A1C1E30303017181921301B1D1F64
:10226300300F173F1715171B1739172D172717454A
:10227300174B1751175D17211709170317331757F3
:10228300177D18631769170300710030016000118F
:102293000070003102200350048000100061000030
:1022A3000014006300730072006200430000001317
:1022B30000060000000000040012000000000000FF
:1022C30000000004000400370037003C0244000013
:1022D30000000000000000650000003500810000E0
:1022E30000050000008300000001017101010101EC
:1022F300011101010131010101010180011001619D
:10230300013B001400630173017201620143010088
:1023130001130106013D0135000401120100010012
:10232300010001000104010401330133013C0144B4
:102333000132013600000100016501000135008111
:1023430001000105018201830100010302710230D2
:1023530001600211027002010202020202800210F5
:102363000261023A00410063027302720262024395
:1023730002000213023800000200020402120200EB
:102383000200020002000204020402370037003C8C
:102393000244020002390000020002650200023515
:1023A300028102000205028202830200020103711C
:1023B30003010301030103010301032203020301D8
:1023C30003100300030003000300030003000300E2
:1023D3000342030003240306030003000304031260
:1023E300032503230325032303040304030003003A
:1023F30003000344030003000323030003650321D5
:1024030000350381030003050300030003000303F6
:102413000471040204600411047004020402040140
:1024230004020410046104000414046304730472BA
:1024330004620443040004130406040004000404B7
:1024430004120400040004000400045104640000A6
:1024530004000400044404000400040004000465B0
:1024630004000435048104640005040004830400AB
:102473000400034948424D181725050200011916A7
:10248300181616152303000C0E020B040B0A07087B
:10249300000FED17FF170518D9160B18D316DF1603
:1024A30059181118171823181D18360001000600B3
:1024B30000000F000000000000000000000000000A
:1024C30003FFFF00000403FFFF0000FFFF0FF40101
:1024D3000005C4040320000100000B0000000000FD
:1024E3000000000301000136360101000102010072
:1024F30001030100010401060605020000070100B3
:10250300340801000F090401010D0100FF0E08004A
:102513000017020000190100FF1A0100011B01004E
:10252300051C0100081D0200001F0100012001001D
:1025330001210200002301000F24020000260100F4
:102543000127010308280200FF2A0100072B0102CB
:10255300402C0100002D0100012E0100012F01007C
:10256300FF30010B1C310800003A01000865188395
:102573001889186B18771871180080010000008003
:102583000AB519018002000000810AB5190280040E
:10259300000000820ABB19038008000000830AC1FF
:1025A30019048010000000840AC719058020000068
:1025B30000850ACD19068040000000860ACD192146
:1025C3008000010000880AD31922800002000089DC
:1025D3000AD319208080000000870AD319118000D4
:1025E3008000008F0AD919148000000100900ADFCF
:1025F30019158000000800930AE519000000000087
:10260300000000000000003F1D01003F1D02007399
:102613001C0300791C04007F1C0500851C06009127
:102623001C1100A91C1400AF1C15009D1CFFFF000A
:10263300000000000000009C36063A703DD940437C
:1026430044AD47174B814EEA515F3F3F1B171313AE
:10265300130F0F0F0B0B0B0B0707070706060606D7
:1026630006060300BE040A150008050C010309143D
:10267300100A080910000102030405060708090AE5
:102683000B0C0D0E0F00160F160D0B150B0211027E
:10269300220B30030006FF2223242A262925313268
:0726A3003337202136FF410F
:1029000074F61205507A00800412352A0A90267255
:102910001230DE40F47A00801C8A087509007403C6
:1029200078081204E812368C74FEF0A374FF122AA1
:102930004CA3A3F00A9026741230DE40DC7A0080AB
:102940001C8A08750900740378081204E8E5082455
:10295000D9F582E50934F8F5831229820A1230DBB1
:1029600040DF90266FE49390E3BBF01229710237A9
:10297000367CE87D037A107B0090E39FE0F9121B20
:10298000232274FEF0A374FFF02274F41205507435
:10299000FD1204FBEAFEEBFF8908122FDE7003A391
:1029A000E06970057900022A447902EEFAEFFB1221
:1029B000158FE960EFE508F5097809120745122E31
:1029C0006212050AE9707B90E3BAE0F509F9740137
:1029D00029F090E353E0F50AA3E0F50B780A12071B
:1029E000417D017C00AA0AAB0B1215477402120547
:1029F0000AE9704E74011205317406122FFC700141
:102A0000EB603B8A828B83A3A3A3A3A3A3123F768D
:102A1000740188828983F0E50860047C8080027CF0
:102A200000EC122AFDE509122FEFA312369C122AA0
:102A30004C122FF474FC1229841212418006791072
:102A4000800279C7740312050A0236F1123554A3C5
:102A50002274F7120550EAFEEBFF1214BDE960067E
:102A60007AFF7BFF807F90FA12E064027070EEFACA
:102A7000EFFB122AE85046EB75F006A4F8AAF0EA3C
:102A8000F9E81234DC7028EB1234FB90E352122A7E
:102A9000FAE064FE7004A3E064FF6021EB75F006C9
:102AA000A4F8EAF9E81234D2E0FAA3E0FB8036E0B9
:102AB00064036009E0640470047AFE80A57B0080F2
:102AC000010B902675E493FAEBC39A5011EB123484
:102AD000C26E7003A3E06F70E8EEFAEF80CEEEFAFC
:102AE000EFFB1215290240541215A7121589E9FBB4
:102AF000902672E493FAE9C39A22123683A3122B2A
:102B00000222F088828983A3A32274F21205508ADC
:102B1000088B098C0A8D0B7E001214BDE9600579C3
:102B200000022BB9AA08AB09122AE8500E1240BCC9
:102B300064036003022BB77F02804AAA08AB091224
:102B4000152F1211F98A0C8B0DA80CA90DE8700134
:102B5000E9606488828983A3A3A3A3A3E0A2E050D1
:102B6000567F01A2E150127901AC08AD09AA0AAB67
:102B70000B121505E9700E803E88828983A3A3A3FA
:102B8000A3A3D2E1F090E353E0650A7004A3E065EB
:102B90000B700C7901AA08AB091214E10E8018EF32
:102BA000F9AC08AD09AA0AAB0B121505E970080EBD
:102BB000AA08AB0912153BEEF97F0602061474F061
:102BC00012055074FE1204FB122D708C088D0985BD
:102BD0001082851183E02416F50EA3E03400F50F72
:102BE000850E82123F7488828983A3E0F50C122E31
:102BF0003BFA88828983A3A3A3A3E0F9EAFEE9FF55
:102C0000AA08AB09121541E9FA850E82850F8312D5
:102C10003D11E02AF50A530C8078081207417D0027
:102C2000AC0AA90B7402120531122D6012050AE9D3
:102C3000FA74036A70057900022D45EA703E90E34C
:102C40004CE0601CE50CF50D780D1207457901ACE0
:102C500008AD09E9120531124059122E6C12050A0D
:102C6000780C120745122E6212050AE9700E7412D2
:102C70001205311243DD74FFF0A380427412120575
:102C8000311243DDE064FF7004A3E064FF6030852F
:102C90001082851183E0240B122D5512405F12150E
:102CA00029EA65087003EB6509708BEEFAEFFB12F9
:102CB000152974121205311243DDEAF0A3EBF07806
:102CC000081207417D01AC0AA90B740212053112EA
:102CD0002D6012050AEEFAEFFB12428190E353E0F9
:102CE0006E7003A3E06F6020E87001E9604B88829A
:102CF0008983A3A3A3A3E06401600D88828983A3D1
:102D0000A3A3A3E064027031122D481243DDA3E0B7
:102D1000F5087808120745E50BF50878081207450D
:102D20007900EEFCEFFD74021205311240591214C5
:102D3000FF740212050A022C36122D48123D11E5CD
:102D40000AF012142D023CE3851082851183E024E1
:102D500016122D5522F8A3E03400F98882898322C7
:102D6000E0240B123D0CFAA3E0FB1215477402227B
:102D7000851082851183EAF0A3EBF02274F012052E
:102D8000508A0E8B0F123F6C122E3BFC8882898377
:102D9000A3A3A3A3E0FBECF508EBF50988828983E4
:102DA000A3A3A3A3A3E0FC88828983A3A3A3A3A3D3
:102DB000A3E0FBECFEEBFF88828983A3A3A3A3A37C
:102DC000A3A3E0F50A88828983A3E05480F50CACC4
:102DD0000AA90BAA08AB0912154DE9FA74036A6037
:102DE0005790E353E065087004A3E06509603AEA90
:102DF0007030E50CF50D780D120745122E4D1205B9
:102E00000AE97034780C120745780B120745A90AB5
:102E1000EEFCEFFDAA08AB091214FF740212050ABA
:102E2000801674046A701180DBE50CF508780812CE
:102E30000745122E4D12050A023CE888828983A3B9
:102E4000A3E0F50B88828983A3A3A3E0227901E59F
:102E50000E240BF582E50F123A96FCA3E0FD122E2C
:102E6000682279027CFE7DFFEEFAEFFB12153574C5
:102E7000012274F012055074FA1204FBE9851082E5
:102E8000851183F08A088B09ECFEEDFF741612059C
:102E900031E0F50C7417120531E0F50DA90C12158F
:102EA000537401120531122D767404120531740821
:102EB000F07403120531AA82AB8312149F8A0E8B21
:102EC0000FEA7001EB7003022F5A8A828B83A3A34F
:102ED000A3A3A3A3E0F50AA3E0F50B7402850A827D
:102EE000850B83F0A3E50D122F5FE50C122F5FA376
:102EF000E508F0E509850A82850B83A3A3A3A3F067
:102F0000EE850A82850B83A3A3A3A3A3F0EF850A12
:102F100082850B83A3A3A3A3A3A3F074011205319D
:102F200012405F121541E9851082851183FAE02A6B
:102F3000850A82850B83A3A3A3A3A3A3A3F0740193
:102F4000120531123F76850E82850F83A3A3E8F028
:102F5000A3E9F0AA0EAB0F1212417406023CE5F091
:102F6000850A82850B83A3A32274F212055074FD97
:102F70001204FB8A088B09ECFEEDFF890C122FDE90
:102F80007003A3E06970047901804B750D0190E333
:102F900053E065087004A3E0650960387401120508
:102FA000317404122FFC7001EB60298A828B83A399
:102FB000A3A3A3A3A3123F76740388828983F0A3FB
:102FC000E50C122FEF1236A1122FF41234F2121266
:102FD00041E9F50DA90D740312050A022BB912156A
:102FE000A78A0A8B0BA80AA90B90E353E06822F08A
:102FF000EE022B03F08A828B83A3A322F08510823A
:10300000851183AA82AB8312149FEA2274F71205FA
:1030100050123F6CE8FAE9FB79018A828B83A3A303
:10302000E0FC8A828B83A3A3A3E0FBECFA1212B329
:1030300002405474F61205507508897509F87E111E
:103040007FF812297190E3BBE014F0700C90266FAA
:10305000E49390E3BBF01215B97A00803F8E828F23
:1030600083A3A3A3A3E0602BEE2404F582EF123820
:10307000D170208E828F83A3A3A3A3A3E0640160F9
:10308000128E828F83122982E48E828F83A3A3A360
:10309000A3A3F00AEE2406FEEF3400FF902672127E
:1030A00030DE40B97A008028E50824071238CD7058
:1030B00012850882850983A3122982E48508828506
:1030C0000983F00AE5082408F508E5093400F50944
:1030D0009026741230DE40D0023736902676E49384
:1030E000FBEAC39B2274F6120550E9701E7C007A3D
:1030F0006F7BE390E344E0FD90E342E0C39D123137
:103100002274FE6E700374FF6F700D7C017A6B7B0E
:10311000E390E344E0123122121469EEFAEFFB026D
:103120003736F912151D8A088B09AE08AF092274CB
:10313000F4120550EAFEEBFF7AFE7BFF7D00800172
:103140000DEDC39950798E828F8375080175090042
:10315000750A00750B00ED78081203097808120350
:103160007590F9D0780812016660D5750801750967
:1031700000750A00750B00ED780812030978081233
:1031800002E08E828F837808120388EC700990E346
:1031900044E0F98D088005EDF97508001215958A4F
:1031A0000A8B0BA80AA90B90E353E028F8A3E03997
:1031B000F9E50828F8E439F9740128FAE439FB0242
:1031C00036F174F412055090E353123F76EAC39837
:1031D000F8EB99F974FF28FE74FF39FF90E344E09F
:1031E000F91215958A088B09C3EE9508EF950950D9
:1031F00021EEFAEFFB12159BE9C3405F75080175DC
:103200000900750A00750B00780812030990E36B3A
:10321000804490E344E0F508F91215958A0A8B0B77
:10322000C3EE950AFEEF950BFF90E342E0C39508CD
:10323000F8E49400F9C3EE98EF99A2D265D0335028
:103240001A750801750900750A00750B00EE7808FB
:1032500012030990E36F780812039B121469023677
:10326000F174F612055012152F8A088B091211F904
:10327000EA7001EB6006AA08AB0980047AFE7BFFC6
:1032800002373674F012055074FE1204FB122D70D2
:103290007EFE7FFF851082851183C082C08390E30C
:1032A00053123F76D083D082E0C398F508A3E0990B
:1032B000F509750A00750B0090E344E0F9121595C5
:1032C00090F9D0780C1203AE780C790812017B408B
:1032D0002790E342E02AF8E43BF990E344E0FCE87D
:1032E000C39CF50CE99400F50D750E00750F007880
:1032F00008790C12017B500B90E373E0605690E369
:1033000056804C90E373E0C0E090E343E0FCD0E0F3
:10331000C39C50408A0C8B0D7808790C12017B40BD
:1033200028EF2508FAEF3509FB12159B1215958A2F
:10333000088B09A808A90990E353E028F8A3E0390D
:10334000F9740128FEE439800A851082851183E032
:10335000FEA3E0FFEEFAEFFB023CE374F21205502D
:103360008C088D09890A740E120531E070059026CB
:10337000738003902672E493F50B1215A78A0C8BC9
:103380000DAE0CAF0D90E353E06E7003A3E06F70D1
:10339000057900022BB9121589E9FC902672E49395
:1033A0006C70127AFE7BFF121589E9FCC3950B4005
:1033B00004790280DEEC75F006A4A9F0124070EEEC
:1033C000F0A3EFF074FE6508700474FF6509600BEC
:1033D000EC75F006A41234D21234F27401650A704E
:1033E0002A1234FA740188828983A3A3A3A3A3F0C9
:1033F00090E35212367EF01234E9AA08AB09121497
:1034000039EA7001EB708A7C008020EC75F006A42C
:103410001234DC70030233911234FA90E351122A11
:10342000FAA3A3A3E50AF00233910C902675E49366
:10343000FAECC39A40030233917E00801DEE75F0D2
:1034400006A42413F582E5F034F8123F74EC12342C
:10345000C2687003A3E06960D10E902672E493FA0B
:10346000EEC39A40D8E4936E70C0EC75F00BA424C0
:10347000B9F8E5F034F7F9E8FAE9FB8A828B8312B0
:1034800034F290FA3CE08A828B83A3A3A3A3A3F037
:1034900074028A828B83A3A3A3A3F0E48A828B8322
:1034A000A3A3A3A3A3A3F090F9D078081203AE8A34
:1034B000828B83A3A3A3A3A3A3A378081203D002A0
:1034C000339175F00BA424B9F582E5F034F7F58358
:1034D000E0222413F582E934F8F583222416F582DC
:1034E000E934F8F583E064012290E360E0FCA3E0B6
:1034F000FD22E508F0A3E509F022EC75F006A4240E
:1035000011F8E934F8F922C082C0831215A7121508
:1035100089E9FA902672E4936A70047904800412AF
:10352000352AF9D083D08202009AEA75F006A424E5
:1035300011F8E5F034F8F98882898374FEF0A374F9
:10354000FF122B0274FEF0A374FF1235541236AF33
:10355000A3A3F022F0E488828983A3A3A3A3227407
:10356000F61205507E0790E347E0703F1234E912EF
:1035700014398A088B09A808A909E87001E9602BA9
:1035800088828983A3E0C3940D40047E01801C8857
:10359000828983A3E0C3940740047E03800D888260
:1035A0008983A3E0C3940340021E1EEEF90237365E
:1035B00074F01205508A0A8B0BE9FEECFF8D08743B
:1035C00010120531E0F50CA3E0F50D123674122A45
:1035D000F3504F890A750B007403780A1204E8E56A
:1035E0000A248FF582E50B34F8F583E0FAEFC39AED
:1035F000502CE5086023750F007403780E1204E860
:10360000E50E2489F8E50F34F8F9EF88828983A361
:10361000A3A3A3A3A31236A5F07900023CE8790383
:1036200080F979007AFE7BFF123674E493650E70A0
:1036300004790280E6E50860E089087509007403F2
:1036400078081204E812368CE50AF0A3E50B12366E
:10365000A512369CA3A3F074FF88828983A3A3A339
:10366000A3A3F0EE88828983F090E35112367EA303
:10367000A3A380A4121583E9F50E902674221236B6
:1036800083A322E088828983A3A3A322E508248957
:10369000F8E50934F8F988828983A3221236A1A3B8
:1036A00022F0EF80DF1236AFE50CF0A3E50D221219
:1036B0002B02A32274F4120550ECFE1215839026FF
:1036C00074122AF35029890A750B007403780A12C0
:1036D00004E8E50A248EF582E50B34F8F583E0FA78
:1036E000EEC39A5006EEF0790080067903800279E5
:1036F000047F0402061474F6120550EAFEEBFF1272
:103700001583E9F508902674122AF3501B750900F9
:10371000740378081204E8E508248CF582E509347E
:10372000F8F58312405F8007EEFAEFFB121529804F
:1037300005740212050A7F0202061474F61205507F
:103740008A828B83E4A3A3A3A3A3F0FB80010B9045
:103750002676E493FAEBC39A501F8B08123CEFFADB
:103760008C828D83A3A3A3A3A3A3A3A3E06A70DE8B
:10377000ECFAEDFB1213D3801EE4936B7019740600
:103780008C828D83A3A3A3A3A3A3A3A3A3F07A00F6
:103790008C828D831238DD809D74F41205508A0866
:1037A0008B098A828B83A3A3E014122FF4A3A3A313
:1037B000E0F91213AF8A0A8B0BAE0AAF0BEE700161
:1037C000EF70030238CA850882850983A3A3E070DD
:1037D000288E828F83A3A3A3A3A3A3A3A3A3E064A0
:1037E0000260031238D774068E828F83A3A3A3A32B
:1037F000A3A3A3A3A3F00238CA850882850983A3E3
:10380000A3A3A3A3A3E070030238AD8508828509B2
:1038100083A3A3A3A3E070030238CAE5082403121C
:1038200038CD60030238CA850882850983A3A3A323
:10383000A3E014F08E828F83A3A3A3A3A3A3A3A3C7
:10384000A3E06403705A850882850983A3A3A3A318
:10385000E0700DEEFCEFFDAA08AB0912155980408F
:1038600074048E828F83A3A3A3A3A3A3A3A3A3F013
:10387000121A158A0A740F550AF87401288E828F5D
:1038800083A3A3A3A3F0A3E4F07A20FB123CFE7071
:1038900001EB700C7A207B0090E39FE0F9121A5143
:1038A00090E340E08508828509830237F28E828F9B
:1038B00083A3A3A3A3A3A3A3A3A3E06403700BEE1A
:1038C000FCEFFDAA08AB091215590236F1F582E5A5
:1038D00009123A9614F0227AF08E828F83E0240C3B
:1038E000122D55E0F91213192274F61205507C00BE
:1038F0007E0080258E08750900740378081204E89C
:10390000E50824D9FAE50934F8FB8A828B83A3A35E
:10391000E0600512155F7C010E902676E493FAEEC6
:10392000C39A40D074016C70097C647D007A4012A7
:10393000297702373674F512055078D979F8750A67
:1039400000803E88828983A3A3A3A3A3A3A3E0FE50
:10395000EA2410123A936E701E888289831243D72C
:10396000EA240B123A936E7003A3E06F7009888209
:103970008983A3A3E07023050AE82408F8E934004A
:10398000F9902676E493FEE50AC39E40B6E493657B
:103990000A700779007F0302061488828983A3A333
:1039A000A3A3A3A3E07004790180EA750A0080470D
:1039B000AA0AEA75F00BA4ABF024B9F582EB34F750
:1039C000F583E06C7003A3E06D702AEA75F00BA438
:1039D00024BBF582EB34F7F58312405F90E360E09F
:1039E0006A7003A3E06B700D88828983A3A3A3A3ED
:1039F000A3A3E014F0050A902675E493FAE50AC340
:103A00009A40AD750A008002050A850A0890266A68
:103A1000E493FA740193FBC3E5089AE49B503BAA34
:103A20000AEA75F00EA4ABF02497F582EB34F6F5B4
:103A300083E064FF60D2EA75F00EA42493F582EB74
:103A400034F6F583E06C7003A3E06D70BB88828967
:103A500083A3A3A3A3A3A3E014F0902675E493FA91
:103A600090266AE4932AFAA3E4933400FB888289BF
:103A700083A3A3A3A3A3A3E0FCC3EA9CEB9400400D
:103A8000030239A7E488828983A3A3A3A3A3A3F095
:103A90000239A7F582EB3400F583E02274F01205B9
:103AA0005074F81204FB122D707402120531ECF000
:103AB000A3EDF0750801750900902675E493780868
:103AC0001204E8E5093395E0F50AF50B90F9D07892
:103AD0000C1203AE7404120531780C1203D07A0074
:103AE0007CD97DF880128C828D83A3A3E060180AB4
:103AF000EC2408FCED3400FD1230DB40E9E4936A6D
:103B000070057900023CDFE48C828D83A3A3A3A31C
:103B1000A3A3F0FA8050EA75F00BA4FEABF0EBFF24
:103B2000EE24B9F582EF34F71243D5740212053151
:103B3000E06E7003A3E06F602CEA75F00BA4FEEB5F
:103B4000FFEE24BBF582EF34F71243D590E360E03B
:103B50006E7003A3E06F700D8C828D83A3A3A3A36B
:103B6000A3A3E004F00A9026751230DE40A87A0084
:103B7000803364016005E064037022851082851142
:103B800083123D11A3A3A3A3E064FF7004A3E06428
:103B9000FF700A7404120531780812039B0A74013D
:103BA00078081203098A0C90266AE493FE74019344
:103BB000FFC3E50C9EE49F505AEA75F00EA4FEABDD
:103BC000F01243CB7402120531E06E7003A3E06F74
:103BD00060CBEA75F00EA4FE1243CB90E353E06E87
:103BE0007003A3E06F60B6EA75F00EA4FEEBFFEE83
:103BF0002497F582EF34F6F583E064046006E06014
:103C000003023B728C828D83A3A3A3A3A3A3E0042E
:103C1000F0808A8C828D83A3A3A3A3A3A3E060106A
:103C2000851082851183E0240F123D086401700322
:103C3000E4800590E341E0048C828D83A3A3A3A3D9
:103C4000F090E346E08C828D83A3A3F090E340E004
:103C50008C828D83123D1812405A8C828D83122DD6
:103C600076E98C828D83A3A3123D182410123D089F
:103C70008C828D83A3A3A3A3A3A3A3F07404120532
:103C800031C082C08390F9D078081203AED083D0BF
:103C900082780812016660327A0080010A1230DBF5
:103CA00050288A08123CEF60036970F0750900E93A
:103CB000F07404120531780C1203AE740278081205
:103CC00004E8123F5F780C1203D07A40123CFC707B
:103CD00001EB70097C647D007A40122977790174C8
:103CE000088002740212050A7F080206148E08E595
:103CF000082421F582E434F9F583E0227B0090E387
:103D00009FE0F9121B2FEA22123D0C22124065E0BF
:103D1000221243E1A302355AA3A3A3F085108285A2
:103D20001183E02274F41205507508008002050822
:103D3000902676E493FAE508C39A500D85080AE5C3
:103D40000A123CF16970E7E4F00236F174F01205F2
:103D50005074FC1204FB8A0E8B0F8A828B83A3A300
:103D600012405F1213B5EA7001EB6003023EE3906C
:103D7000F9D078081203AE8510828511831234F2CF
:103D8000A3E50AF0A3E50BF090FA1A78081203AE47
:103D90007E00804EEE75F00BA4F8ACF0ECF9E82450
:103DA000B9F582E934F7123F7C7003A3E069702A09
:103DB000EE75F00BA4F8ECF9E824BBF582E934F7D2
:103DC000123F7490E360E0687003A3E069700B85B4
:103DD0001082851183780812039B0E7401780812F3
:103DE0000309902675E493FCEEC39C40A77E0080F7
:103DF000080E740178081203098E0C90266AE49369
:103E0000F8740193F9C3E50C98E4995036EE75F017
:103E10000EA4A9F02497F582E934F6F583E064FF57
:103E200060CFEE75F00EA42493F582E934F6123FCC
:103E30007C7003A3E06970B98510828511837808CE
:103E400012039B7E0080057A007B000E902676E4AC
:103E500093FCEEC39C4003023EE3123CED60EC7524
:103E60000900740278081204E8123F5FC082C08320
:103E700085108285118378081203AED083D08278B2
:103E80000812037590F9D0780812016660BD123CE3
:103E9000EDF91213AFEA7001EB60AC8A828B83A359
:103EA000A3A3A3A3A3A3A3A3E06405709A85108290
:103EB00085118378081203AE78081202E08E0C7523
:103EC0000D007402780C1204E8E50C242AF582E552
:103ED0000D34F9F5837808120388902676E493FE72
:103EE000023E4BEA7001EB60128A828B83A3A3A38C
:103EF000A3A3A3A3A3A3E06405601D850E82850F81
:103F000083A3A3A3A31234EC850E82850F83A3A3FE
:103F100012405F1210568042850E82850F83A3A344
:103F2000123F768A828B83E0FCA3E0F5838C82E8E3
:103F3000F0A3E9F074018A828B83A3A3A3A3A3A3B4
:103F4000A3A3A3F07A20123CFC7001EB700C7A2042
:103F50007B0090E39FE0F9121A517404023CE5E5FE
:103F600008242AF582E50934F9F58322EA2416F5B6
:103F700082EB3400F583E0F8A3E0F922F583E0F862
:103F8000A3E0F9850E82850F83A3A3E0682274F66F
:103F9000120550E9FC7900800109902674E493FD34
:103FA000E9C39D503D89087509007403780812041F
:103FB000E8E508248AF582E50934F8F583E06A70BB
:103FC00003A3E06B70D389087509007403780812A5
:103FD00004E8E5082489F582E50934F8F583E06C06
:103FE00070B702373674F71205507E008019EE75EF
:103FF000F006A42411F582E5F034F8F583E06A7048
:1040000003A3E06B604C0E902672E493FCEEC39C1D
:1040100040DCE4936E703B74FE6A700374FF6B7057
:10402000317E0080010E902672E493FAEEC39A501E
:1040300021EE75F006A4A9F02415F582E934F8F50F
:1040400083E070E1EE75F006A412407012405F123A
:10405000153BEEF97F01020614E0240B124065E0E7
:10406000FAA3E0FB22FAA3E03400FB8A828B8322CE
:104070002411F582E934F8F5832274F6120550EA2A
:10408000FEEBFF8908122AE8500B1240BC6508704D
:10409000047900802474016508701C1234E9EEFA7A
:1040A000EFFB1214398A828B83E5827002E583600C
:1040B00006E0C3940340DA7901023736EB75F00667
:1040C000A42416F582E5F034F8F583E02274F612A4
:1040D0000550890890E373E0C333F8E433F990F6B0
:1040E00091E028FAA3E0398A82F58312405FEA85DD
:1040F00008F0A4FAACF08508F0EBA42CFB023736EC
:10410000C082C083EAF8EBF990E373E0C333FAE4CA
:1041100033FB90F691E02AFCA3E03B8C82F58312FE
:10412000405F120470E8F902352374F012055074F0
:10413000FE1204FB851082851183ECF0A3EDF0895B
:104140000874121205311234EC8982AE82EEC33348
:10415000F8E433F9EC28F8ED39F988828983E4F042
:10416000A3F0EA2E123A93FE74012E0EE43400FFFF
:10417000E824FEF582E934FFF583EEF0A3EFF07456
:10418000FE2508F50A807CE50AFE3395E0FFEEF88F
:10419000EFF9E8C333F8E933F9EC28F8ED39F9859C
:1041A0001082851183E02EF508A3E03F850882F593
:1041B00083A3E0F50888828983A3A3E0F50EA3E03A
:1041C000F50FE50E8508F0A4F50E85F00B8508F0D7
:1041D000E50FA4250BF50FEA2EF582EB3FF583A33F
:1041E000E0250EFEE4350FFFEEC39508FEEF9400C8
:1041F000FF74012E0EE43FFF88828983EEF0A3EF67
:10420000F0150AE50AC39400A2D265D03340030238
:104210004187023CE374F612055074FE1204FBEA77
:10422000FEEBFF90F971E06029851082851183858E
:10423000820885830978081207417C007D001215E9
:10424000AD740212050A851082851183E0FAA3E09D
:10425000802B124281E87001E9601F88828983A364
:10426000A3A3A3E06401600D88828983A3A3A3A311
:10427000E06402700590E35380D2EEFAEFFB023760
:10428000311211F98A088B09A808A9092274F012C1
:10429000055074FA1204FB122D707404120531ECEF
:1042A000F0A3EDF07508007C007D007A007B008AA9
:1042B000098510828511831243D7741612053112B5
:1042C00043DDEEF0A3EFF002435A741612053112EB
:1042D00043DDECF0A3EDF07404120531E06C7003E3
:1042E000A3E06D70037509017402120531EEF0A3AD
:1042F000EFF0E508C333F8E433F990F691E028F5E0
:104300000EA3E039F50F7402120531E024FFF50C1D
:10431000A3E034FFF50DA80CF9850E82850F8312FA
:10432000405F1204708A0A8B0BAE0AAF0BA80CA96F
:104330000D850E82850F8312405F120470880A89F2
:104340000BAA0AAB0B7402120531E02CF8A3E03D76
:10435000F9E8C39EFCE99FFD0508EE7001EF6023BC
:1043600090E343E0F8E508C398501885080AE50A89
:104370002430F582E434FAF583E06A7001EB6003DF
:104380000242CAE508603F242FF582E434FAF5833F
:10439000E0F8C3EA98EB9400501D851082851183E4
:1043A000123F767416120531E0FAA3E0F5838A8293
:1043B000E8F0A3E9F0800FE06A7001EB600890E399
:1043C00043E0650870D4A909022F5AEBFFEE24934D
:1043D000F582EF34F6F583E0FEA3E0FF221243E11D
:1043E00022E0F8A3E0F58388822274F7120550EAF0
:1043F000FEEBFF74026970107900EEFAEFFB121405
:10440000E1E970117901800F740169700879011276
:10441000158FE970E3790002405474F61205507C60
:104420000079057A007B00806A8E828F83A3A3A324
:10443000A3E07002A3E06053EE2404F8EF3400F927
:1044400088828983E024FFF0A3E034FFF08882892A
:1044500083E07002A3E0703374068E828F83A3A37F
:10446000A3A3A3A3A3A3A3F01238D78E828F83A301
:10447000A3A3A3A3A3E0540460118E828F83A3A3FC
:10448000A3A3A3A3A3A3E0F91215777C007905EEFB
:10449000FAEFFB1213A98A088B09AE08AF09EE7078
:1044A00001EF7085023736C082C083E990E39FF048
:1044B000E490E362F01220D512137990E3A0E4F0C7
:1044C000A3F01214D51211DB1214DB1220DB90E3DF
:1044D0002FE4F0A3F00247EF74F2120550EAFEEB6E
:1044E000FF74805FF9E47001E97024EEA2E04003FC
:1044F00002460390E367E0640F6003024603740121
:104500006EFA024730121367AA08AB09121A2190FB
:10451000E39FE0F9121A2D8A088B09EA7001EB700B
:10452000030245FA8A828B83E01207FC0140419521
:10453000450B205545215A45228345235F45257467
:1045400045267945297E45318845339B4536E945E1
:10455000370545084512132B80AE12133180A99000
:10456000E339E07002A3E0609F90E33912542A120D
:10457000053B809412133D808F12134F808A1213D3
:1045800061808512133780808A828B83A3E0F912C1
:10459000135B02450812157D0245088A828B83A3AE
:1045A00085820A85830BE0F91212AD850A82850B9C
:1045B00083E064EB600C850882850983A3E064E1F5
:1045C0007009E4850882850983A3F0750A01780AD9
:1045D000120745850882850983A312543712546354
:1045E00012050A12137F0245087AF08508828B8330
:1045F000A3A3E0F912131F024508EEFA74806FFBC3
:10460000024730EE542070030246E9750A007C022E
:104610007D007A207B0090E39FE0F9121B237C0051
:1046200079047A007B001213A98A088B0980187418
:1046300001850882850983A3A3A3A3A3A3A3A3A39E
:10464000F0850C08850D09E5087002E509606E7CAF
:10465000007904AA08AB091213A98A0C8B0D750AFC
:1046600001E508240412598824FFF0A3E034FF1266
:1046700051277002A3E070C9850882850983A3A32E
:10468000A3A3A3A3A3A3A3A3E0640170A2850882AC
:10469000850983A3A3A3A3A3A3E054047091740684
:1046A000850882850983A3A3A3A3A3A3A3A3A3F03F
:1046B0007AB78508828509831247D8808412137FD0
:1046C0007C0079017A007B001213A9EA7001EB707B
:1046D00010E50A700C7A207B0090E39FE0F9121B32
:1046E0002974206EFAEF0245FFEE54106007121590
:1046F00011741080EEEE544060071215657440800E
:10470000E2EE54806007121253748080D674045F06
:10471000F9E47001E9601590E3311255CA12144BA7
:104720007901124733EEFA74040245FE7A007B00E9
:10473000025CAB90E3601255CE12128F22E4124756
:104740004222F0851082851183AA82AB832274F401
:10475000120550EAFEEBFF7508018E828F83A3A33A
:10476000A3A3A3A3E054408E828F836005124B4F16
:104770008006124B4F1214E774FE6A700374FF6BCD
:10478000602F8E828F8312542AEAF0A3EBF012146A
:10479000BDE98E828F8360061247D1E480051247FF
:1047A000D17401F01255C6120F94E9F50970058015
:1047B000127509CDAA098E828F831247D8E960034A
:1047C000750800A908EEFAEFFB12138BA909025C29
:1047D00092E0240D12508722E0240C1247E21213BB
:1047E0001F22F8125141F922C082C08312131FD038
:1047F00083D08202009A74F6120550E9FEEAFF7A2D
:104800000B7B00121A1BEA7001EB601E74208A8277
:104810008B83F0EEA3A3F0EF8A828B83A3F090E367
:104820009FE0F9121A277900800279107F020206B0
:104830001474F2120550EAFEEBFF8C088D09890A08
:10484000740E120531E0F50CA3E0F50D850C82F530
:1048500083E4F0A3F01259911250D9602D8E828F0B
:1048600083A3A3A3A3A3A3A3A3A3125114701B8E7A
:10487000828F83A3A3A3A3A3A3A3A3A312538A8575
:104880000C82850D831253A08003750A0012599182
:1048900012492512078001052049A648C748D74874
:1048A000E7482049124912599C64067073780C122B
:1048B0000741AC08AD09EEFAEFFB1214F3740212D3
:1048C000050AE9F50A805912599C64087052EEFAFB
:1048D000EFFB1214F9804912599C64047042EEFAFD
:1048E000EFFB12150B803912599C64027032E50AF5
:1048F00070178E828F83A3A3A3A3A3A3A3A3A31242
:10490000511E7003A3E0697017EEFAEFFB121487D3
:10491000800E12599C64027007EEFAEFFB12146FBE
:10492000A90A025CABE0F8125430E02274F41205DC
:104930005074E51204FB8A088B098A828B83A3A337
:10494000E0F91213AF8A0A8B0BAE0AAF0BEE7001BF
:10495000EF7003024A6A850882850983A3E064F147
:104960006033850882850983A3E064CD60278508CC
:1049700082850983A3E0641A601B85088285098308
:10498000A3E064E9600F850882850983A3E064E100
:104990006003024A728E828F83A3A3A3A3A3A3A35F
:1049A000E05408F9E47001E960057405024A4F79A2
:1049B0000012138BE97003024A728E828F83E02407
:1049C0001C125083E07002A3E0605F1255C67403AE
:1049D000120531AC82AD83EA241BF582EB1259A299
:1049E000F9EA241CF582EB12599712509D85088232
:1049F000850983A3E064E9700E124B3E12074579E6
:104A0000E912544D12050A740C120531125445E096
:104A1000FAA3E0F5838A821253A0740E12053112B4
:104A200050CF740C1205311250968E828F83A3A33F
:104A3000A3A3A3A3E04420F0A3E0F08E828F83A37E
:104A4000A3A3A3A3A3A3A3A3E06402701074068E80
:104A5000828F83A3A3A3A3A3A3A3A3A3F085088208
:104A6000850983A3A3E0F912139112137F741B022B
:104A70005C8F850882850983A3E0C0E0740212057B
:104A800031D0E0F0851082851183EEF0A3EFF0EED7
:104A9000240B12599F851082851183AA82AB8370E3
:104AA000051212718003121493850882850983A36D
:104AB000E064F16041850882850983A3E064CD60EC
:104AC00035850882850983A3E0641A6029850882F8
:104AD000850983A3E064E1601D7402120531E0647E
:104AE000B76013124B3E1207457403120531E0F90B
:104AF00012544D12050A8E828F83A3A3A3A3A3A3EE
:104B0000A3A3A3E064026003024A3B8E828F83A3C7
:104B1000A3A3A3A3A3E054047003024A4D8E828F83
:104B200083124B4F1214BDE9700F8E828F83125483
:104B30002A74FFF0A3F00249AA7403024A4F8E823E
:104B40008F8312538EE8FAE9FB750A01780A221264
:104B5000542E1255CE2274F012055074DD1204FB4F
:104B6000851082851183EAF0A3EBF07404120531FD
:104B70001253967406120531E4F0A312512E7002FE
:104B8000A3E0700302506E7408120531AC82AD834D
:104B9000851082851183E0242D181250A48510827F
:104BA000851183E0242E12507812509D90E34BE043
:104BB000603F740E120531E0601F741D120531E074
:104BC000FD7409120531E0FC1250ECFB790112155D
:104BD000BFE9600302506E802390E34AE0601D74D9
:104BE0001112053112511E7003A3E069600E0250CC
:104BF0006E740E120531E0600302506E7508007885
:104C0000081207457401120531E0241EF81250A461
:104C10007401120531E0241A1250781250CF740139
:104C20001205311250A812546312050A740E1205AF
:104C300031E07003024D19851082851183E0241A3A
:104C40001250831250CF8510828511831250F3FACF
:104C5000A3E0FB1214397402120531EAF0A3EBF061
:104C60007402120531E07002A3E0700302506E740A
:104C700009120531E0FA1250D52AF8A3E03400F900
:104C8000740D28F582E439F583E0FA7402120531D7
:104C90001250F36A601F7402120531125430A3A33C
:104CA000EAF090F9D078081203AE740212053112BE
:104CB00050C81203D079047409120531E0FA851046
:104CC00082851183E0242EFCA3E03400FD8C828DCC
:104CD00083E02AFCA3E034008C82F583A3AA82AB94
:104CE00083121A098A088B098C0A8D0B740212052B
:104CF000311250A8A3780C1203AE780C7908120177
:104D0000A5500302506E90FA1A780812033B740201
:104D10001205311250C81203D01214A5E9FA740B0F
:104D2000120531E06A600302506E90E362E06404B1
:104D30006003024DD6741112053112511E7003A387
:104D4000E06960177411120531125114600D740D71
:104D5000120531E06401600302506E740A120531DD
:104D6000E070201250BB1207547404120531125027
:104D7000E3120531AA82AB83121277740412050A7A
:104D800002506E741E1205311249256404701C74A1
:104D90001D120531E06402600302506E74081205B2
:104DA00031AA82AB8312148702506E741E12053131
:104DB0001249276407600302506E741D120531E02A
:104DC0006404600302506E7408120531AA82AB833A
:104DD00012147B02506E7E007417120531E06026BB
:104DE0001250ECF5838A82A3A3A3A3A3A3E0141219
:104DF000512712542FA3A3A3A3A3A3E0C0E07417C9
:104E0000120531D0E0F0741112053112511E7003F9
:104E1000A3E069600D741112053112511460030290
:104E20004F06740A120531E0600C741E120531122F
:104E300050D9640170567411120531125114704C1E
:104E40001250FC120531AA82AB8312156BE9703C3B
:104E500012142DE9FE7417120531E0602F1250FC78
:104E6000120531AA82AB83121571E9601D7411120B
:104E7000053112538A74041205311253A0740612BC
:104E800005317404F0A3E4F080027E00740A120578
:104E900031E07031741112053112511E7003A3E01C
:104EA000696003EE60501250BB120754740412057F
:104EB000311250E3120531AA82AB831212777404C7
:104EC00012050A8031740412053185820885830930
:104ED0007808120741EEF974021205311250F3FC02
:104EE000A3E0FD740A120531AA82AB831213257464
:104EF0000212050AE9FE7417120531E06003024F41
:104F00008B7E00024F8B7417120531E07018790008
:104F100074111205311250CF74131205311255CA93
:104F200012150502506E121385E9600302506E746B
:104F30001112053112538A74041205311253A074F0
:104F4000131205311250CF7411120531125096E927
:104F5000600C74061205317420F0A3E480277411EC
:104F60001205311255CA740C120531E0F91215B34D
:104F7000E9601374061205317420F0A3E412512E77
:104F8000124926543FF012142DE9FE740412053123
:104F9000E064FE7004A3E064FF700302506EEE70E4
:104FA0000302506E85108285118312510CFA7B002A
:104FB000121A7B8A0C8B0DEA7001EB700302506EA3
:104FC0001250D5F508A3E0F509750A007808120714
:104FD0003D740312053112510CFC7D001219F77457
:104FE0000312050A90E34AE07008740E120531E0DE
:104FF0006023741D120531E0FD7409120531E0FCD7
:10500000AA0CAB0D79001215BFE96009AA0CAB0D13
:10501000121A818059740A120531E0C0E07420121E
:105020000531D0E0F07421120531E4F0A3F07420D2
:1050300012053185820885830978081207417408B2
:10504000120531120758EEF5087808120745740565
:1050500012053112510CF974091205311250CFAA00
:105060000CAB0D1213EB740512050AE9709E742344
:1050700012050A7F08020614FAA3E03400FB8A82B4
:105080008B832212508722F812508C22A3E0340026
:10509000F988828983221255CE1214ED221255CE40
:1050A0001213FD221247E3221250AC221250B022FA
:1050B000E0F8A3E0F5838882A3A3228510828511FE
:1050C00083E02414125087221250ACA3780822E007
:1050D000FCA3E0FD221251332212542EE0F91214E7
:1050E00099E922E0241E1247E2740C22125133FA8D
:1050F000A3E0221250F7221250B0E02285108285E0
:1051000011831250F7FCA3E0FD740822E0242D1255
:105110005087E0221255CE1214BDE96402221253C8
:105120008E90E353E06822F088828983E022F012B7
:10513000513322851082851183E0242EF8125141CB
:105140002212508CE02274F112055074EA1204FB12
:105150008A0C8B0D1253768A088B097F01850C828D
:10516000850D83A3E0F50EE50C2402FCE50D125C31
:10517000977408120531125396740A12053174029D
:10518000F07413120531E4F090F96BE07011E5084A
:105190007002E5097009E50E70057FC30252E690C2
:1051A000E362E0640860057FC20252E2850C8285FA
:1051B0000D83A3A3A3A3A3A3A3A3A3A3E0A2E1504E
:1051C0000CA2E350047E04800E7E03800AA2E3500A
:1051D000047E0280027E01E5087002E509607485A4
:1051E0000882850983A3A3A3A3E06404600F850854
:1051F00082850983A3A3A3A3E06403700A74046EE9
:10520000602C74036E6027850882850983A3A3A39D
:10521000A3E06402600F850882850983A3A3A3A38A
:10522000E06401701C74026E6004EF6E70138508F8
:105230008285098312538A74081205311253A080A3
:1052400012125368850882850983125D677508000C
:105250007509007408120531E064FE7004A3E0646F
:10526000FF7021850C82850D83A3A3A3A3A3A3A311
:10527000A3A3A3E05402F91215177408120531EA2A
:10528000F0A3EBF07408120531E064FE7004A3E0B3
:1052900064FF70047FC7804AE50E7020850C82850C
:1052A0000D83A3A3A3A3A3A3A3A3A3A3E012535A71
:1052B0001205311255CA121295E9702AEE12535A8C
:1052C0001205311253838A088B09EA7001EB600AD8
:1052D000740A120531E4F01F8008740812053112B7
:1052E0005396E50E700F851082851183AA82AB83D9
:1052F000120E28800FEEF9851082851183AA82ABE9
:1053000083121475E9FAE5087002E509600F850853
:1053100082850983A3A3A3A3A3A3E004F0EF7003F2
:10532000EA602DFC7D007A017B101220E1E5087017
:1053300002E50960031253687408120531E064FE47
:105340007004A3E064FF60087408120531125D6701
:10535000741612050A7F07020614F9E50C2402FCF4
:10536000E50D3400FD740822E50C2402FAE50D3445
:1053700000FB12120B22EA24020A0AEB3400FB1291
:1053800011FF221255CE1211ED2212538E22E0F897
:10539000A3E0F922A3A374FEF0A374FFF022A3A359
:1053A000E8F0A3E9F022C082C08390E32FE070020E
:1053B000A3E0704790E362E01207FC000301C853CA
:1053C00005DD5306EC53FB5390E337E07002A3E096
:1053D000604A90E33712542A12053B803F90E33332
:1053E000E07002A3E0603590E33380E990E335E0BC
:1053F0007002A3E0602690E33580DA790090E3A0A4
:1054000080080912541FEB1259971255CAEA70010D
:10541000EB70EF90E3A01255CA12127D0247EFEA3B
:105420002415F5822279C490E33B12542E22E0F831
:10543000A3E0F583888222E0F990E360E0FCA3E03A
:10544000FD90E3562212538E8E828F83228A828BA6
:1054500083A3A3A3A3A3A3A3A3A3E0FCA3E0FD8A28
:10546000828B831255CE12143374012274F4120508
:105470005074EB1204FB8A828B83A3A3A3A3780846
:105480001203AE78081202E090E3637808120388F2
:105490007D7F7E7F7C00750801750900750A0075A7
:1054A0000B00EC780812030990E363780812037587
:1054B00090F9D07808120166602C7F0090E3A080FC
:1054C0001388828983A3A3E06C70010FE812542033
:1054D000E912599712538AE87001E970E4EFC39D0D
:1054E0005004EFFDECFE0CECC3941B40A98A828BA8
:1054F00083A3A3A3A3C082C08390F9D0780812032A
:10550000AED083D0827808120166607FEA2404F866
:10551000EB3400F9E8FAE9FB8A828B8378081203FE
:10552000AE90E36378081203D08A828B83780812E6
:1055300003AE85108285118378081203D07404129B
:1055400005317401F090E369E0C0E07405120531A3
:10555000D0E0F074071205311256CD80648882893C
:10556000831255CA90E360E06A7003A3E06B702079
:1055700088828983A3A3E06E701690E3601255CAF7
:105580001212B990E360EAF0A3EBF090E3A0800878
:10559000E8125420E912599712538AE87001E97011
:1055A000BCEE90E355F0121355E96015E490E36208
:1055B000F090E33BE07002A3E06006125425120570
:1055C0003B7415025C8F8E828F831255CE22E0FAD7
:1055D000A3E0FB2274F212055074EB1204FB8A82E2
:1055E0008B83A3A3A3A3A3A3A3A3A3E0F50CA3E08E
:1055F000F50D7E00750801750900750A00750B0030
:10560000EE780812030990E363780812037590F9A5
:10561000D0780812016660358E08E50C2508F58201
:10562000E50D1259A2FF1214ABE9C39F501F750874
:1056300001750900750A00750B00EE780812030960
:1056400078081202E090E36378081203880EEEC334
:10565000941B40A090F9D078081203AE7583E375CF
:1056600082637808120166604190E3637808120350
:10567000AE85108285118378081203D07404120558
:10568000317401F074071205317401F090E369E0A0
:10569000C0E07405120531D0E0F074071205311234
:1056A00056CD740690E362F0801EE490E362F0FC55
:1056B000FD7A047B101220E190E33BE07002A3E04E
:1056C000600612542512053B7415025CA8E41247CB
:1056D00042120E532274F212055074F11204FBEAC6
:1056E000FEEBFF90E362E064026012E06406600D8E
:1056F00090E32FE07002A3E070030259708E828F56
:1057000083A3A3A3E0F508A3E0F509851082851122
:1057100083AC82AD83790B8E828F83A3A3A3A3A3D3
:10572000A3A3A3A31255CA121373851082851183F4
:10573000E060030259708E828F83A3A3A3A3A3A367
:10574000A3A3E0C39403500302597085088285091E
:1057500083A3A3A3A3A3A3A3A3E0640260030259AA
:105760007090E32FE07002A3E07021750A00780AC0
:1057700012074512597F1259971259BCFCA3E0FD3C
:1057800085088285098312546312050A90E3A012EA
:105790005CBD90E3A0E0F50AA3E0F50B80378E82B4
:1057A0008F83E0F8A31259BC687003A3E0697019F5
:1057B0008E828F83A3A3E0FAE508240DF582E50924
:1057C0001259A26A700302584B8E0A8F0BEE1254C4
:1057D00020EF125CB9EE7001EF70C37A177B0012F4
:1057E0001A7B8A0C8B0DAE0CAF0DEE7001EF7003BF
:1057F00002597090E3A0E07002A3E0700590E3A06E
:10580000800AE50A125420E50B125997EEF0A3EF37
:105810001259CFA3125394EE240C12599474FFF032
:10582000E48E828F83A3A3A3A3A31259CFF0EE2407
:1058300015125994E4F0A3F0E508240B12598812CC
:105840005975125127C4125975A3F074011205310C
:105850001259AFA3F074021205311259AFF0E508E6
:10586000240DF582E5091259971259A8A3F085086D
:1058700082850983A3A3A3A3A3A3A3A3A31254452F
:105880001253A07402120531E06401601174071212
:105890000531AC82AD83125CB01219FD800C7C081E
:1058A0007D0079FF125CB0121A0390FA3CE0C0E070
:1058B00012597F1259A2FAD0E0C39A4003025970DC
:1058C000E508240BF582E509125997A3E05480F905
:1058D000E47001E9700990F52AE0700302597074D0
:1058E000041205311259A8A3A3A3A3700DE07057A9
:1058F0007406120531E07005804DE06015740512E4
:105900000531E0C0E0EE240C12599FFAD0E0C39AB2
:105910005035850882850983125445A3A3A3A3A308
:10592000A3A312539E12597F1259A2C0E0EE240B7A
:10593000125994D0E0F07405120531E0C0E0EE2475
:105940000C125994D0E0F07406120531E0600D7429
:10595000018E828F83A3A3A3A3A3A3F074041205D3
:1059600031E0600C74018E828F83A3A3A3A3A3F004
:10597000740F025CA8540F8E828F83A3A3A322E529
:10598000082410F582E50922F8E5093400F90251EE
:1059900028EE2416F582EF3400F58322EE2415F567
:1059A00082EF3400F583E022E08E828F83A322E031
:1059B0008E828F83A3A3A3A3A3A3A322E0F98508C8
:1059C00082850983A3A3A3A3A3A3A3A3A3E0221275
:1059D0005E28A3A32274F412055074CD1204FB9028
:1059E000E362E06408606D90E373E0F82430F582D0
:1059F000E434FAF583E0F50890E344F0E82436F562
:105A000082E434FAF583E0F50990E342F0750AFF89
:105A1000750BFFE508780A1204E8E50AF4F8E50BCF
:105A2000F4F93395E0FA90E36BE8FCE9FDEAFE1245
:105A30005B80750AFF750BFFE509C39508780A12AC
:105A400004E8E50AF4FCE50BF4FD3395E0FE90E391
:105A50006F125B80E4851082851183F0AA82AB838C
:105A60007904120DF990E373E07009741A1205318C
:105A700074018006741A120531E4F0740B851082EB
:105A8000851183F090F96D12473E7946120DF97435
:105A900001120531E4F090FA0CE0C0E07402120546
:105AA00031D0E0F01214A57403120531E9F074044A
:105AB000120531E4F07405120531E4F074071205A3
:105AC00031E4F090E373E0C0E07406120531D0E0F9
:105AD000F07C747DE37408120531AA82AB8312193D
:105AE000FD90F96DE0F97CA27DE37401120531AA05
:105AF00082AB8312136D7AA27BE37945120DF91202
:105B0000146990E367E0C0E07418120531D0E0F04A
:105B100090E368E0C0E07419120531D0E0F090E342
:105B200055E0C0E07416120531D0E0F090E3601249
:105B3000538A74141205311253A0741C120531E4F7
:105B4000F090E36AE0C0E0741B120531D0E0F0741D
:105B500030120531E4F07425120531E4F07A537BFC
:105B6000E37953120DF97A567BE3794B120DF974F0
:105B700010120531AA82AB83120F567433025C8F68
:105B8000ECF0A3EDF0A3EEF0A3F022C082C083E915
:105B90006007E490E362F08047740890E362F0905D
:105BA000E373E0701C90E33BE07002A3E0600879CF
:105BB0000012542712053B90E3601250CF7A058003
:105BC0001A790012128990E3531250CF7A067B00A3
:105BD0001220E190E3561250CF7A047B001220E1AC
:105BE0000247EF74F412055074EA1204FB8A088B22
:105BF000091253768A0A8B0BAE0AAF0BEE7001EFD7
:105C00007003025C8D8E828F83A3A3A3A3E0640143
:105C100060278E828F83A3A3A3A3E06402601A8E01
:105C2000828F83A3A3A3A3E06403600D8E828F837E
:105C3000A3A3A3A3E064047054E5082402FCE509CF
:105C4000125C978E828F8312538A74081205311268
:105C500053A0740A1205317401F074131205311245
:105C6000473D120E358908AC087D007A077B00128B
:105C700020E18E828F83A3A3A3A3A3E0C2E0F074EC
:105C8000028E828F83A3A3A3A3A3A3A3F0741612EF
:105C9000050A7F040206143400FD851082851183F5
:105CA000AA82AB831219FD2212050A7F060206148E
:105CB000EE240DFAEF3400FB223400F583E0FEA35E
:105CC000E0FF2274F41205508A088B09EA2413F5C8
:105CD00082EB1259A264037009EA240BFA12537B77
:105CE0008014E06402707DEA240BF582EB12599770
:105CF0001255CA1211F98A0A8B0BAE0AAF0BEE705D
:105D000001EF6060850882850983A3E0700DE48E51
:105D1000828F83A3A3A3A3A3A3804864F1600C850F
:105D20000882850983A3E064E170208E828F83A3BB
:105D3000A3A3A3A3A3E0640170118E828F83125DDD
:105D400067E508240BFAE50912536F8E828F83A34F
:105D5000A3A3A3A3A3E0600C8E828F83A3A3A3A31A
:105D6000A3A314F0025C921255CE1215232274F5EF
