:020000040000FA
:030000000200D229
:03002B00020B6C59
:03003300020B516C
:03004B00020B8322
:03005300020BAAF3
:03005B00020B9203
:03006300020B9EEF
:03006B00020B1570
:03007B00020B2B4A
:10008300020BE3C4F5F0E5C75430C4C0E0E5C75440
:10009300CF45F0F5C7E47385C7F053F0CFD0E0C484
:1000A30045F0F5C722D083D082E5C7C45403C0E02E
:1000B300E493C0E0740193C0E0740293C45430F538
:1000C300F0E5C754CF45F0F5C72200000080FB756B
:1000D300D0007581407510007511F1000200E21225
:1000E3000163B9000302014DE490F1007880790BBC
:1000F3008002F0A3D8FCD9FA90FB7FAA82AB83904D
:100103001C8A78DF79018015E493A3AC82AD838ADE
:10011300828B83F0A3AA82AB838C828D83D8E9D9A7
:10012300E790F100AA82AB83901C8A780179018061
:1001330015E493A3AC82AD838A828B83F0A3AA8256
:10014300AB838C828D83D8E9D9E775820A75830ADC
:1001530074001200867582CD7583007400120086C8
:10016300790122E066701008A3E066700A08A3E034
:1001730066700408A3E06622C3E09608A3E096082D
:10018300A3E09608A3E096A2D265D03322C3E796F4
:100193000809E7960809E7960809E79622C3E09657
:1001A30008A3E09608A3E09608A3E09622BB010209
:1001B300E722C082C08389828A83BB0003E0800276
:1001C300E493D083D08222080808EAC0E0EBC0E0C1
:1001D30086F0E7A4FA180986F0E7A42AFA18098634
:1001E300F0E7A42AFA180986F0E7A42AFA1986F098
:1001F300E7A4FBE5F02AFA190886F0E7A42BFBE550
:10020300F03AFA190886F0E7A42BFBE5F03AFA185E
:10021300180986F0E7A4C5F02BFBE43AFA1908E7BE
:10022300C5F0C6A426F6E5F03BFBE43AFA1886F0DF
:10023300E7A4F6E5F00826F6E43B08F6E43A08F608
:10024300D0E0FBD0E0FA22E4CFC0E0E4CEC0E0E4AB
:10025300CDC0E0E4CCC0E075F020C3E633F608E699
:1002630033F608E633F608E633F6181818EC33FCD1
:10027300ED33FDEE33FEEF33FFC3EC9709ED970942
:10028300EE9709EF97191919400FFFEC97FC09ED49
:1002930097FD09EE97FE191906D5F0BEECF709EDA7
:1002A300F709EEF709EFF7191919D0E0FCD0E0FDD3
:1002B300D0E0FED0E0FF22E4C396F608E496F60809
:1002C300E496F608E496F622C6F4C608C6F4C60811
:1002D300C6F4C608C6F4C6226016080808C6C313C7
:1002E300C618C613C618C613C618C613C6D5E0EA81
:1002F300227009080808226016181818C6C333C6E6
:1003030008C633C608C633C608C633C6D5E0EA22D4
:10031300E627F60809E637F60809E637F60809E698
:1003230037F622E026F608A3E036F608A3E036F611
:1003330008A3E036F622E026F008A3E036F008A38F
:10034300E036F008A3E036F022C3E096F008A3E01D
:1003530096F008A3E096F008A3E096F022E056F0AA
:1003630008A3E056F008A3E056F008A3E056F022F5
:10037300E0F608A3E0F608A3E0F608A3E0F622E619
:10038300F008A3E6F008A3E6F008A3E6F022CAC04B
:10039300E0E6F0A308DAFAD0E0FA22CAC0E0E0A36C
:1003A300C582CCC582C583CDC583F0A3C582CCC528
:1003B30082C583CDC583DAE6D0E0CA22CAC0E0E4B1
:1003C30093A3C582CCC582C583CDC583F0A3C58263
:1003D300CCC582C583CDC583DAE5D0E0CA22C3E4A8
:1003E30098F8E499F91204228026C3E49AFAE49B6C
:1003F300FBE920E7E9120422E498F8E499F922C31F
:10040300E498F8E499F9120422E498F8E499F9C31A
:10041300E49AFAE49BFB22EB20E7CFE920E7E0B97B
:100423000010BB0008E88AF084F8AAF022E4FBC8B5
:10043300FA22EB70227B10C833C8C933C933500783
:10044300C39AC3DBF280069A50012ADBEAC833F46D
:10045300C8C933F4C9FA2275F008E4C833C8C933EC
:10046300C933C99AC99B5004C92AC93BD5F0ECFBCF
:10047300C833F4C8E4C9FA22600D08C6A2E713C65C
:1004830018C613C6D5E0F322600C08C6C313C618FA
:10049300C613C6D5E0F422700422600D18C6C33318
:1004A300C608C633C6D5E0F418222510C0A8C2AFCB
:1004B30040021511F510D0A822C0D02510C0A8C243
:1004C300AF50020511F510D0A8D0D0222510F58227
:1004D300C0A8C2AF40021511F510D0A88511832220
:1004E3002510F582E43511F58322E473C0E0E8C0FA
:1004F300E0E58124FCF8E6A2E7D0E0F8D0E022258D
:1005030010C582C0E0E51134FFC583C0E0E510C328
:10051300958224F8C0A8C2AF858311858210D0A824
:10052300CEF0A3E520F0A37808E608F0A3DEFAEF07
:10053300F0A3E58124FAF8E608F0A3E608F0A3E6C1
:1005430008F0A30808E608F0A3E608F0A315811550
:1005530081D0E0FED0E0F8158115811581E8C0E077
:10056300EEC0E0222510C582C0E0E51134FFC5834B
:10057300C0E0E510C3958224F9C0A8C2AF858311FA
:10058300858210D0A8CEF0A3E520F0A37808E60872
:10059300F0A3DEFAEFF0A3E58124FBF8E608F0A36D
:1005A300E608F0A30808E608F0A3E608F0A315811F
:1005B3001581D0E0FED0E0F815811581E8C0E0EEAA
:1005C300C0E022851183851082E0A3FEE0A3F5201D
:1005D3007808E0A3F608DFFAE0A3FFE0A3C0E0E0B9
:1005E300A3C0E0E0A3C0E0E0A3C0E0E0A3C0E085D7
:1005F300A8F0C2AF85821085831185F0A8D083D07F
:100603008202009A851183851082E0A3FEE0A3F5A0
:10061300207808E0A3F608DFFAE0A3FFE0A3C0E038
:10062300E0A3C0E0E0A3C0E0E0A3C0E085A8F0C27F
:10063300AF85821085831185F0A8D083D08222C034
:10064300D02510C582C0E0E51134FFC583C0E0E5C5
:1006530010C3958224F3C0A8C2AF8583118582108D
:10066300D0A8C8F0A3E9F0A3EAF0A3EBF0A37908BC
:10067300E709F0A3D8FAECF0A3EDF0A3EEF0A3EFB3
:10068300F0A3D0E0F0A3D0E0F0A3D0E0F0A3E52006
:10069300F0A3E5F0F0A322851183851082E0C0E08A
:1006A300A3E0F9A3E0FAA3E0FBA37808E0F608A32C
:1006B300DFFAE0FCA3E0FDA3E0FEA3E0FFA3E0C0BC
:1006C300E0A3E0C0E0A3E0F5D0A3E0F520A3E0A31E
:1006D300F5F0E5A8C2AF858210858311F5A8D08215
:1006E300D083D0E0F8D0E0327404800A740380062B
:1006F300740280027401C0E0F4041204CFD0E0124B
:100703000391227404800474028000CCC0E0EDC025
:10071300E0E510C39CCCAD1150011DC0A8C2AF8C45
:10072300108D11D0A812039ED0E0FDD0E0FC2274FE
:10073300028000CCC0E0EDC0E0E510C39CCCAD115D
:1007430050011DC0A8C2AF8C108D11D0A81203BFD9
:10075300D0E0FDD0E0FC22D083D082C5F0E493A3A7
:10076300C5F0C395F0F5F0E493A3C395F04005E518
:10077300F0048001E475F002A42582F582E5F035EA
:1007830083F583E493A3C0E0E493C0E022D083D055
:1007930082E9C0E0E493A3C386F0C5F095F0F908BD
:1007A300E493A386F0C5F095F0700BE493A3C3998B
:1007B3004005E9048002A3E475F002A42582F582D2
:1007C300E5F03583F583D0E0F9E493A3C0E0E49347
:1007D300C0E022D083D082CCC0E0E493A3600612B1
:1007E30008001470FAE493A3600612081F1470FA49
:1007F300D0E0FCE493A3C0E0E493C0E022C0E0E4D3
:1008030093A3D39C5010E493A3C39C400AD0E0D09D
:10081300E0D0E00207F3A3A3A3D0E022C0E0E49377
:10082300A36C7009D0E0D0E0D0E00207F3A3A3D01B
:10083300E022D083D082ECC0E0EDC0E0E493A3FCDF
:10084300E493A3FDED4C600D120881EC24FFFCED55
:1008530034FFFD80EFE493A3FCE493A3FDED4C6030
:100863000D1208C0EC24FFFCED34FFFD80EFD0E057
:10087300FDD0E0FCE493A3C0E0E493C0E022C0E039
:10088300C3E49396087401939618400FE49366703B
:100893000808740193661870007019A3A3C3E49346
:1008A30096087401939618A3A3400DD0E0D0E0D02E
:1008B300E0020871A3A3A3A3A3A3D0E022C0E0C0D6
:1008C300F088F0E49366700808740193661870006A
:1008D300A8F0A3A3700BD0F0D0E0D0E0D0E00208E2
:1008E30071A3A3D0F0D0E022EC23F5F0EB548023E6
:1008F30045F0C4F5F064207004EB4480FBE5C7FCCD
:1009030054CF45F0F5C7E48B838A8293F98CC722D1
:100913007800800A78018006780480027808C08312
:10092300C082C085C084C09F759F03C3E99430759E
:10093300F008A444804BF5858A84E87013851082FF
:10094300851183E0700104F8A3E0700104F98002CB
:1009530079018C828D8310AF11759201E493A37595
:100963009200F0A3D8F3D9F18013C2AF759201E4DA
:1009730093A3759200D2AFF0A3D8EFD9EDD09FD057
:1009830084D085D082D08322C083C082C085C084B6
:10099300C0C77583F87582DAC083C082758509750F
:1009A30084F475F016780110AF027800759201E0B7
:1009B300A3759200F0A3D5F0F3E86002D2AFD08222
:1009C300D0838B858A84780110AF0278008DAD8C3B
:1009D300AC75C7511209F2759200E5AE20E7FBE84A
:1009E3006002D2AFD0C7D084D085D082D08322E436
:1009F3007375920175AE027A04E0F5AFA3DAFAE5F6
:100A0300AE20E6FBD9F12279FF12167853BEFBE53F
:100A1300BEA2E650FA0078F8790100E824FF18E94D
:100A230034FFF9E87001E970F175C600E5C670FCA2
:100A330043BE0443FE0143FE08438F20120AB678E7
:100A4300108682088683800374CDF0120AA9C374CA
:100A530000958274EE958340EF7582FF7583008065
:100A630004A88276CDE581F508120AA9750900C3A9
:100A7300E5089582E4958340E8790012176E121910
:100A8300247A007B001216FC1218E8120C47121588
:100A93004012167E79FF121672790212176E121621
:100AA300847A007B0022E58224FFF582E58334FF0C
:100AB300F5832274F81205677E007F00790412190A
:100AC30006E960190E7A107B2712178CEE601EC39D
:100AD300940340E8D290D2937F010206077E007A06
:100AE300507BC312178C7A507BC312178CEF7004A0
:100AF3007A0180027A00EAFF600CA2905004C2904F
:100B030080BAD29080B6A2935004C29380AED2939F
:100B130080AAC0E074F2120642120B4640057589A2
:100B230022C2C57F0102069AC0E074F21206429007
:100B3300DF60E0C394045002C2EB120B464002C2D2
:100B4300EB80E012194E90DF60E0C3940422C0E012
:100B530074F212064290DF60E0C394045002C2E8CC
:100B6300120B464002C2E880BAC0E0C0D0C082C0C7
:100B730083C2C790DF60E0D083D082D0D0D0E03290
:100B8300C0E074F21206421219C07F0102069AC035
:100B9300E074F21206421219C680EFC0E074F2123A
:100BA30006421219CC80E3C0E074F2120642E59EBD
:100BB300FAE5C35A54206005121A26801EE5C35A6B
:100BC3005440601790DF07E0FA90FA74E0C39AA2EA
:100BD300D265D0335002EAF075C3A37F0102069AAF
:100BE300C0E074F2120642E591FAA2E0C0D0E5E952
:100BF300A2E092F01204EF158182F0500875E9FE2D
:100C0300121A628037E5E95A5402600875E9FD1249
:100C13001A688028E5E95A5440600CC2AF5391BF6B
:100C2300D2AF121B7C8015E5E95A5420600E121BCB
:100C33005275E9DF90DF62E0A2E240F2759B007536
:100C4300E9FF809774F81205671214B01213E47960
:100C530001120C6CE9FE79FF121678EEF980057427
:100C6300011204BC7F0102060774F812056774FFC2
:100C73001204AD1214A4E9FEE4851082851183F0F9
:100C8300AA82AB8379561214C87A137BF979E212DC
:100C930014C890FB7DE07002A3E0601290FB7DE03E
:100CA300FAA3E0FB12169C90FB7DE4F0A3F0EEF9AF
:100CB30080ADC082C08374E269700B7C137DF9122E
:100CC300161E790080031214C2020E2B74F812054B
:100CD300678908EAFEEBFF74E26508700BEEFCEF30
:100CE300FD7A137BF912161EEEFAEFFBA908121414
:100CF300C8020C67C082C083EA2416120D071213C0
:100D0300EA020E29F582EB120D1822EA2413F5826A
:100D1300EB120D18223400F583E4F02274F512056A
:100D230067EAFEEBFF8E828F83780812037390FBD2
:100D330079780812038290FB7DE07002A3E06005DE
:100D430079FC020E1D8E828F83A3A3A3A3E0640309
:100D53007003020E008E828F83A3A3A3A3E07047C8
:100D63007A1B7B001216968A088B09A808A909909A
:100D7300FB7DE8F0A3E9F0E87001E97005791A0258
:100D83000E1D7C1B7D00790012162490FB7DE02450
:100D93000BF8A3E03400F9EE2413F582EF120EEE04
:100DA300E8F0A3E9F080568E828F83A3A3A3A3A3C5
:100DB300A3A3E06048EE2413F508EF3400F5098E91
:100DC300828F83A3A3A3A3A3A3A3E075F021A4FA13
:100DD300ABF0121696850882850983EAF0A3EBF03F
:100DE300850882850983E0F8A3E0F990FB7DE8F0AC
:100DF300A3E9F090FB7DE07002A3E06080EE241095
:100E0300F582EF120D0A8E828F83A3A3A3A3A3A35C
:100E1300F0EEFAEFFB12150A79007F04020607C011
:100E230082C0831214AA7900D083D08222C082C0E8
:100E330083120D0E1213F080ED74F31205678A0C02
:100E43008B0D7B007A00E50C241BF582E50D120E59
:100E5300EEE0F91213608A088B09AE08AF09EE7051
:100E630001EF607D850C08850D09750A007808126D
:100E730006EF7C107D00EE2422FAEF3400FB1216FD
:100E83001874031204BCE50C241BF8E50D3400F9B7
:100E9300E8FAE9FB8A828B83E08E828F83A3A3A384
:100EA300A3F0E50C241CF582E50D120EEEE0F50827
:100EB300A3E0F50978081206EF8A828B83E0FC7DB4
:100EC300008E828F83A3A3E0FAA3E0FB12161874AB
:100ED300031204BCEE241F120EF312135A7900807E
:100EE30002791A7F06020607F582EB3400F58322A6
:100EF300F582EF120D18EEFAEFFB221200A8BF8C59
:100F0300011200A8FB8C011200A81A8D011200A87F
:100F1300AD8D011200A8A18E011200A8F08E01125E
:100F230000A89090011200A8D390011200A82D945C
:100F3300011200A8A896011200A89B97011200A80D
:100F43005898011200A81381011200A8BF8301124F
:100F530000A8D083011200A82684011200A8688487
:100F6300011200A8E584011200A8AA85011200A8B5
:100F7300B285011200A8D985011200A8E2850112E9
:100F830000A8E585011200A81386011200A87D863A
:100F9300011200A81688011200A8D488011200A823
:100FA3001689011200A8F789011200A8FA89011213
:100FB30000A8188A011200A8C78B011200A8288C68
:100FC300011200A8A88C011200A84FAF021200A8BA
:100FD3008DAF021200A8B8AF021200A858D60112B2
:100FE30000A86AD6011200A89BD6011200A80CD74C
:100FF300011200A8A8D7011200A85DD8011200A809
:10100300F0D8011200A80FD9011200A83AD9011291
:1010130000A883D9011200A8DFD9011200A8D4DAED
:10102300011200A87CDB011200A807DC011200A852
:10103300FE74011200A87E75011200A8B875011292
:1010430000A81576011200A8E177011200A8F9772C
:10105300011200A85478011200A8E478011200A834
:101063004179011200A85A7A011200A84A7B0112A1
:1010730000A8BF7B011200A8227C011200A8717C8A
:10108300011200A8BA7C011200A8A57D011200A8D4
:101093009D7E011200A8C87E011200A8137F0112D1
:1010A30000A8607F011200A8F67F011200A8A880A3
:1010B300011200A898EF011200A8B1EF011200A8D5
:1010C30001F0011200A8ABF0011200A8F8F0011220
:1010D30000A83BF1011200A8A4F2011200A851F4E8
:1010E300011200A8309D021200A8749E021200A8EB
:1010F3003FA0021200A848A0021200A851A00212A9
:1011030000A85AA0021200A868A0021200A871A0A9
:10111300021200A8CDC3021200A8C4FA011200A84B
:10112300E2FC011200A82EFE011200A8E4FE011247
:1011330000A8E04A011200A80B4B011200A8574D6A
:10114300011200A8994D011200A83E4E011200A8F9
:101153004C4E011200A8874E011200A8A24E0112A4
:1011630000A80D50011200A85E52011200A8E55319
:10117300011200A88254011200A85155011200A8BF
:101183006F58011200A80D59011200A84759011206
:1011930000A851E3011200A85FE3011200A888E34D
:1011A300011200A8AAE3011200A829E6011200A86F
:1011B3006FE6011200A8DDE6011200A8B4E70112F0
:1011C30000A8E9E7011200A840E8011200A887E897
:1011D300011200A8D7E8011200A82FE9011200A804
:1011E300393B011200A86A3C011200A8F93C011224
:1011F30000A81C3E011200A80440011200A894405C
:10120300011200A88841011200A80342011200A89C
:101213005642011200A8E043011200A8F043011254
:1012230000A8FD43011200A82144011200A829448B
:10123300011200A84744011200A85A45011200A850
:10124300B445011200A80946011200A85046011234
:1012530000A85C46011200A89A46011200A8914713
:10126300011200A87048011200A81349011200A836
:10127300B549011200A8D949011200A8024A011276
:1012830000A8204A011200A8644A011200A8674A74
:10129300011200A88F4A011200A8B84A011200A83F
:1012A3001DA3021200A84AA3021200A86EA30212F1
:1012B30000A8D4A3021200A81EA4021200A83CA4F2
:1012C300021200A8C3A4021200A809A5021200A8D2
:1012D3003FA5021200A81FC4021200A847C40212AD
:1012E30000A873C3021200A8BEC3021200A828C735
:1012F300011200A86DC7011200A8D4C7011200A8EB
:1013030025C8011200A85EC8011200A87FC80112F7
:1013130000A889C8011200A8A1C9011200A8C6C962
:10132300011200A848CA011200A85BCA011200A852
:101333006DCA011200A80FCB011200A804CC011240
:1013430000A810CD011200A8A2CD011200A8ACCDB7
:10135300011200A816CE011200A827CE011200A880
:1013630070CE011200A8F5DC011200A825DD0112E0
:1013730000A855DD011200A884DD011200A8BDDD1F
:10138300011200A81CDE011200A837DF011200A819
:1013930081DF011200A8B0DF011200A820E00112D2
:1013A30000A848E0011200A874E0011200A882E03E
:1013B300011200A8F0E0011200A82FE1011200A819
:1013C30071E1011200A8AEE1011200A8D1E10112FE
:1013D30000A8DCE1011200A8FAE1011200A8D8E29A
:1013E300011200A8EBE2011200A82DE3011200A8EC
:1013F30046E3011200A81F8A021200A85C8A0212A7
:1014030000A8728A021200A8848B021200A89B8B88
:10141300021200A8AF8B021200A8498C021200A886
:101423009E8C021200A8668D021200A8728D021211
:1014330000A86498011200A89998011200A8B39813
:10144300011200A8F798011200A84B9B011200A8F3
:10145300CE9B011200A86E9C011200A8CB9E011224
:1014630000A8DA9E011200A8DD9E011200A8E59EE5
:10147300011200A8029F011200A8149F011200A8E4
:10148300469F011200A80BA0011200A87CA0011224
:1014930000A8E7A0011200A889A1011200A847A291
:1014A300011200A875A2011200A814A3011200A83A
:1014B30020A3011200A83DA8021200A864A80212EA
:1014C30000A88BA8021200A8FBA8021200A888C5D6
:1014D300021200A898C5021200A80080021200A8F8
:1014E3008580021200A88481021200A86E82021273
:1014F30000A80883021200A84584021200A8FF84F2
:10150300021200A83F85021200A87185021200A8EA
:101513009D8E021200A8798F021200A8DC8F02129E
:1015230000A87790021200A83791021200A8B09188
:10153300021200A8EB91021200A83092021200A836
:101543001FB6011200A82DB6011200A8A2B60112FF
:1015530000A8BDB6011200A80CB7011200A81CB95F
:10156300011200A8DFBA011200A8A3BD011200A84E
:10157300DABD011200A8F4BD011200A866BE011273
:1015830000A89ABE011200A8C9BE011200A815BF87
:10159300011200A8E759011200A8FF59011200A87F
:1015A300175A011200A85B5A011200A8DE5A011251
:1015B30000A8435B011200A8ED5B011200A8475D80
:1015C300011200A8AD5D011200A8EE5D011200A892
:1015D3007E5E011200A84360011200A8E6600112BA
:1015E30000A82365011200A89765011200A87A6676
:1015F300011200A89866011200A8BF66011200A894
:10160300D766011200A80367011200A82B67011215
:1016130000A83AF5011200A844F5011200A88EF5BE
:10162300011200A8ADF5011200A8CAF5011200A825
:1016330080F6011200A8BEF6011200A8C8F6011236
:1016430000A820F7011200A84DF7011200A8A4F783
:10165300011200A819F8011200A855F8011200A8F8
:10166300D0F8011200A849F9011200A8A9F9011242
:1016730000A8DBF9011200A8EBF9011200A8FBF99D
:10168300011200A81AFA011200A8A1B7021200A8B9
:101693000BB8021200A830B8021200A841B9021216
:1016A30000A80029011200A8A12A011200A8DC2A1F
:1016B300011200A8A82C011200A83E2D011200A8B7
:1016C300C72E011200A8102F011200A80830011222
:1016D30000A88730011200A80331011200A84A3183
:1016E300011200A89931011200A8D931011200A8F2
:1016F3002733011200A88934011200A86F360112A2
:1017030000A87C36011200A8D736011200A82B3797
:10171300011200A8E03A011200A872C5021200A843
:101723007992021200A8B392021200A84293021205
:1017330000A88193021200A8FE93021200A83C9411
:10174300021200A87294021200A8A994021200A81F
:10175300C294021200A8E894021200A8F79502129C
:1017630000A80996021200A864C4021200A80FBDC3
:10177300021200A8A5BD021200A8BCBD021200A857
:10178300FEBD021200A82DBE021200A849BE02121D
:1017930000A863BE021200A8B0AA021200A82CABD4
:1017A300021200A851AB021200A8AEAC011200A8AD
:1017B30021AD011200A8BDAD011200A82AAE01128D
:1017C30000A83EAE011200A843AF011200A8C2AFA9
:1017D300011200A8ECAF011200A851B1011200A838
:1017E3006CB1011200A8ADB1011200A8EEB1011253
:1017F30000A84BB2011200A85BB2011200A8B6B256
:10180300011200A8F3B3011200A835B4011200A815
:101813005EB4011200A8CAB4011200A8E1B4011217
:1018230000A8E4B4011200A801B5011200A886B50E
:10183300011200A8A9B5011200A80DB6011200A853
:101843008E67011200A8A867011200A85B68011245
:1018530000A8BB68011200A82269011200A86469EC
:10186300011200A8FB69011200A8956A011200A8E1
:101873002C6B011200A86A6B011200A812700112EE
:1018830000A8AE71011200A80172011200A84672ED
:10189300011200A87573011200A831A3011200A858
:1018A300DEA3011200A852A4011200A80CA5011284
:1018B30000A850A6011200A8BCA6011200A822A7E6
:1018C300011200A8B1A8011200A85CA9011200A886
:1018D300D9A9011200A875AA011200A85CAB0112D4
:1018E30000A8ACC5021200A891B9021200A8A3BABD
:1018F300021200A809BB021200A877BE021200A8B8
:10190300BCBE021200A86FBF021200A87ABB02126B
:1019130000A888BB021200A89BC5021200A8CEC271
:10192300021200A8DEC2021200A8FCC2021200A822
:1019330066C3021200A890B3021200A8B1B3021248
:1019430000A813B4021200A89AB4021200A861B549
:10195300021200A8BAC5021200A87C85021200A8D0
:101963008A85021200A80886021200A82E87021296
:1019730000A8BB89021200A89BE9011200A875EA1E
:10198300011200A805EB011200A8A3EB011200A8A5
:10199300C5EB011200A8F4EB011200A869EC0112D7
:1019A30000A8A6EC011200A828ED011200A86CED16
:1019B300011200A825EE011200A870EE011200A882
:1019C30099EE011200A8F2EE011200A851EF0112E4
:1019D30000A83CBF011200A870C1011200A8D4C125
:1019E300011200A893C3011200A8BCC4011200A8ED
:1019F30027C5011200A8C9C5011200A89CB502128F
:101A030000A8D8B5021200A8EBB5021200A819B6B7
:101A1300021200A849B6021200A884B6021200A856
:101A2300F4B6021200A827B7021200A87DB1021271
:101A330000A8BDB1021200A8CFB1021200A8EBB1F9
:101A4300021200A82FB2021200A838B2021200A894
:101A530086B2021200A8A7B2021200A853B3021260
:101A630000A859B3021200A866B3021200A8E9C481
:101A7300021200A806C5021200A8BEA5021200A801
:101A83005CA6021200A869A6021200A871A602129F
:101A930000A894A6021200A8B9A6021200A838A7AB
:101AA300021200A8AEA7021200A8DDA7021200A826
:101AB30017A8021200A82DA8021200A88EFF011277
:101AC30000A8B3FF011200A8DBFF011200A80CADB0
:101AD300021200A825AD021200A831AD021200A81F
:101AE30045AD021200A868AD021200A874AD02123F
:101AF30000A883AD021200A896AD021200A8CBADD8
:101B0300021200A805AE021200A83AAE021200A803
:101B130086AE021200A8D2AE021200A8EAAE0212EA
:101B230000A8F4AE021200A805AF021200A849AF44
:101B3300021200A8C4CE011200A8ECCE011200A824
:101B4300FFCE011200A812CF011200A828CF011264
:101B530000A884CF011200A8BECF011200A8E2D2D0
:101B6300011200A8D9D3011200A80BD4011200A8B6
:101B73006FD4011200A83FD5011200A867D5011246
:101B830000A87CD5011200A88CD5011200A8D2D5DB
:101B9300011200A827D6011200A8B2BF021200A8A2
:101BA300CDBF021200A8F7BF021200A814C0021290
:101BB30000A83CC0021200A85EC0021200A877C0B1
:101BC300021200A8A6C0021200A8C1C0021200A8F7
:101BD300AAC4021200A82196021200A82896021293
:101BE30000A83597021200A86797021200A88997E8
:101BF300021200A8AC97021200A8CE97021200A806
:101C03000998021200A87898021200A8B598021247
:101C130000A80299021200A83099021200A8509954
:101C2300021200A803C2021200A815C2021200A8E1
:101C3300CBC2021200A87AA0021200A8EEA00212E0
:101C430000A8EBA1021200A88DA2021200A8D7A23D
:101C5300021200A8E8C0021200A851C1021200A893
:101C6300A0C1021200A8E1C1021200A8AE9902129B
:101C730000A8069A021200A82B9D021200A825C5EF
:101C8300021200A854C50201FFFFFFFFFFFFFFFF81
:101C93000503013000000062146214621462142A06
:101CA3001324136214B71D00000000DD1E00006042
:101CB3001F6E1F3B2000000000000000000000001A
:101CC3000000000C0000000C00312E3030202846AC
:101CD3003857312E342E332900312E313020284607
:101CE3003857312E342E332900C1FBD1FBE80300D2
:101CF30000594154535AF2000000002C1438112AA1
:101D030019A0150A0FB0173C1C07FF010101002E93
:101D1300F900000002400000005000000000218292
:101D23006BF9E80364006400B801020200100000CC
:101D33000501071E02051E03B80B803EFFFF0100CD
:101D43000000005800006400000000000C000205C1
:101D53000200000206010000000A040F0100000255
:101D63004DFC024DFC0005150D0910080400383C1C
:101D73003E363B3B352B432C303016181920231AA3
:101D83001C1E30303017181921301B1D1F308413CF
:101D9300B4138A139013AE13A2139C13BA13C01374
:101DA300C613D21396137E137813A813CC13F81407
:101DB300D813DE13030071003001600011007000BE
:101DC3003102200350048000100061000000140061
:101DD30063007300720062004300000013000600FA
:101DE30000000000040012000000000000000000DA
:101DF30004000400370037003C02440000000000E8
:101E030000000000650000003500810000000500AF
:101E130000008300000001017101010101011101B2
:101E230001013101010101018001100161013B0048
:101E33001400630173017201620143010001130184
:101E430006013D01350004011201000100010001FA
:101E5300000104010401330133013C014401320157
:101E63003600000100016501000135008101000118
:101E73000501820183010001030271023001600246
:101E830011027002010202020202800210026102C8
:101E93003A004100630273027202620243020002CB
:101EA30013023800000200020402120200020002C0
:101EB3000002000204020402370037003C0244021D
:101EC30000023900000200026502000235028102AD
:101ED300000205028202830200020103710301036F
:101EE300010301030103010322030203010310039E
:101EF3000003000300030003000300030003420385
:101F03000003240306030003000304031203250351
:101F13002303250323030403040300030003000333
:101F23004403000300032303000365032100350377
:101F33008103000305030003000300030003494872
:101F4300424D1817250502000119161816161523F8
:101F530003000C0E020B040B0A0708000F62147433
:101F6300147A144E13801448135413D41486148C07
:101F7300149814921436000100060000000F0000AC
:101F8300000000000000000000000003FFFF00004D
:101F93000403FFFF0000FFFF0FF4010005C4040367
:101FA30020000100000B00000000000000000301FE
:101FB30000013636010100010201000103010001A5
:101FC3000401060605020000070100340801000FA2
:101FD300090401010D0100FF0E08000017020000B3
:101FE300190100FF1A0100011B0100051C01000873
:101FF3001D0200001F010001200100012102000059
:102003002301000F24020000260100012701030819
:10201300280200FF2A0100072B0102402C010000C7
:102023002D0100012E0100012F0100FF30010B1CC7
:10203300310800003A010008E014FE140415E61408
:10204300F214EC140000AC180100AC18020058188C
:1020530003005E180400641805006A180600761869
:10206300FFFF00000000000000009C36063A703DB0
:10207300D9404344AD47174B814EEA515F3F3F1B65
:10208300171313130F0F0F0B0B0B0B070707070682
:1020930006060606060300BE040A08050C040A0029
:1020A300051000000102030405060708090A0B0CCA
:1020B3000D0E0F00160F160D0B150B021102220B3E
:1020C30030030006FF2223242A2629253132333701
:0520D300202136FF4151
:1029000074F312050274F01204AD7508007F008F95
:102910000C74081204E3122C977004A3E064FF7097
:1029200035740A1204E3E064FF7004A3E064FF70EE
:1029300025740C1204E3E064FF7004A3E064FF70EC
:1029400015740E1204E3E064FF7004A3E064FF70EA
:102950000575090180028F09E490F8F8F07E3C8546
:102960001082851183AC82AD837A007B00EEF91270
:102970002CA17004A3E064FF701390F8F8E07004D9
:10298000EEF0802F7A01EEF91216A880267402125A
:1029900004E3E064FF7004A3E064FF7004EEFF80D2
:1029A0001274041204E3E064FF7004A3E064FF60A7
:1029B000028E08AC0C7A007B00EEF91216AEEA70BB
:1029C00001EB6008750C017E3B022A53851082855D
:1029D0001183AC82AD837AF87B07EEF912091FE50B
:1029E00009605DE064FF7004A3E064FF703074026E
:1029F0001204E3E064FF7004A3E064FF7020740439
:102A00001204E3E064FF7004A3E064FF7010740636
:102A10001204E3E064FF7004A3E064FF603575090D
:102A20000278091206F774011204E3AC82AD837ACE
:102A3000F87B07793F123A8D1204BC7509008013A8
:102A4000750A02780A1206F774091204E3123A832F
:102A50001204BC0EEEC3943E500302295FEF6016D1
:102A600090F8F8E060337A01EFF91216A8E50860F3
:102A700005A9081216BA90F8F8E070117E3CEEF93C
:102A80001216B40EEEC3943E40F41216A2790174ED
:102A9000101204BC7F050205C6E50860D0EFF08087
:102AA000D0C082C08374F81204AD85108285118372
:102AB000E4F0A3F0EA600874021204E3E48007740F
:102AC000021204E374FF122D307A007B001216D834
:102AD00074081204BCD083D08202009A74F01205EC
:102AE0000274F61204AD851082851183EAF0A3EB1F
:102AF000F0890E8C0F750A08750B007E007F008030
:102B0000267C01AA0AAB0BA90E1216CC7408250864
:102B1000F8E43509F9EE28FEEF39FFE50A2508F556
:102B20000AE50B3509F50B74021204E3AC82AD83A0
:102B3000AA0AAB0BA90E122CA17004A3E064FF60DB
:102B400043E50A2408F50AE50B3400F50B7404127A
:102B500004E3122E9DF50874FF59F509E508250ACE
:102B6000F8E9350BF9C3E894F9E994074030E42E0D
:102B7000F874083FF9E8C3950AFEE9950BFF750A5A
:102B8000F8750B07E50E122D15E50AF0A3E50B12FB
:102B90002D19EEF0A3EFF07A007B000232FB7402F5
:102BA0001204E3E07002A3E07003022B0C85108294
:102BB000851183E07002A3E0605D8510828511833A
:102BC000E0F8A3E0547FF974021204E3E0687003B4
:102BD000A3E0696003022B1B851082851183A3E0AB
:102BE0005480F9E47001E9701574081204E3E0649C
:102BF000FF7004A3E064FF6003022B1B80137408C2
:102C00001204E3E064FF7004A3E064FF7003022B8E
:102C10001BAA0AAB0B808474041204E3122E82AA4E
:102C20000AAB0BA90E1216D28A0C8B0DA80CA90D9B
:102C300074061204E3E0687003A3E0696003022BEA
:102C400001E50F603874081204E3E064FF7004A328
:102C5000E064FF6003022B1B74021204E3E0FAA39A
:102C6000E04480FB1216C0EA7001EB7003022B1BDC
:102C70007C0190F8F9E0F91216CC022B1B740812B3
:102C800004E3E064FF7004A3E064FF7003022B1B05
:102C90007AFF7BFF022B9BAC82AD837AF87B0779AE
:102CA0003F12091FE064FF2274F712050274F81244
:102CB00004ADE9FE7904121906E97008740190F870
:102CC000FAF08046A2AFE492E0FAC2AFEEC333F569
:102CD000AD75AE0100748065AE60FAEAA2E092AF15
:102CE000122D147408F0A3E4122D19122D2F7AF866
:102CF0007B07793F12091F75080278081206F774DE
:102D0000011204E3123A831204BC74081204BC7F5B
:102D1000010205C6EE122EB622F0122D1E22E82464
:102D20007CF582E934F8F58322851082851183E4ED
:102D3000F0A3F0851082851183AC82AD832274F2FA
:102D400012050274F61204ADE9FE122EAE123AD844
:102D5000122D297A04FBEEF91216E48510828511F2
:102D6000837408F0A3E4022E0B74041204E3122E01
:102D70009DF50C74FF59F50D74021204E3E0700226
:102D8000A3E0607974041204E3122E82122E8812DA
:102D9000363D74061204E3E0687003A3E0697058DE
:102DA0007C00122E9474021204E385820A85830B40
:102DB000780A1206F37C087D00AA08AB0990F8F89F
:102DC000E0F91216EA74021204BC123649780C12A9
:102DD00006F378081206F390F8F8E0FC7404120485
:102DE000E3122E8E1216F074041204BCE508250CB2
:102DF000F508E509350DF5097C01122E9485108240
:102E0000851183E0250CF0A3E0350DF07402120467
:102E1000E3AC82AD83122E8812091F74021204E300
:102E2000E064FF7004A3E064FF602F8510828511C9
:102E300083E02408123482851082851183C082C009
:102E40008374041204E3123669D083D082E028F838
:102E5000A3E0122FFE5003022D69122EAEE508F0FA
:102E6000A3E509F0EEF91216B47A0190F8F8E0F94A
:102E70001216A8EE90F8F8F0740A1204BC7F06024D
:102E800005C6E0FCA3E0FD22851082851183123A7D
:102E9000BEEEF922123AB8EEF91216CC22122EA189
:102EA00022E02403F8A3E03400F974FC582290F8DF
:102EB000F8E0122EB622C333F8E433F9E82478F5AB
:102EC00082E934F8F5832274F4120502EAFEEB80FD
:102ED0000374804FFF75083C7C00EEFAEFFBA908F5
:102EE0001216AEEA7001EB6008E50890F8F9F08080
:102EF0001A0508E508C3943E40DE74805FF9E4706B
:102F000001E960CDE490F8F9F0FAFB7F040205C610
:102F100074F012050289088A0C8B0D74101204E3F8
:102F2000E0F50EA3E0F50F74032CF8E43DF974FC12
:102F300058F8740828FAE439FB750900750A0290FC
:102F4000F8F8E004FFEFC3943E40027F3C90F8F8AD
:102F5000E06F602D74C42FFE122FEDC082C083E895
:102F600024F4F582E934F8F583123669D083D082EF
:102F7000E0C398F8A3E099F9EA28F8EB122FFE4095
:102F8000070F150AE50A70BDE50A605CEE122FED29
:102F9000E02AF8A3E03BF9C3E894F9E99407400577
:102FA00090F8F8E0FFE508F50978091206F7850EB4
:102FB0000A850F0B780A1206F3AA0CAB0DEFF91273
:102FC00016F674031204BCE9F50990F8F8E06F7086
:102FD00017E5086009743C2EF91216BA800A743C91
:102FE0002E850E82850F83F0A909023300C333F8C2
:102FF000E433F9E824F0F582E934F8F5832239F96D
:10300000C3E894F9E994072274F412050274F812E3
:1030100004AD8908ECFEEA24F8F50AEB34FFF50B61
:10302000851082851183AC82AD83AA0AFB12091F29
:10303000EE702274061204E3E4F0A3F074041204A8
:10304000E3AC82AD837404250AFAE4350BFBA908CE
:103050001216D8802A74021204E3123661FEE43993
:10306000FF122D29AA0AAB0BA9081216D8E508C32E
:1030700033F8E433F9122D1EE02EF0A3E03FF07494
:10308000081204BC022F0B74F012050274FC120427
:10309000AD89088A0A8B0BECFEEDFF750E00750FEB
:1030A0000074032EF50CE43FF50D7402780C120445
:1030B0008BAE0CAF0D8031851082851183AC82AD53
:1030C00083AA0AAB0BA90812091B1234567A008A8C
:1030D0000C123305E0F8E50E28F50EE50F3400F587
:1030E0000F0AEAC3940440E7EEF8EFF974FF281ED4
:1030F00074FF39FFE87001E970BDAA0EAB0F7404CC
:103100000232FD74F41205028A0A8B0BECFEEDFF0D
:103110007402780A12048B8908F509740978081278
:10312000049A250AE509350BF50B7904121906E90D
:10313000600FAC0AAD0BEEFAEFFB790112098B8040
:1031400006740190F8FAF0022F0B74F21205028A4D
:103150000C8B0DECFEEDFF740E1204E3E0F50A7427
:1031600002780C12048B8908F50974097808120496
:103170009A250CE509350DF50D7904121906E9605B
:103180000FAC0CAD0DEEFAEFFBA90A12098B80060D
:10319000740190F8FAF0022E7D74F712050274FCA7
:1031A0001204AD8C828D83E0851082851183F08CB2
:1031B000828D83A3E0C0E074011204E3D0E0F074D8
:1031C000021204E374FFF074031204E374FF122D7F
:1031D000321216D87404022D0C74F012050274FC1D
:1031E0001204AD890A8A088B09ECFEEDFF741412F3
:1031F00004E3E0F50EA3E0F50FEA5403F50B60607D
:1032000074FC5508F508851082851183AC82AD8366
:10321000FA12091B801E850E82850F83E0C0E085AF
:103220000B0C123305D0E0123318050BEE24FF1EF1
:10323000EF34FFFFE50BC394045006EE7001EF700E
:10324000D5851082851183AC82AD83AA08AB09A90C
:103250000A1216D8E5082404F508E5093400F50932
:10326000EE5403F50B8E0C8F0D7402780C12048B48
:10327000E50C7002E50D6034780C1206F7AC0EAD6B
:103280000FAA08AB09A90A123A8D1204BC7402787D
:103290000C12049AA80CA90DE50828F508E50939CF
:1032A000F509E50E28F50EE50F39F50FE50B604839
:1032B0007E00851082851183AC82AD83AA08AB099C
:1032C000A90A12091B8014850E82850F83E0C0E0D5
:1032D0008E0C123305D0E01233180EAA0B74FF2A9D
:1032E000F50BEA70E2851082851183AC82AD83AA6A
:1032F00008AB09A90A1216D80230FE740A1204BCDF
:103300007F080205C6851082851183E582250CF5AC
:1033100082E5833400F58322F0850E82850F83A336
:1033200085820E85830F2274F112050274FA12044D
:10333000AD851082851183EAF0A3EBF0890E8C092C
:1033400074151204E3123AD074171204E3E0FEA3DA
:10335000E0FFE50A5403F508604DF50CC3E50A9556
:103360000CF50AE50B9400F50B74021204E3AC8231
:10337000AD83AA0AAB0BA90912091B801585080C9D
:1033800074021204E31234630508EE24FF1EEF34C6
:10339000FFFFE508C394045006EE7001EF70DE7481
:1033A000021204E3123445EE5403F5088E0C8F0D1F
:1033B0007402780C12048BAE0CAF0D802B740212C9
:1033C00004E3AC82AD83851082851183123727A96F
:1033D0000E12091B851082851183E02404123482A9
:1033E00074021204E3123445EEF8EFF974FF281E5C
:1033F00074FF39FFE87001E970C3E508603D7E00A5
:1034000074021204E3AC82AD83AA0AAB0BA90912C1
:10341000091B800B8E0C74021204E31234630EAA93
:103420000874FF2AF508EA70EB74021204E3AC8218
:10343000AD83AA0AAB0BA9091216D874061204BCF4
:103440007F070205C6AC82AD83AA0AAB0BA909129D
:1034500016D812345622E50A2404F50AE50B340086
:10346000F50B22E582250CFCE5833400FD123AB809
:10347000A90E120917851082851183E024011234E8
:103480008222F0A3E03400F02274F012050274F6F8
:103490001204ADE9FE8A0E8B0F8C0C8D0D741C127C
:1034A00004E3E0F50A122D14123AD87F0090F8F8E0
:1034B000E06E70077A00EEF91216A874021204E3A7
:1034C000E50EF0A3E50FF074041204E3E50CF0A39D
:1034D000E50DF074021204E3AC82AD83AA08AB09D7
:1034E000EEF91216D874021204E3AC82AD83AA0876
:1034F000AB09EEF912091FE0650E7004A3E0650F39
:10350000600302362274041204E3E0650C7004A325
:10351000E0650D6003023622E50A7003023620746E
:103520001A1204E312366988828983A80CA90DE86F
:103530005403F50AE5827002E5837015E875F0FF23
:10354000A4F8AAF075F0FFE9A42AF9E8FAE9FB80EB
:10355000227A007B00800AE0FCEA2CFAEB3400FBC4
:10356000A3E8FCE9FD74FF2C1874FF3DF9EC700131
:10357000ED70E4E50A601F7404C3950AF8E4940052
:10358000F9E875F0FFA4F8ACF075F0FFE9A42CF9A8
:10359000EA28FAEB39FB851082851183EAF0A3EB68
:1035A000F0123649741A1204E3E07002A3E0601AC4
:1035B000741A1204E312070AAC0CAD0DAA08AB0989
:1035C000EEF91216EA74021204BCAC0CAD0DAA0896
:1035D000AB09EEF912363D851082851183E06870E3
:1035E00003A3E069703C851082851183AC82AD83B2
:1035F00074FC1236561216E474021204E3AC82AD67
:103600008374F812365612091F85108285118312B1
:10361000366974061204E3E0687003A3E06970027F
:10362000EEFF74041204E3123661FAE439FB122D42
:1036300014E02AF0A3E03BF0EFF90232FB1216D2BD
:103640008A0A8B0BA80AA90B22E5082408F508E5CD
:10365000093400F509222508FA74FF3509FBEEF953
:1036600022122EA1F874082822E0F8A3E0F922C063
:1036700082C08375AB2A1216A2022AD574F21205F3
:1036800002EAFEEBFF8C088D09740E1204E3123A75
:10369000D0E490F8FAF074016E7001EF6009121630
:1036A000C0EA7001EB600479008025780A1206F305
:1036B000AC08AD09EEFAEFFB79011216C6740212DE
:1036C00004BCE9600990F8FAE060081216A27910CB
:1036D000022E7D790F80F974F612050274F8120437
:1036E000AD74016A7001EB70067A087B00802E12BF
:1036F0003A767001E970047A0080F08510828511B5
:1037000083AC82AD8374F828FA74FF39FB90F8F922
:10371000E0F912091F74021204E312372774081229
:1037200004BC7F020205C6123ABE2274F1120502E1
:1037300074F11204AD74011204E3EAF0A3EBF08C0F
:103740000C8D0D750E00E490F8FAF074011204E38C
:10375000E064017002A3E0707174071204E3122C9C
:10376000977004A3E064FF705C74091204E3E064E2
:10377000FF7004A3E064FF704C740B1204E3E06478
:10378000FF7004A3E064FF703C740D1204E3E06476
:10379000FF7004A3E064FF702C750802780812061D
:1037A000F774211204E3122E827AF87B07793F1214
:1037B0003A8D1204BC90F8FAE060047A1080027A24
:1037C00000EAF980027910023A66741E1204E3E0FE
:1037D0007002A3E07003023A6474011204E312372A
:1037E00027123A76FEE9FF74051204E3E8F0A3E934
:1037F000F0EE7001EF7005790F023A66740712045B
:10380000E3AC82AD8374F82EFA74FF3FFB90F8F9B5
:10381000E0F912091F74091204E3C082C083741E08
:103820001204E3123AA5D083D082C3E098A3E099B2
:1038300050057910023A66123A6B1204E3123AD834
:10384000741E1204E3123AD08017E50A24FFF50A29
:10385000E50B34FFF50BE50A7002E50B7003023A45
:1038600058851082851183AC82AD83EEFAEFFB9010
:10387000F8F9E0F9120917EE24010EEF3400FFA861
:1038800008A90988828983A3858208858309851010
:1038900082851183E0FA88828983E06A60AC8510B2
:1038A0008285118385820885830978081206F3745E
:1038B0000B1204E3122E8274031204E312372779E9
:1038C000001216C674021204BCE9F5087003023A2D
:1038D0005574091204E3122E9DF874031204E3E8F0
:1038E000F0A3E9F0E508C333F8E433F9E82478F805
:1038F000E934F8F974011204E3E8F0A3E9F0740183
:103900001204E3123A9CC082C08374031204E312CF
:103910003669D083D082123A9390F8F9E0F5097CA9
:103920000074051204E3123AAF780C1206F38E0A03
:103930008F0B780A1206F3AC0874091204E31237ED
:1039400027A9091216F074041204BC123A6B12046F
:10395000E312070A74201204E3123AC41216EA743E
:10396000021204BC74091204E3E0C3950CFAA3E04C
:10397000950DFB741E1204E3123669EAC398F50A2A
:10398000EB99F50B780A1206F374201204E3E02E8B
:10399000F50AA3E03FF50B780A1206F3AC087409A8
:1039A0001204E3123AA574221204E3E028FAA3E019
:1039B00039FBA9091216F074041204BC7401120434
:1039C000E3123A9CC082C08374031204E312366986
:1039D000D083D082123A9374091204E3123AC412CB
:1039E00016D274031204E3EAF0A3EBF0EE24F8FE1F
:1039F000EF34FFFF74031204E3AC82AD8374042E32
:103A0000FAE43FFBA9081216E474071204E3AC823F
:103A1000AD83EEFAEFFBA90812091F74031204E349
:103A2000123669740B1204E3E0687003A3E0697056
:103A30000C7C0174051204E3123AAF8003750E107A
:103A400090F8F8E065087010851082851183E0F920
:103A50001216BA8003750E1090F8FAE0600612167E
:103A6000A2750E10A90E740F02343DEE250CFEEF68
:103A7000350DFF7420221216C08A088B09A808A9E8
:103A800009E822AC82AD837AF87B07EEF91216DEE4
:103A9000740122E0C398FEA3E099FF22E0F8A3E0BE
:103AA000F583888222E0250CF8A3E0350DF9221277
:103AB0003ABEA9091216CC22851082851183E0FA3C
:103AC000A3E0FB22E0FCA3E0FDEEFAEFFBA9082255
:103AD000E0F50AA3E0F50B22E0F508A3E0F50922E2
:103AE00074F2120502ECFEEDFF740E1204E3123ABA
:103AF000D074101204E3123AD874016A7001EB70AA
:103B00002B7AF87B07743F90F8F9F0780A1206F3E5
:103B1000AC08AD09EE2AFAEF3BFB90F8F9E0F91298
:103B2000091374021204BC7900022E7D1216C0EA39
:103B30007001EB70D6791080F074F412050274FCF9
:103B40001204ADEAFEEBFF12119EE9600579110245
:103B50003C5B8E828F83123C606006EE240D124621
:103B600080EE240E123FC77003740AF0123FC46443
:103B700001701990F14BE0600D90F14AE0700D8EEC
:103B8000828F83E07006EE240C12468090F13FE0B5
:103B9000C0E0124690D0E0F090F13FE004F08E8259
:103BA0008F83E064017023A3A3A3A3A3A312466F92
:103BB000E0640270158E828F83A3A3A3A3A3A3A3A3
:103BC000A3A3A3E04440F0A3E0F085108285118315
:103BD000AC82AD83EEFAEFFB1211F28A088B09EA90
:103BE0007001EB60728E828F83E0C0E0740112047A
:103BF000E3D0E0F074021204E3EEF0A3EFF07401FE
:103C00001204E385820A85830B780A1206F38E82FA
:103C10008F83A3A3A3A3A3A3A3A3A3A312070A8E83
:103C2000828F83A3A3A3A3A3A3A3A3A3E0F50A78EE
:103C30000A1206F774051204E3124788123FFE12B7
:103C400011EC74051204BCE9FE74106E700BAA0826
:103C5000AB0912169C80027E10EEF97404024168D2
:103C6000A3A312474B121282E922C082C08374E8D8
:103C70001204AD8A828B83A3A312475D740B1204D6
:103C8000E31247828A828B8312475D74091204E330
:103C9000E8F0A3E9124540A3A3A3E0C0E074151225
:103CA00004E3D0E012454512475D74161204E31296
:103CB0004782EA2410F582EB123FCAC0E074051275
:103CC00004E3D0E0F0EA2417F582EB12469612479F
:103CD0005F740D1204E312478290FBEF120706791E
:103CE000FF74041204E3AA82AB831210EA74041274
:103CF00004BC7900741802464674F012050274EE92
:103D00001204AD74101204E31241708C088D0989FD
:103D10000B74221204E3E0F50C74231204E3E0FEBA
:103D2000A3E0FF74251204E3E0F50EA3E0F50F75A0
:103D30000A107A1E7B0012169674021204E31241D6
:103D40007074021204E3E07002A3E07003023E0A02
:103D5000851082851183AA82AB8379501244181290
:103D600004E3123E16A312417074021204E3E0242D
:103D70000B1249AF7402F01204E3123E167402F003
:103D80001204E312466FE508F0A3E509F07402128D
:103D900004E31249ACE50BF074021204E3E0240CD6
:103DA0001249AFE50CF074101204E312441B120424
:103DB000E3E0241C1249AF12417074081204E3EED0
:103DC000F0A3EFF0740A1204E3E50CF0850E82858F
:103DD0000F83C082C083740D1204E3AC82AD83D024
:103DE00083D082740312039EF974021204E3AA8240
:103DF000AB831211A4E964017005750A00800B748D
:103E0000021204E312474712169CA90A7412120404
:103E1000BC7F080205C61249A502435574F012057D
:103E200002EAFEEBFF8C088D0974088E828F83A353
:103E3000F0EE2411123FC7600874108E828F83A3A6
:103E4000F0EE2412123FC760098E828F83A3E02414
:103E500008F0EE2410123FC760088E828F83A3E023
:103E600004F0123FC46005750E0E8003750E008EBF
:103E7000828F83123FDDA3A3A3A3A3A3A3FAE02A07
:103E8000250E8C828D83F0123FC460051241762A84
:103E9000F0850882850983E0C394674003023FA34D
:103EA000E0FA7B001216968A0C8B0DEA7001EB701B
:103EB00003023FA9EEFAEFFB1211F8EA850C8285A6
:103EC0000D83124171EE2402123FBA123FCFF088E7
:103ED000828983A3123FCFA3F0EE24040808123F87
:103EE000BB123FE5F088828983A3123FE5A3F0EE81
:103EF000240E123FEFF0EE240F123FEFA3F07508EF
:103F000008EE2411123FC76010EE2413123FF8E5AB
:103F10000C2408123FB0750810EE2412123FC7603F
:103F20000DEE2415123FF8E50C2508123FB08E82E5
:103F30008F83A3A3A3A3A3A3E0F508A3E0F50975CA
:103F40000A0078081206EF8E828F83A3A3A3A3A38F
:103F5000A3A3A3E0FC7D008E828F83A3E0F8E50C91
:103F600028F8E50D3400F9E50E28FAE439FB1216BD
:103F70001874031204BC123FC4602E8E828F83A378
:103F8000A3A3A3A3A3A3A3E0FD8E828F83A3E0FC3E
:103F9000AA0CAB0D79001212D6E9600DAA0CAB0D7C
:103FA00012169C750C00750D00AA0CAB0D023E118B
:103FB000FAE50D3400FB12161E22F8EF3400F988E2
:103FC00082898322EE240CF582EF12408FE02212C8
:103FD0003FD322E0850C82850D83A3A322A3E08E2C
:103FE000828F83A322123FE922123FD3A3A322127E
:103FF000408C123FE9A3A322F582EF12408FE0FC30
:10400000A3E0FD2274F4120502EAFEEBFF8E828F1C
:1040100083E0F508121276E9F50A750B0074027850
:104020000A12049AE50A4508FAAB0BEE240D124079
:10403000827406780812049AE5084AF8E5094BF9F3
:10404000EE2410123FC7FBE8FAEB49FBEE240C12FA
:1040500040827409780812049AE5094BFBEE24119A
:10406000124082740B780812049AE5094BFBEE2487
:1040700012124082740C780812049AE5094BFB0274
:10408000416B12408CE0F50875090022F582EF348F
:1040900000F5832274F41205028A088B09ECFEED08
:1040A000FFE98E828F83F012438EC0E0124690D0DB
:1040B000E0124339C0E0EE2410124693D0E01243E0
:1040C0004160031243628E828F83A3A3A3A3A3A3A1
:1040D000A3A3E060228E828F83A3A882A983E0FA43
:1040E000E5082AFAE5093400FBEE241312435B8845
:1040F000828983E02408F08E828F83A3A3A3A3A3E5
:10410000E060088E828F83A3E004F08E828F83A309
:10411000E0FA8A0AE508250AF8E50934001247732F
:104120008E828F83E0C39AC0E0EE2415124693D0AE
:10413000E012434FE0602FEE2415F508EF3400F550
:1041400009850882F583E024F2F0EE2416123FBAC6
:10415000E0240EFAA3E03400FB88828983124170C8
:10416000124176C39AF080031204BC7F040205C694
:10417000EAF0A3EBF02290F14BE0F91212DCE9FA3D
:10418000850882850983E02274F41205028A088B6F
:1041900009EA1241E7F0EA1313543F540F8C828D61
:1041A00083A3A3A3F0EAC413131241E7A3A3F0EB84
:1041B0001241F0F08A0A8B0B7409780A12048BE51D
:1041C0000A1241F0A3F08A0A8B0B740B780A1204CE
:1041D0008BE50A1241FDF0740C780812048BE50897
:1041E0001241FDA3F0808454038C828D83A3A3220B
:1041F0001241F42254018C828D830243551241F402
:10420000A3A322C082C08379008A828B83A3A3A345
:10421000A3A3A3E090F14B6015E0600F90F14AE09A
:1042200070318A828B83A3A3E07028098025E06027
:104230002290F14AE0601C8A828B83A3A3A3A3A3EC
:10424000A3A3A3A312474790F153E06A7003A3E02E
:104250006B70D802464974F31205028A088B0989EB
:104260000CECFEEDFF12438EC0E0124690D0E0123F
:104270004339C0E0EE2410124693D0E0124341606F
:10428000031243628E828F83A3A3A3A3A3A3A3A33A
:10429000E060188E828F83A312437CEE24131247B2
:1042A00077850A82850B83E02408F08E828F83A3B2
:1042B000A3A3A3A3E060088E828F83A3E004F0EEA3
:1042C000FAEFFB12120AE9706B8E828F83A3A3A30D
:1042D000A3A3123FDD7025E0FC8C0AE508250AFA4D
:1042E000E5093400FBEE241612435BE50CC39CC0C9
:1042F000E0EE2415124693D0E0F0803812437C742F
:104300000E28F8E43912477390F14BE0F91212DCF1
:10431000E9FA850A82850B83E0FCE50CC39C24F254
:10432000C39AFDEE2415124693EDF0AA08AB097965
:10433000011212D67F050205C6124765A3A3A3E0AA
:1043400022F074088E828F83A312434FA3E022F0E1
:104350008E828F83A3A3A3A3A3A32212408CEA027D
:104360004171E5082408F8E5093400F9EE2411123A
:10437000477B8E828F83A3E02408F02285820A8502
:10438000830BE0F8E50828F8E5093400F9228A8271
:104390008B8312474B121204850882850983A3A3DD
:1043A0001243CDE0F9EA8E828F83A3A3A3A3A3A334
:1043B000A3A3A31243D91243CDA3A3E0F9EAF8EED5
:1043C000240B12408CE81243D9A3A3E022E0FA8523
:1043D0000882850983A3A3A322F0A3E912476922D7
:1043E0007AA67BF179E2120CB57AA67BF102009AEB
:1043F000C082C08390F153124747024649C082C031
:104400008374FE1204AD851082851183AA82AB836A
:10441000794B124418024646120CB512474B7402EF
:1044200022794A120CB502009A74F612050290F134
:10443000AEE0FE04F0EEF91211C8EA7001EB70EE86
:10444000EE60EBF902466A74F0120502EAFEEBFF39
:104450008C0E8D0F890874101204E3E0F50C7509B9
:104460000012123A8A828B83E5827002E5837079AA
:10447000E50C600302451F7CFE7DFF7AFE7BFF1288
:104480001240E9F89020A0E493FAC3E89AE494007B
:10449000400302453DE81245FCE8FAE9FB8A828BBD
:1044A00083EEF0A3EFF08A828B83A3A3E50EF0A343
:1044B000E50F124540E508F074028A828B83A3A3BE
:1044C000A3A3F0E48A828B83A3A3A3A3A3A3F09066
:1044D000FBEF78081203738A828B83A3A3A3A3A3A1
:1044E000A3A378081203828054E50C6023E50870CA
:1044F0000CE0600214F0E490F1AFF0804090F1AF76
:10450000E004F0FA90FC23E06A7032750901801231
:10451000A3E0F8E50828F8E4340013E81380DBE4AE
:10452000601BE5096017121222EA6E7002EB6F70D1
:104530000CEEFAEFFB790112110812454D023E1103
:10454000124545A322F08A828B830243567A017B6F
:104550000090F19FE0F912173E2274F71205027FD6
:104560000080010F9020A0E493FEEFC39E503EEF29
:1045700075F00BA4A9F02496F582E934FAF583E0EE
:104580006A7003A3E06B70DBEF75F00BA42498F561
:1045900082E934FAF583E06C7003A3E06D70C4EF38
:1045A00075F00BA4249AFAE934FAFB80047A007BB4
:1045B0000002499C74F712050279008001099020DD
:1045C000A0E493FEE9C39E5030E975F00BA4AFF070
:1045D0002496F582EF34FAF583E06A7003A3E06B6A
:1045E00070DBE975F00BA42498F582EF34FAF583BB
:1045F000E06C7003A3E06D70C402499C75F00BA4DD
:104600002496F8E5F034FAF922C082C08374016A76
:104610007001EB700E7A017B0090F19FE0F91216A9
:104620006C802190FC1A124170EA7001EB6012EA72
:10463000FCEBFD7A017B0090F19FE0F912173880C6
:104640000312454D80031204BCD083D08202009A2D
:10465000C082C08390FC1C12417080EDC082C08378
:1046600090FC1E80F2740D1204BC7F020205C6127B
:1046700046732212467722E0F8A3E0F5838882226F
:1046800012408CE4F022A3A374FEF0A374FFF02286
:10469000EE240FF582EF12408F2274F41205028A85
:1046A000088B097A007B0412455190F13112475F63
:1046B00090FC1E12478290F162E064097070121241
:1046C00016EAFCEBFDE5082411124740121630E90A
:1046D0006401705A7A0F1247317001EF60507423F1
:1046E0008E828F83F0E5082416F8E509123FBC128C
:1046F00047478A828B83A3E0FC8A828B83A3A3E053
:10470000FBEC8E828F83A3A312417188828983126E
:1047100049A1123FDEF0E5082413124740794A12FE
:104720000CCFEEFAEFFB90F19FE0F9121648024130
:104730006B7B0012163C8A0A8B0BAE0AAF0BEE2283
:10474000F582E50912408F12474B22E0FAA3E0FB05
:104750002212408C7401F0850882850983A3A3E0AE
:10476000F8A3E0F92212476922F0850882850983BF
:10477000024356F9EE241612477B22F582EF3400ED
:10478000F583E8F0A3E9F022E0F98E828F83A3A3FA
:104790002274F612050274F31204ADEAFEEBFF7CFC
:1047A0000D7D007900851082851183AA82AB83126A
:1047B0001624124861F854206008740C1204E37443
:1047C00001F0E854806008740B1204E37401F0E80F
:1047D0005440600A740A1204E37401F0800A740AF7
:1047E0001204E3E064017005EE24118003EE24134B
:1047F000123FF874021204E3AA82AB8312161EEE73
:10480000240B124693124904740A1204E3E0640173
:10481000703F8E828F83A3A3A3A3A3A3A3123C60A4
:10482000703C1212228A088B09A808A909EE240BF1
:10483000123FC7687003A3E0697023121216EAFCE6
:10484000EBFD74021204E3AA82AB83121630E96016
:104850000D851082851183AA82AB83121102024654
:1048600065EE2416F582EF12408F124673A3E02204
:1048700074F612050274F31204AD8A088B09ECFE7B
:10488000EDFF7C0D7D007900851082851183AA8261
:10489000AB831216248E828F83A3A3A3A3A3A3A307
:1048A000A3A3124904124861FAA2E55008740B123E
:1048B00004E37401F0EAA2E75008740A1204E374F6
:1048C00001F0EAA2E6EE5004241180022413123F04
:1048D000F874021204E3AA82AB8312161E850882C2
:1048E000850983A3A3E0C0E0740C1204E3D0E012B6
:1048F00048F81210FC024665F0851082851183AAE3
:1049000082AB8322E0F8A3E0F9851082851183123F
:1049100047822274F712050274E81204ADEAFEEB36
:10492000FF8E828F831249A1A3A3A3E0A2E0506768
:104930008E828F83A3E0F9E8FAE9FB8A828B83A356
:10494000A3A3A3A3A3E054FEF0A3E0F08510828507
:104950001183AC82AD838A828B831249ACE0F98AE1
:10496000828B83E0241CFAA3E03400FB8A828B83D1
:10497000124747121210E9701E74161204E3124611
:104980006FE064047011851082851183AC82AD8361
:10499000EEFAEFFB12126474181204BC7F010205D8
:1049A000C61249A522124677A3A3A322E0241BF82E
:1049B000A3E0023FBC74F6120502741B8A828B834B
:1049C000F07401A3A3F01210C0EA7001EB60077449
:1049D000018A828B83F002466AC082C08374FF1210
:1049E00004AD851082851183AC82AD837A007B0093
:1049F00079981210DE851082851183E0F974010226
:104A00004646C082C083740190F1A5F0E9A2E3504C
:104A1000037403F0E9A2E15004E0D2E2F002464957
:104A200074F612050279007C008A088B0978081256
:104A30000790F8FF07534A514A514A514A514A4A8E
:104A40004A4E4A534A474A0C80097C0480050C8030
:104A5000F67C0890F1A5E05C6003098003EC60013E
:104A60000902466A02009A74F61205028A828B8352
:104A7000E07015A3E07002A3E0600D8A828B83A32F
:104A8000124747120F6480047A007B0002466A7462
:104A9000F7120502EAFEEBFFEE7001EF60177C0BE8
:104AA0007D0079001216248E828F831246888E82B2
:104AB0008F8312468602499C74F71205027E00809D
:104AC00011EE75F00BA42496FAE5F034FAFB1212FD
:104AD000940E9020A0E493FAEEC39A40E402499C1D
:104AE000C082C083E990F19FF0E490F162F0121C63
:104AF0002412119290F1A0E4F0A3F012129A121C69
:104B00002A90F12FE4F0A3F0024E4574F212050250
:104B1000EAFEEBFF74805FF9E47001E97046EEA2F3
:104B2000E04003024C3290F167E0640F6003024CF6
:104B300032790012113EE9600D90FC1AE07002A378
:104B4000E06003124FFA74016EFAEFFB024D3B7AFC
:104B5000F08508828B83A3A3E0F9121150AA08AB59
:104B60000912164290F19FE0F912164E8A088B093D
:104B7000EA7001EB7003024C2A8A828B83E01207F1
:104B8000D60007209A4B219F4B23BD4B25D24B26A5
:104B9000D74B33DC4B364F4B5D4B12115C80BE1252
:104BA0001162E508242D124D4260B290FC1CE070A9
:104BB00002A3E060A890FC1C124FFD80A090F13988
:104BC000E07002A3E0609690F1391254691204ED8E
:104BD000808B12116E808612117A80818A828B837B
:104BE000A385820A85830BE0F912110E850A82855E
:104BF0000B83E064EB600C850882850983A3E06485
:104C0000E17009E4850882850983A3F012115675C5
:104C10000A01780A1206F7850882850983A31258CB
:104C2000531204BC121198024B5DEEFA74806F02AD
:104C30004B4BEE54207003024D18750A007C027D28
:104C4000007A207B0090F19FE0F91217387C007900
:104C5000047A007B001211C28A088B098018740143
:104C6000850882850983A3A3A3A3A3A3A3A3A3F079
:104C7000850C08850D09E5087002E50960717C0066
:104C80007904AA08AB091211C28A0C8B0D750A01AE
:104C9000E50824041257F924FFF0A3E034FFF0885C
:104CA000828983E07002A3E070C68508828509834B
:104CB000A3A3A3A3A3A3A3A3A3A3E06401709F85BD
:104CC0000882850983A3A3A3A3A3A3E05404708E41
:104CD0007406850882850983A3A3A3A3A3A3A3A322
:104CE000A3F07AB7850882850983124E328081123B
:104CF00011987C0079017A007B001211C2EA7001E0
:104D0000EB7010E50A700C7A207B0090F19FE0F9BF
:104D100012173E7420024B4874045FF9E47001E9F5
:104D2000601590F13112547C1212527901124D4BE0
:104D3000EEFA7404024C2E7A007B000258F6E50865
:104D40002410F582E509125819E02290F160E0FA8A
:104D5000A3E0FB1210F622C082C08374EA1204ADF5
:104D6000851082851183AA82AB83794B120CB574AE
:104D7000081204E37402F074091204E3AA82AB83FC
:104D80007950120CB574131204E3E4125530120E6C
:104D90003074161204BC024E4574F4120502EAFE89
:104DA000EBFF7508018E828F83A3A3A3A3A3A3E0C7
:104DB0005440600C8E828F8312546912547C80039D
:104DC00012122274FE6A700374FF6B60338E828F3E
:104DD00083125469EAF0A3EBF0121282E98E828FFB
:104DE000836006124E20E48005124E207401F08E7E
:104DF000828F8312547C120E3CE9F50970058012F3
:104E00007509CDAA098E828F83124E32E96003752F
:104E10000800A908EEFAEFFB1211A4A909025541F6
:104E2000E0240D124E2722F8A3E03400F98882898D
:104E30008322E0240C124E27E0F912115022C08286
:104E4000C083121150D083D08202009A74F61205EA
:104E500002E9FEEAFF7A0B7B0012163CEA7001EBD6
:104E6000601E74208A828B83F0EEA3A3F0EF8A8207
:104E70008B83A3F090F19FE0F9121648790080022D
:104E800079107F020205C6C082C08390F167E0649A
:104E90000F700D90FC1AE07002A3E06003124FFA4D
:104EA00080A374F412050274FD1204ADEAFEEBFF58
:104EB0008E828F83A3A3E0F91211C88A088B09EAB6
:104EC0007001EB7003024FE48E828F83A3E064F1E4
:104ED00060288E828F83A3E064CD601E8E828F83D4
:104EE000A3E0641A60148E828F83A3E064E9600AF1
:104EF0008E828F83A3E064E1701E79001211A4E911
:104F00006016850882850983A3A3A3A3A3A3E04415
:104F100020F0A3E0F0024FB38E828F83A3E0C0E0C5
:104F200074021204E3D0E0125214E508F0A3E5097C
:104F3000F0E508240B124D42851082851183AA8268
:104F4000AB8370051210E4800312126A8E828F8385
:104F5000A3E064F1605D8E828F83A3E064CD605333
:104F60008E828F83A3E0641A60498E828F83A3E0D0
:104F700064E1603F74021204E3E064B760358508C1
:104F800082850983125546FAE9FB750A01780A12EF
:104F900006F774031204E3E0F98A828B83A3A3A3C8
:104FA000A3A3A3A3A3A312523B8A828B8312585EAE
:104FB0001204BC850882850983A3A3A3A3A3A3A38A
:104FC000A3A3E0640270127406850882850983A396
:104FD000A3A3A3A3A3A3A3A3F08E828F83A3A3E081
:104FE000F91211AA12119890FC1EE07002A3E06061
:104FF0000690FC1E124FFD02553C90FC1A12523BCB
:105000007A017B0090F19FE0F91217382274F012B8
:10501000050274E61204ADEAFEEBFFEE242EF582E3
:10502000EF124D467002A3E0700302520A7402129E
:1050300004E3AC82AD83EE242D12521F125476127B
:1050400011FE90F14BE0603E74081204E3E0601E34
:1050500074171204E3E0FD74031204E3E0FC12543D
:105060007679011212D6E9600302520A802390F188
:105070004AE0601D740B1204E31252257003A3E092
:1050800069600E02520A74081204E3E060030252DF
:105090000A75080078081206F712521C12522B12D9
:1050A000585E1204BC74081204E3E07003025161FC
:1050B00012522B12547C12123A851082851183EA07
:1050C000F0A3EB125214E07002A3E0700302520A44
:1050D00074031204E3E0F8EE242EF582EF124D463D
:1050E00028F8A3E03400F9740D28F582E439F5833B
:1050F000E0FA125241E06A6019851082851183122C
:105100005249EAF090FBEF780812037312524F12E3
:105110000382790474031204E3E0FAEE242EF5828C
:10512000EF124D462AFCA3E034008C82F583A3AA3B
:1051300082AB8312162A8A088B098C0A8D0B1252B5
:1051400041A3780C120373780C7908120190500374
:1051500002520A90FC36780812032612524F1203AC
:1051600082121276E9FA74051204E3E06A6003021F
:10517000520A740B1204E31252257003A3E0696013
:105180001A740B1204E312547C121282E964026056
:105190000A74071204E3E06401706F74041204E3FC
:1051A000E0701FEE241412580812070612521C74E5
:1051B000061204E3AA82AB831210EA74041204BC40
:1051C000804874181204E3125469E064047018747F
:1051D000171204E3E06402703174021204E3AA823D
:1051E000AB8312125E802374181204E312546FE032
:1051F0006407701674171204E3E06404700C740200
:105200001204E3AA82AB83121258741A1204BC7FF0
:10521000080205C6F085108285118322EE241E1235
:105220005816E0F9221253DEE06822EE241A1258D2
:105230001612523B8E828F83A3A322E0FCA3E0FDD3
:1052400022851082851183E0F812546FA3A3228572
:10525000108285118312546DA3A3A378082274F7DA
:1052600012050274F71204ADEAFEEBFF90F162E062
:105270006403600DE064016008E0640960030253A8
:10528000D48E828F83A3E060030253B07C007D0044
:105290007A027B00121C30EE2402FAEF3400FB8A03
:1052A000828B831253DEE8F0A3E9F07953120CCF1E
:1052B00090F162E06409790090F1607005124D4E42
:1052C000807B124D4EE4851082851183805F8510AE
:1052D00082851183E075F00BA4F8AAF0EAF9E824BE
:1052E00098F582E934FAF58312554B90F160E06845
:1052F0007003A3E069602E851082851183E075F04C
:105300000BA4F8EAF9E82496F8E934FAF9888289D6
:105310008374FEF0A374FFF088828983A3A374FED4
:10532000F0A374FFF0851082851183E004F0E0C0E3
:10533000E09020A0E493FAD0E0C39A4091740185F4
:105340001082851183F0AA82AB837942120CCF744C
:105350000490F162F074011204E3AA82AB83794AEB
:10536000120CB5AC82AD837A587BF112161E90F107
:105370005312523B7A037B00121C3090F1561252AA
:105380003B7A047B00121C3090F14DE0A2E3500404
:10539000D2F08002C2F0A2F0E492E0851082851182
:1053A00083F0AA82AB837952120CCF12115680215E
:1053B0008E828F83A3AE82AF83FC7D007A037B1045
:1053C000121C308E828F83E0F9124D4BE490F16213
:1053D000F012118674091204BC7F010205C6125531
:1053E0004B90F15322C082C08390F12FE07002A352
:1053F000E0704790F162E01207D600030107540500
:105400001C54062B543A5490F137E07002A3E0602C
:105410004A90F1371254691204ED803F90F133E065
:105420007002A3E0603590F13380E990F135E070CF
:1054300002A3E0602690F13580DA790090F1A08037
:10544000080912545EEB12580B12547CEA7001EBFF
:1054500070EF90F1A012547C1210F0024E45EA2435
:1054600015F5822279C490F13B12546D22E0F8A325
:10547000E0F583888222EE242E125816E0FAA3E08B
:10548000FB2274F412050274FD1204AD8A088B0924
:105490007A0F7B0012163C8A0A8B0BAE0AAF0BEE1A
:1054A0007001EF700302552D74238E828F83F07A82
:1054B000537BF17953120CB590F153125825E8F053
:1054C000A3E9F07A567BF1794B120CB57A607BF147
:1054D0007950120CB57A557BF179E1120CB590F147
:1054E00067E0C3940F501890F155E0851082851144
:1054F00083F074021204E37401125530120E227507
:105500000A00780A1206F790FC4C1258531204BC99
:10551000850882850983A312581EF0740390F162F6
:10552000F0EEFAEFFB90F19FE0F912164802553CBD
:1055300012553422125214AA82AB8322740312042D
:10554000BC7F040205C612554BE822E0F8A3E0F93F
:105550002274F212050274F11204ADEAFEEBFF9020
:10556000F162E064026012E06406600D90F12FE0E9
:105570007002A3E070030257EA8E828F83A3A3A375
:10558000E0F508A3E0F509851082851183AC82ADB2
:1055900083790B8E828F83A3A3A3A3A3A3A3A3A327
:1055A00012547C12118C851082851183E0600302F5
:1055B00057EA8E828F83A3A3A3A3A3A3A3A3E0C3CD
:1055C000940350030257EA850882850983A3A3A3A5
:1055D000A3A3A3A3A3E0640260030257EA90F12F00
:1055E000E07002A3E07026750A00780A1206F7E55B
:1055F000082410F582E50912580B125840FCA3E06C
:10560000FD85088285098312585E1204BC90F1A0C2
:1056100012590790F1A0E0F50AA3E0F50B80338E54
:10562000828F83E0F8A3125840687003A3E069708A
:10563000158E828F83A3A3E0FAE508240D124D4254
:105640006A70030256CB8E0A8F0BEE12545FEF1274
:105650005904EE7001EF70C77A177B001216968A14
:105660000C8B0DAE0CAF0DEE7001EF70030257EA1C
:1056700090F1A0E07002A3E0700590F1A0800AE52F
:105680000A12545FE50B12580BEEF0A3EF125869A3
:10569000A3A3A374FEF0A374FFF012580F74FFF0DD
:1056A000E48E828F83A3A3A3A3A3125869F0125898
:1056B00005E4F0A3F0E508240B1257F91257EFF0B8
:1056C00088828983E0C41257EFA3F074011204E3C7
:1056D000125833A3F074021204E3125833F0E508B1
:1056E000240DF582E50912580B12581EA3F0850807
:1056F00082850983A3A3A3A3A3A3A3A3A312582BC7
:10570000E8F0A3E9F074021204E3E06401601174AC
:10571000071204E3AC82AD831258FB12161E800CF4
:105720007C087D0079FF1258FB12162490FC4CE097
:10573000C0E0124D3EFAD0E0C39A40030257EAE5BA
:1057400008240BF582E50912580BA3E05480F9E414
:105750007001E9700990F92DE070030257EA7406B0
:105760001204E312581EA3A3A3A3A3700DE0706656
:1057700074041204E3E07005805CE06013740512A9
:1057800004E3E0C0E012580FE0FAD0E0C39A5031D1
:10579000850882850983125825A3A3A3A3A3A3A3E5
:1057A000E8F0A3E9F0124D3EC0E0EE240B125808D9
:1057B000D0E0F074051204E3E0C0E012580FD0E02E
:1057C000F074061204E3E0600D74018E828F83A3EF
:1057D000A3A3A3A3A3F074041204E3E0600C740178
:1057E0008E828F83A3A3A3A3A3F0740F0258F35454
:1057F0000F8E828F83A3A3A322F8E5093400F988D2
:10580000828983E022EE2415F582EF12581922EEE8
:10581000240C12581622F582EF3400F58322E08E14
:10582000828F83A32212582BA3A32212554B8E8260
:105830008F8322E08E828F83A3A3A3A3A3A3A3229B
:10584000E0F9850882850983A3A3A3A3A3A3A3A347
:10585000A3E022E0F990F16012523B90F156E0FA99
:10586000A3E0FB12123474012212593EA3A3227446
:10587000F212050274F81204AD8A0A8B0B8C0C8D9F
:105880000D8908851082851183AC82AD837583FBF9
:10589000758280740812039EF509AC0AAD0B851061
:1058A00082851183AA82AB83121630E970037509D1
:1058B0000190F1A080128E828F83E0650C7004A3AA
:1058C000E0650D601D125805125907EE7001EF607A
:1058D0001CE50960E1AC0AAD0B1258FB121630E969
:1058E00060E38E828F83A3A3E0650870D8EEFAEFA1
:1058F000FB74081204BC7F060205C6EE240DFAEF05
:105900003400FB22125819E0FEA3E0FF2274F712C4
:10591000050290F1A0E0FAA3E0800D12545EEB12B4
:10592000590412169CEEFAEFFBEA7001EB70EC9052
:10593000F1A0E4F0A3F00253D97F030205C6125987
:1059400043A322F00257F174F5120502ECFEEDFFBD
:105950008A828B83E08E828F83F08A828B83A3AAD4
:1059600082AB83E01259CB1259DFC41259CB1259C2
:10597000D0E054038E828F831259DDA2E2E492E0DC
:105980008E828F831259DC131313541F1259CBA329
:105990001259DCA2E7E492E08E828F83A3A3A3A333
:1059A0001259D0740B6970208A088B09750A007827
:1059B000081206EF7C087D00EE2407FAEF3400FBA6
:1059C00012161874031204BC025939540F02582ECF
:1059D000A3A3F08A828B83A30AAB8322A3A3A3A3EE
:1059E000F08A828B83E022C082C083E990F24EF07D
:1059F000E490F24FF090F250F01217980266B874EB
:105A0000F612050274FF1204ADE412671B1206F3CE
:105A10007C017A05025DDE74F6120502EAFEEBFFF8
:105A200074805FF9E47001E97015EE540460257923
:105A30000212160674046EFAEFFB801C1215B29067
:105A4000F24EE0F912164EEA7001EB70EFEEFA74C6
:105A5000806F80E57A007B00025DE974F212050236
:105A6000ECFEEDFF890B740E1204E3E0F508A3E0F1
:105A7000F50974028E828F83F0A3AE82AF838E0C01
:105A80008F0DEBF0A3EAF0A3E5087002E509602AA8
:105A9000E9F0A30E0E0EAF83750A0078081206EF28
:105AA000E9FC7D00EEFAEFFB12161874031204BC39
:105AB0008A088B09AE08AF098008E4F0A30E0E0E29
:105AC000AF837403250BF9AA0CAB0D12179EE98E58
:105AD000828F83F080031204BC7F060205C674F037
:105AE000120502890A8A0E8B0F8C0B74101204E3C4
:105AF000E0F508A3E0F509E9FA7B001216968A0C96
:105B00008B0DAE0CAF0DEE7001EF601A7808120627
:105B1000F3A90BEEFCEFFDAA0EAB0F125DA712046A
:105B2000BCAC0A125B3080031204BC7F080205C6BD
:105B30007D00EEFAEFFB79001219F6EEFAEFFB1298
:105B4000169C2274F21205028A088B098A828B83C2
:105B5000A3A3E0FEA3E0FF8A828B83E01207D600B6
:105B60000501725B02805B048A5B06855B24D15B66
:105B7000E35B8A828B83A3A31265001215DC80632A
:105B80001215B8805E1215BE80598E828F83A3A332
:105B9000A3E02405F50A74FE250AF98E828F83A3FB
:105BA000AA82AB8312179EE9C0E0850A0CEE250C91
:105BB000F8EF3400F974FF28F58274FF39F583D0CB
:105BC000E0F0AC0A7D00EEFAEFFB79001219F680E6
:105BD000128E828F83A3A3A3E02405F9EEFAEFFBD4
:105BE0001215EEAA08AB09121642025AD974F21223
:105BF000050274F51204ADEAFEEBFF8E828F83A3DB
:105C0000A3A3A3E0C3332405F5087406125D18703E
:105C100001EB7003025D138E828F83A3A3E08510D6
:105C200082851183126671E0C0E074011204E3D032
:105C3000E0F0EE2404F8EF3400F9E8FAE9FB8A8298
:105C40008B83E0C0E074021204E3D0E0F07403122E
:105C500004E3A882A9838A828B83E06030EE240566
:105C6000F8EF3400F988828983A3E0C0E07403125E
:105C700004E3D0E0F088828983E0C0E07404120479
:105C8000E3D0E0F074051204E3A882A9838E828F2A
:105C900083A3A3A3A3E0C394024009EE24070A0A46
:105CA0000A125D268E828F83A3A3A3A3E0640370F0
:105CB00007EE2409FA125D26EE240BFA125D3D125E
:105CC0006773A3A882A9838A828B83126773850A6C
:105CD00082850B83A3AE82AF838510828511838575
:105CE000820C85830D780C1206F3A908EEFCEFFDFB
:105CF0007A037B40125DA71204BC74052508FCE4FE
:105D00003400FDEEFAEFFB79001219F6AA0AAB0B8C
:105D1000121642740B025AD62508FA7B0012163C62
:105D20008A0A8B0BEA22125D3D126777A3A882A92B
:105D3000838A828B83126777A308A98322EF3400BA
:105D4000FB8A828B83A32274F41205028A088B09D2
:105D50008A828B83A3A3E0240512677E7001EF6023
:105D600041E5082402F50AE5093400F50B850882AF
:105D7000850983A3A3A312070A850A82850B83E002
:105D8000F9EEFCEFFD7A157B10125DA71204BC85BD
:105D90000A82850B83E0F8740528FCE43400FD12C8
:105DA0005B327F040205C61215A674022274F61235
:105DB00005028A828B83E0FEEA2402F508EB3400B8
:105DC000F50978081206F3EEFA1264D91206F37C8C
:105DD000007D00EEFA7B0012170E74048008126535
:105DE000191204BC74011204BC7F020205C674F0CF
:105DF0001205028A828B83E0F508FA7B00121708ED
:105E00008A0A8B0B7403250AFEE4350BFF0A0A0A83
:105E1000FB1216968A0E8B0FEA7001EB605DEEFCAA
:105E2000EFFD7900121624E50E2403F50CE50F347E
:105E300000F50D780C1206F3780A1206F37C007D4B
:105E400000AA0812603B1204BCE9850E82850F830C
:105E5000F0A3E508F0850E82850F83A3A3E50AF081
:105E6000780E1206F3EEFC7A137B102405F9126506
:105E70001D1204BCAA0EAB0F12169C025B2B74F011
:105E800012050274FA1204AD7A201260D57001EB8B
:105E900070030260307C207D0079FF121624850A91
:105EA00082850B83A385820885830978081206F30F
:105EB000750C08750D00780C1206F312603512048B
:105EC000BCE9FE60027E011260BF74021204E38529
:105ED000820C85830D780C1206F3750C04750D0089
:105EE000780C1206F37C007D007A8412603B120469
:105EF000BCE96006EED2E1FE806074021204E37831
:105F00000C1203737418780C1202DB850882850961
:105F100083E50CF074021204E3780C12037374101E
:105F2000780C1202DB850882850983A3E50CF074E6
:105F3000021204E3780C120373E50D8508828509CB
:105F400083A3A3F074021204E3780C120373850890
:105F500082850983A3A3A3E50CF0E5082404F508D2
:105F6000E5093400F50985108285118385820C8549
:105F7000830D780C1206F3750C02750D00780C1267
:105F800006F37C007D007A8312603B1204BCE9605A
:105F900006EED2E2FE8019851082851183A3E0858A
:105FA0000882850983126668850882850983A3F0C3
:105FB000E5082402F50CE5093400F50D850C82F5A1
:105FC00083A3858208858309780C1206F3750C017A
:105FD000750D00780C1206F37C007D007A6112606A
:105FE0003B1204BCE96004EED2E3FE78081206F32B
:105FF00075081075090078081206F37C007D007A98
:106000006212603B1204BCE96004EED2E4FEEE854D
:106010000A82850B83F0780A1206F37C207A1F7BB4
:1060200010792512651D1204BCAA0AAB0B12169C2E
:106030007406025B287C007D007A017B0012171435
:1060400074042274F21205027A2E1260D57001EBEC
:10605000606AE48A828B831260DD78081206F37529
:106060000C08750D00780C1206F31260351204BC92
:106070001260BF12121C850882850983EBF0A3EA27
:10608000F0A374041260DD90FC05E08508828509A8
:1060900083F0A3E41260DD7C20FDF9AA08AB0912AD
:1060A0001624780A1206F37C2E7A147B10793312A8
:1060B000651D1204BCAA0AAB0B12169C025AD979B0
:1060C00008AA08AB0912160CE5082408F508E5092A
:1060D0003400F509227B00121696025D20F0A3859C
:1060E00082088583092274F012050274ED1204AD52
:1060F00079008A828B83A3E0FE8A828B83E0FF9003
:10610000F251EEF0A3EFF0EA2403FCEB3400FD853E
:106110001082851183ECF0A3EDF07C007402120470
:10612000E385820885830974031204E3E508F0A37C
:10613000E509F08E088F09780812079001001E4CBF
:10614000627F61A961CA614C62E361EC61F561152E
:10615000624C624C624C624C624C624C624C626CAF
:1061600062B262C863D163C2634C625D64DA61BFCC
:1061700064D064DA63CE62FE628963A363BC637435
:106180000C1204E3AC82AD83126506FB1215F474A5
:106190000B1204E3E9F07C02A882A98374031204C1
:1061A000E3E8F0A3E9F002624F1264E5E0F9126659
:1061B0005DFC851082851183126511FBECFA1215C6
:1061C000FA74021204E3E90262AD126652FA126630
:1061D0005D90F24FF0EA90F250F074021204E3E4A2
:1061E0000262AD126652F9121600807B0C74021224
:1061F00004E3E480B074091204E3E4F0A3F0740B48
:106200001204E3E4F0740C1204E3E4F00C0C740BDD
:106210001204E38083121276E914C333F8E433F9ED
:10622000E824E1F508E934FBF509850882F58312D5
:106230006500121612EAFC850882850983E0F8A33E
:10624000E0F974031204E3E8F0A3E9F0EC601874D9
:10625000031204E312070AEEFA74104FFB74052CC4
:10626000F912651D1204BC7413025B2879081264CC
:10627000FA12160C1264FA79E2120CCFE970278533
:10628000108285118312070A7508087509007808BD
:106290001206F37C007D007A017B0012170E740455
:1062A0001204BC0261C174021204E37401F07C01A7
:1062B000809D740B1204E3AA82AB8379E2120CB5C1
:1062C0007908AA82AB8312160C7C0802620E126552
:1062D00006F9EAF874091204E3E8F0A3E9F0740996
:1062E0001204E385820885830978081206F37A830D
:1062F0001264D91206F37C007D007A83809B1264BD
:10630000E5A3E0F5088909890A890B8510828511C2
:10631000831264F2A3E0F50C890D890E890F7408CD
:10632000780C1202F47808790C1203138510828518
:106330001183E0F8126663F50C8C0D7410780C1262
:1063400002F47808790C120313126652F50C8C0EC5
